{
  "contractName": "Adminable",
  "abi": [
    {
      "constant": true,
      "inputs": [],
      "name": "admin",
      "outputs": [
        {
          "name": "",
          "type": "address"
        }
      ],
      "payable": false,
      "stateMutability": "view",
      "type": "function"
    },
    {
      "inputs": [],
      "payable": false,
      "stateMutability": "nonpayable",
      "type": "constructor"
    },
    {
      "constant": false,
      "inputs": [],
      "name": "toggleContractActive",
      "outputs": [],
      "payable": false,
      "stateMutability": "nonpayable",
      "type": "function"
    }
  ],
  "bytecode": "0x608060405260008060006101000a81548160ff02191690831515021790555034801561002a57600080fd5b5033600060016101000a81548173ffffffffffffffffffffffffffffffffffffffff021916908373ffffffffffffffffffffffffffffffffffffffff1602179055506101ce8061007b6000396000f3fe608060405234801561001057600080fd5b50600436106100365760003560e01c80631385d24c1461003b578063f851a44014610045575b600080fd5b61004361008f565b005b61004d61017c565b604051808273ffffffffffffffffffffffffffffffffffffffff1673ffffffffffffffffffffffffffffffffffffffff16815260200191505060405180910390f35b600060019054906101000a900473ffffffffffffffffffffffffffffffffffffffff1673ffffffffffffffffffffffffffffffffffffffff163373ffffffffffffffffffffffffffffffffffffffff1614610152576040517f08c379a00000000000000000000000000000000000000000000000000000000081526004018080602001828103825260148152602001807f63616c6c6572206973206e6f742061646d696e2e00000000000000000000000081525060200191505060405180910390fd5b6000809054906101000a900460ff16156000806101000a81548160ff021916908315150217905550565b600060019054906101000a900473ffffffffffffffffffffffffffffffffffffffff168156fea165627a7a723058209a43a287f2c23b2907d985c6d34cf50fcece0cdc8970b77d0a2b732e2eb4cd600029",
  "source": "pragma solidity ^0.5.0;\n\ncontract Adminable {\n  bool private stopped = false;\n  address payable public admin;\n\n  modifier onlyAdmin() {\n    require(msg.sender == admin, \"caller is not admin.\");\n    _;\n  }\n\n  modifier stopInEmergency() { \n    require(!stopped, \"stop in emergency\");\n    _; \n  }\n  modifier onlyInEmergency() { \n    require(stopped, \"only in emergency\");\n     _; \n  }\n\n  constructor() public {\n    admin = msg.sender;\n  }\n\n  function toggleContractActive() onlyAdmin public {\n    // You can add an additional modifier that restricts stopping a contract to be based on another action, such as a vote of users\n    stopped = !stopped;\n  }\n\n  \n\n}",
  "sourcePath": "/Users/iisaint/Workspace/ConsensysAcademy/online-marketplace/contracts/Adminable.sol",
  "compiler": {
    "name": "solc",
    "version": "0.5.8+commit.23d335f2.Emscripten.clang"
  },
  "schemaVersion": "3.0.10",
  "updatedAt": "2019-08-01T01:41:08.580Z",
  "devdoc": {
    "methods": {}
  },
  "userdoc": {
    "methods": {}
  }
}