{
  "contractName": "MarketPlace",
  "abi": [
    {
      "constant": false,
      "inputs": [],
      "name": "toggleContractActive",
      "outputs": [],
      "payable": false,
      "stateMutability": "nonpayable",
      "type": "function"
    },
    {
      "constant": true,
      "inputs": [
        {
          "name": "",
          "type": "address"
        }
      ],
      "name": "isStore",
      "outputs": [
        {
          "name": "",
          "type": "bool"
        }
      ],
      "payable": false,
      "stateMutability": "view",
      "type": "function"
    },
    {
      "constant": true,
      "inputs": [
        {
          "name": "",
          "type": "address"
        }
      ],
      "name": "stores",
      "outputs": [
        {
          "name": "name",
          "type": "string"
        },
        {
          "name": "balance",
          "type": "uint256"
        }
      ],
      "payable": false,
      "stateMutability": "view",
      "type": "function"
    },
    {
      "constant": true,
      "inputs": [
        {
          "name": "",
          "type": "uint256"
        }
      ],
      "name": "storeKeys",
      "outputs": [
        {
          "name": "",
          "type": "address"
        }
      ],
      "payable": false,
      "stateMutability": "view",
      "type": "function"
    },
    {
      "constant": true,
      "inputs": [],
      "name": "admin",
      "outputs": [
        {
          "name": "",
          "type": "address"
        }
      ],
      "payable": false,
      "stateMutability": "view",
      "type": "function"
    },
    {
      "inputs": [],
      "payable": false,
      "stateMutability": "nonpayable",
      "type": "constructor"
    },
    {
      "payable": true,
      "stateMutability": "payable",
      "type": "fallback"
    },
    {
      "anonymous": false,
      "inputs": [
        {
          "indexed": true,
          "name": "owner",
          "type": "address"
        },
        {
          "indexed": false,
          "name": "name",
          "type": "string"
        }
      ],
      "name": "LogNewStore",
      "type": "event"
    },
    {
      "anonymous": false,
      "inputs": [
        {
          "indexed": true,
          "name": "owner",
          "type": "address"
        },
        {
          "indexed": false,
          "name": "front",
          "type": "string"
        }
      ],
      "name": "LogNewFront",
      "type": "event"
    },
    {
      "anonymous": false,
      "inputs": [
        {
          "indexed": true,
          "name": "owner",
          "type": "address"
        },
        {
          "indexed": false,
          "name": "front",
          "type": "string"
        },
        {
          "indexed": false,
          "name": "product",
          "type": "string"
        }
      ],
      "name": "LogNewProduct",
      "type": "event"
    },
    {
      "anonymous": false,
      "inputs": [
        {
          "indexed": true,
          "name": "shopper",
          "type": "address"
        },
        {
          "indexed": false,
          "name": "owner",
          "type": "address"
        },
        {
          "indexed": false,
          "name": "front",
          "type": "string"
        },
        {
          "indexed": false,
          "name": "product",
          "type": "string"
        },
        {
          "indexed": false,
          "name": "amount",
          "type": "uint256"
        }
      ],
      "name": "LogBuyProduct",
      "type": "event"
    },
    {
      "anonymous": false,
      "inputs": [
        {
          "indexed": true,
          "name": "owner",
          "type": "address"
        },
        {
          "indexed": false,
          "name": "newBalance",
          "type": "uint256"
        }
      ],
      "name": "LogWithdraw",
      "type": "event"
    },
    {
      "constant": false,
      "inputs": [
        {
          "name": "_owner",
          "type": "address"
        },
        {
          "name": "_name",
          "type": "string"
        }
      ],
      "name": "createStore",
      "outputs": [],
      "payable": false,
      "stateMutability": "nonpayable",
      "type": "function"
    },
    {
      "constant": false,
      "inputs": [
        {
          "name": "_name",
          "type": "string"
        },
        {
          "name": "_isOpen",
          "type": "bool"
        }
      ],
      "name": "createFront",
      "outputs": [],
      "payable": false,
      "stateMutability": "nonpayable",
      "type": "function"
    },
    {
      "constant": false,
      "inputs": [
        {
          "name": "_front",
          "type": "string"
        },
        {
          "name": "_product",
          "type": "string"
        },
        {
          "name": "_price",
          "type": "uint256"
        },
        {
          "name": "_quantity",
          "type": "uint256"
        },
        {
          "name": "_isOpen",
          "type": "bool"
        }
      ],
      "name": "createProduct",
      "outputs": [],
      "payable": false,
      "stateMutability": "nonpayable",
      "type": "function"
    },
    {
      "constant": false,
      "inputs": [
        {
          "name": "_name",
          "type": "string"
        }
      ],
      "name": "toggleFrontActive",
      "outputs": [],
      "payable": false,
      "stateMutability": "nonpayable",
      "type": "function"
    },
    {
      "constant": false,
      "inputs": [
        {
          "name": "_front",
          "type": "string"
        },
        {
          "name": "_product",
          "type": "string"
        }
      ],
      "name": "toggleFrontActive",
      "outputs": [],
      "payable": false,
      "stateMutability": "nonpayable",
      "type": "function"
    },
    {
      "constant": false,
      "inputs": [
        {
          "name": "_amount",
          "type": "uint256"
        }
      ],
      "name": "withdraw",
      "outputs": [],
      "payable": false,
      "stateMutability": "nonpayable",
      "type": "function"
    },
    {
      "constant": false,
      "inputs": [
        {
          "name": "_owner",
          "type": "address"
        }
      ],
      "name": "forcedWithdraw",
      "outputs": [],
      "payable": false,
      "stateMutability": "nonpayable",
      "type": "function"
    },
    {
      "constant": false,
      "inputs": [
        {
          "name": "_owner",
          "type": "address"
        },
        {
          "name": "_front",
          "type": "string"
        },
        {
          "name": "_product",
          "type": "string"
        },
        {
          "name": "_amount",
          "type": "uint256"
        }
      ],
      "name": "buyProduct",
      "outputs": [],
      "payable": true,
      "stateMutability": "payable",
      "type": "function"
    },
    {
      "constant": true,
      "inputs": [],
      "name": "getStoreCount",
      "outputs": [
        {
          "name": "",
          "type": "uint256"
        }
      ],
      "payable": false,
      "stateMutability": "view",
      "type": "function"
    },
    {
      "constant": true,
      "inputs": [
        {
          "name": "_index",
          "type": "uint256"
        }
      ],
      "name": "getStoreAtIndex",
      "outputs": [
        {
          "name": "owner",
          "type": "address"
        },
        {
          "name": "name",
          "type": "string"
        },
        {
          "name": "balance",
          "type": "uint256"
        }
      ],
      "payable": false,
      "stateMutability": "view",
      "type": "function"
    },
    {
      "constant": true,
      "inputs": [
        {
          "name": "_owner",
          "type": "address"
        }
      ],
      "name": "getStoreDetail",
      "outputs": [
        {
          "name": "name",
          "type": "string"
        },
        {
          "name": "balance",
          "type": "uint256"
        }
      ],
      "payable": false,
      "stateMutability": "view",
      "type": "function"
    },
    {
      "constant": true,
      "inputs": [
        {
          "name": "_owner",
          "type": "address"
        }
      ],
      "name": "getFrontsCount",
      "outputs": [
        {
          "name": "",
          "type": "uint256"
        }
      ],
      "payable": false,
      "stateMutability": "view",
      "type": "function"
    },
    {
      "constant": true,
      "inputs": [
        {
          "name": "_owner",
          "type": "address"
        },
        {
          "name": "_index",
          "type": "uint256"
        }
      ],
      "name": "getFrontAtIndex",
      "outputs": [
        {
          "name": "name",
          "type": "string"
        },
        {
          "name": "isOpen",
          "type": "bool"
        }
      ],
      "payable": false,
      "stateMutability": "view",
      "type": "function"
    },
    {
      "constant": true,
      "inputs": [
        {
          "name": "_owner",
          "type": "address"
        },
        {
          "name": "_front",
          "type": "string"
        }
      ],
      "name": "getProductsCount",
      "outputs": [
        {
          "name": "",
          "type": "uint256"
        }
      ],
      "payable": false,
      "stateMutability": "view",
      "type": "function"
    },
    {
      "constant": true,
      "inputs": [
        {
          "name": "_owner",
          "type": "address"
        },
        {
          "name": "_front",
          "type": "string"
        },
        {
          "name": "_index",
          "type": "uint256"
        }
      ],
      "name": "getProductAtIndex",
      "outputs": [
        {
          "name": "name",
          "type": "string"
        },
        {
          "name": "price",
          "type": "uint256"
        },
        {
          "name": "quantity",
          "type": "uint256"
        },
        {
          "name": "sales",
          "type": "uint256"
        },
        {
          "name": "isOpen",
          "type": "bool"
        }
      ],
      "payable": false,
      "stateMutability": "view",
      "type": "function"
    },
    {
      "constant": true,
      "inputs": [
        {
          "name": "_owner",
          "type": "address"
        },
        {
          "name": "_front",
          "type": "string"
        },
        {
          "name": "_product",
          "type": "string"
        },
        {
          "name": "_shopper",
          "type": "address"
        }
      ],
      "name": "getShopperProducts",
      "outputs": [
        {
          "name": "amount",
          "type": "uint256"
        }
      ],
      "payable": false,
      "stateMutability": "view",
      "type": "function"
    }
  ],
  "bytecode": "0x608060405260008060006101000a81548160ff02191690831515021790555034801561002a57600080fd5b5033600060016101000a81548173ffffffffffffffffffffffffffffffffffffffff021916908373ffffffffffffffffffffffffffffffffffffffff1602179055506154e18061007b6000396000f3fe60806040526004361061012a5760003560e01c80635b363783116100ab57806389d64e9e1161006f57806389d64e9e14610e7b57806398e8bd9714610fda578063c41d2a2414611005578063f68fcccb1461106a578063f6a99e4c146110e5578063f851a440146111cd5761012a565b80635b3637831461099b578063621df53414610a6c57806373c0c72214610b3d57806381d502a914610cc857806388323f9814610d9c5761012a565b80632184fa38116100f25780632184fa38146106e25780632e1a7d4d146107aa57806333f28e64146107e55780633c9c02de1461084e5780634537f7d11461094a5761012a565b8063044584191461012f5780630c073b741461021d5780631385d24c146103d057806317c30b3c146103e75780631a7e914f14610563575b600080fd5b34801561013b57600080fd5b506101686004803603602081101561015257600080fd5b8101908080359060200190929190505050611224565b604051808473ffffffffffffffffffffffffffffffffffffffff1673ffffffffffffffffffffffffffffffffffffffff16815260200180602001838152602001828103825284818151815260200191508051906020019080838360005b838110156101e05780820151818401526020810190506101c5565b50505050905090810190601f16801561020d5780820380516001836020036101000a031916815260200191505b5094505050505060405180910390f35b34801561022957600080fd5b506103ba6004803603608081101561024057600080fd5b81019080803573ffffffffffffffffffffffffffffffffffffffff1690602001909291908035906020019064010000000081111561027d57600080fd5b82018360208201111561028f57600080fd5b803590602001918460018302840111640100000000831117156102b157600080fd5b91908080601f016020809104026020016040519081016040528093929190818152602001838380828437600081840152601f19601f8201169050808301925050505050505091929192908035906020019064010000000081111561031457600080fd5b82018360208201111561032657600080fd5b8035906020019184600183028401116401000000008311171561034857600080fd5b91908080601f016020809104026020016040519081016040528093929190818152602001838380828437600081840152601f19601f820116905080830192505050505050509192919290803573ffffffffffffffffffffffffffffffffffffffff169060200190929190505050611475565b6040518082815260200191505060405180910390f35b3480156103dc57600080fd5b506103e5611791565b005b610561600480360360808110156103fd57600080fd5b81019080803573ffffffffffffffffffffffffffffffffffffffff1690602001909291908035906020019064010000000081111561043a57600080fd5b82018360208201111561044c57600080fd5b8035906020019184600183028401116401000000008311171561046e57600080fd5b91908080601f016020809104026020016040519081016040528093929190818152602001838380828437600081840152601f19601f820116905080830192505050505050509192919290803590602001906401000000008111156104d157600080fd5b8201836020820111156104e357600080fd5b8035906020019184600183028401116401000000008311171561050557600080fd5b91908080601f016020809104026020016040519081016040528093929190818152602001838380828437600081840152601f19601f8201169050808301925050505050505091929192908035906020019092919050505061187e565b005b34801561056f57600080fd5b506106e0600480360360a081101561058657600080fd5b81019080803590602001906401000000008111156105a357600080fd5b8201836020820111156105b557600080fd5b803590602001918460018302840111640100000000831117156105d757600080fd5b91908080601f016020809104026020016040519081016040528093929190818152602001838380828437600081840152601f19601f8201169050808301925050505050505091929192908035906020019064010000000081111561063a57600080fd5b82018360208201111561064c57600080fd5b8035906020019184600183028401116401000000008311171561066e57600080fd5b91908080601f016020809104026020016040519081016040528093929190818152602001838380828437600081840152601f19601f820116905080830192505050505050509192919290803590602001909291908035906020019092919080351515906020019092919050505061219f565b005b3480156106ee57600080fd5b506107a86004803603602081101561070557600080fd5b810190808035906020019064010000000081111561072257600080fd5b82018360208201111561073457600080fd5b8035906020019184600183028401116401000000008311171561075657600080fd5b91908080601f016020809104026020016040519081016040528093929190818152602001838380828437600081840152601f19601f82011690508083019250505050505050919291929050505061284a565b005b3480156107b657600080fd5b506107e3600480360360208110156107cd57600080fd5b8101908080359060200190929190505050612b99565b005b3480156107f157600080fd5b506108346004803603602081101561080857600080fd5b81019080803573ffffffffffffffffffffffffffffffffffffffff169060200190929190505050612ec2565b604051808215151515815260200191505060405180910390f35b34801561085a57600080fd5b506109346004803603604081101561087157600080fd5b81019080803573ffffffffffffffffffffffffffffffffffffffff169060200190929190803590602001906401000000008111156108ae57600080fd5b8201836020820111156108c057600080fd5b803590602001918460018302840111640100000000831117156108e257600080fd5b91908080601f016020809104026020016040519081016040528093929190818152602001838380828437600081840152601f19601f820116905080830192505050505050509192919290505050612ee2565b6040518082815260200191505060405180910390f35b34801561095657600080fd5b506109996004803603602081101561096d57600080fd5b81019080803573ffffffffffffffffffffffffffffffffffffffff169060200190929190505050613307565b005b3480156109a757600080fd5b506109ea600480360360208110156109be57600080fd5b81019080803573ffffffffffffffffffffffffffffffffffffffff1690602001909291905050506135dd565b6040518080602001838152602001828103825284818151815260200191508051906020019080838360005b83811015610a30578082015181840152602081019050610a15565b50505050905090810190601f168015610a5d5780820380516001836020036101000a031916815260200191505b50935050505060405180910390f35b348015610a7857600080fd5b50610abb60048036036020811015610a8f57600080fd5b81019080803573ffffffffffffffffffffffffffffffffffffffff1690602001909291905050506137c7565b6040518080602001838152602001828103825284818151815260200191508051906020019080838360005b83811015610b01578082015181840152602081019050610ae6565b50505050905090810190601f168015610b2e5780820380516001836020036101000a031916815260200191505b50935050505060405180910390f35b348015610b4957600080fd5b50610c2d60048036036060811015610b6057600080fd5b81019080803573ffffffffffffffffffffffffffffffffffffffff16906020019092919080359060200190640100000000811115610b9d57600080fd5b820183602082011115610baf57600080fd5b80359060200191846001830284011164010000000083111715610bd157600080fd5b91908080601f016020809104026020016040519081016040528093929190818152602001838380828437600081840152601f19601f82011690508083019250505050505050919291929080359060200190929190505050613883565b604051808060200186815260200185815260200184815260200183151515158152602001828103825287818151815260200191508051906020019080838360005b83811015610c89578082015181840152602081019050610c6e565b50505050905090810190601f168015610cb65780820380516001836020036101000a031916815260200191505b50965050505050505060405180910390f35b348015610cd457600080fd5b50610d9a60048036036040811015610ceb57600080fd5b8101908080359060200190640100000000811115610d0857600080fd5b820183602082011115610d1a57600080fd5b80359060200191846001830284011164010000000083111715610d3c57600080fd5b91908080601f016020809104026020016040519081016040528093929190818152602001838380828437600081840152601f19601f820116905080830192505050505050509192919290803515159060200190929190505050613c93565b005b348015610da857600080fd5b50610df560048036036040811015610dbf57600080fd5b81019080803573ffffffffffffffffffffffffffffffffffffffff169060200190929190803590602001909291905050506141d8565b604051808060200183151515158152602001828103825284818151815260200191508051906020019080838360005b83811015610e3f578082015181840152602081019050610e24565b50505050905090810190601f168015610e6c5780820380516001836020036101000a031916815260200191505b50935050505060405180910390f35b348015610e8757600080fd5b50610fd860048036036040811015610e9e57600080fd5b8101908080359060200190640100000000811115610ebb57600080fd5b820183602082011115610ecd57600080fd5b80359060200191846001830284011164010000000083111715610eef57600080fd5b91908080601f016020809104026020016040519081016040528093929190818152602001838380828437600081840152601f19601f82011690508083019250505050505050919291929080359060200190640100000000811115610f5257600080fd5b820183602082011115610f6457600080fd5b80359060200191846001830284011164010000000083111715610f8657600080fd5b91908080601f016020809104026020016040519081016040528093929190818152602001838380828437600081840152601f19601f8201169050808301925050505050505091929192905050506145b7565b005b348015610fe657600080fd5b50610fef614a62565b6040518082815260200191505060405180910390f35b34801561101157600080fd5b506110546004803603602081101561102857600080fd5b81019080803573ffffffffffffffffffffffffffffffffffffffff169060200190929190505050614a6f565b6040518082815260200191505060405180910390f35b34801561107657600080fd5b506110a36004803603602081101561108d57600080fd5b8101908080359060200190929190505050614b7d565b604051808273ffffffffffffffffffffffffffffffffffffffff1673ffffffffffffffffffffffffffffffffffffffff16815260200191505060405180910390f35b3480156110f157600080fd5b506111cb6004803603604081101561110857600080fd5b81019080803573ffffffffffffffffffffffffffffffffffffffff1690602001909291908035906020019064010000000081111561114557600080fd5b82018360208201111561115757600080fd5b8035906020019184600183028401116401000000008311171561117957600080fd5b91908080601f016020809104026020016040519081016040528093929190818152602001838380828437600081840152601f19601f820116905080830192505050505050509192919290505050614bb9565b005b3480156111d957600080fd5b506111e2615009565b604051808273ffffffffffffffffffffffffffffffffffffffff1673ffffffffffffffffffffffffffffffffffffffff16815260200191505060405180910390f35b60006060600060038054905084106112a4576040517f08c379a000000000000000000000000000000000000000000000000000000000815260040180806020018281038252600d8152602001807f6f7574206f6620696e6465782e0000000000000000000000000000000000000081525060200191505060405180910390fd5b600384815481106112b157fe5b9060005260206000200160009054906101000a900473ffffffffffffffffffffffffffffffffffffffff16925060026000600386815481106112ef57fe5b9060005260206000200160009054906101000a900473ffffffffffffffffffffffffffffffffffffffff1673ffffffffffffffffffffffffffffffffffffffff1673ffffffffffffffffffffffffffffffffffffffff1681526020019081526020016000206000018054600181600116156101000203166002900480601f0160208091040260200160405190810160405280929190818152602001828054600181600116156101000203166002900480156113eb5780601f106113c0576101008083540402835291602001916113eb565b820191906000526020600020905b8154815290600101906020018083116113ce57829003601f168201915b50505050509150600260006003868154811061140357fe5b9060005260206000200160009054906101000a900473ffffffffffffffffffffffffffffffffffffffff1673ffffffffffffffffffffffffffffffffffffffff1673ffffffffffffffffffffffffffffffffffffffff1681526020019081526020016000206001015490509193909250565b6000600160008673ffffffffffffffffffffffffffffffffffffffff1673ffffffffffffffffffffffffffffffffffffffff16815260200190815260200160002060009054906101000a900460ff16611536576040517f08c379a000000000000000000000000000000000000000000000000000000000815260040180806020018281038252601f8152602001807f746865206f776e657227732073746f726520646f65736e27742065786973740081525060200191505060405180910390fd5b6000600260008773ffffffffffffffffffffffffffffffffffffffff1673ffffffffffffffffffffffffffffffffffffffff168152602001908152602001600020905080600301856040518082805190602001908083835b602083106115b1578051825260208201915060208101905060208303925061158e565b6001836020036101000a038019825116818451168082178552505050505050905001915050908152602001604051809103902060009054906101000a900460ff16611664576040517f08c379a000000000000000000000000000000000000000000000000000000000815260040180806020018281038252601f8152602001807f746865206f776e657227732066726f6e7420646f65736e27742065786973740081525060200191505060405180910390fd5b600081600401866040518082805190602001908083835b6020831061169e578051825260208201915060208101905060208303925061167b565b6001836020036101000a03801982511681845116808217855250505050505090500191505090815260200160405180910390209050600081600401866040518082805190602001908083835b6020831061170d57805182526020820191506020810190506020830392506116ea565b6001836020036101000a038019825116818451168082178552505050505050905001915050908152602001604051809103902090508060050160008673ffffffffffffffffffffffffffffffffffffffff1673ffffffffffffffffffffffffffffffffffffffff168152602001908152602001600020549350505050949350505050565b600060019054906101000a900473ffffffffffffffffffffffffffffffffffffffff1673ffffffffffffffffffffffffffffffffffffffff163373ffffffffffffffffffffffffffffffffffffffff1614611854576040517f08c379a00000000000000000000000000000000000000000000000000000000081526004018080602001828103825260148152602001807f63616c6c6572206973206e6f742061646d696e2e00000000000000000000000081525060200191505060405180910390fd5b6000809054906101000a900460ff16156000806101000a81548160ff021916908315150217905550565b6000809054906101000a900460ff1615611900576040517f08c379a00000000000000000000000000000000000000000000000000000000081526004018080602001828103825260118152602001807f73746f7020696e20656d657267656e637900000000000000000000000000000081525060200191505060405180910390fd5b600160008573ffffffffffffffffffffffffffffffffffffffff1673ffffffffffffffffffffffffffffffffffffffff16815260200190815260200160002060009054906101000a900460ff166119bf576040517f08c379a00000000000000000000000000000000000000000000000000000000081526004018080602001828103825260188152602001807f7468652073746f726520646f65736e27742065786973742e000000000000000081525060200191505060405180910390fd5b6000600260008673ffffffffffffffffffffffffffffffffffffffff1673ffffffffffffffffffffffffffffffffffffffff168152602001908152602001600020905080600301846040518082805190602001908083835b60208310611a3a5780518252602082019150602081019050602083039250611a17565b6001836020036101000a038019825116818451168082178552505050505050905001915050908152602001604051809103902060009054906101000a900460ff16611aed576040517f08c379a00000000000000000000000000000000000000000000000000000000081526004018080602001828103825260188152602001807f7468652066726f6e7420646f65736e27742065786973742e000000000000000081525060200191505060405180910390fd5b600081600401856040518082805190602001908083835b60208310611b275780518252602082019150602081019050602083039250611b04565b6001836020036101000a038019825116818451168082178552505050505050905001915050908152602001604051809103902090508060010160009054906101000a900460ff16611be0576040517f08c379a00000000000000000000000000000000000000000000000000000000081526004018080602001828103825260168152602001807f7468652066726f6e74206973206e6f74206f70656e2e0000000000000000000081525060200191505060405180910390fd5b80600301846040518082805190602001908083835b60208310611c185780518252602082019150602081019050602083039250611bf5565b6001836020036101000a038019825116818451168082178552505050505050905001915050908152602001604051809103902060009054906101000a900460ff16611ccb576040517f08c379a000000000000000000000000000000000000000000000000000000000815260040180806020018281038252601a8152602001807f7468652070726f6475637420646f65736e27742065786973742e00000000000081525060200191505060405180910390fd5b600081600401856040518082805190602001908083835b60208310611d055780518252602082019150602081019050602083039250611ce2565b6001836020036101000a038019825116818451168082178552505050505050905001915050908152602001604051809103902090508060040160009054906101000a900460ff16611dbe576040517f08c379a00000000000000000000000000000000000000000000000000000000081526004018080602001828103825260188152602001807f7468652070726f64756374206973206e6f74206f70656e2e000000000000000081525060200191505060405180910390fd5b8060020154841115611e38576040517f08c379a000000000000000000000000000000000000000000000000000000000815260040180806020018281038252600e8152602001807f6f7574206f6620616d6f756e742e00000000000000000000000000000000000081525060200191505060405180910390fd5b80600101548402341015611eb4576040517f08c379a00000000000000000000000000000000000000000000000000000000081526004018080602001828103825260118152602001807f6e6f7420656e6f7567682076616c75652e00000000000000000000000000000081525060200191505060405180910390fd5b6000611edf611ed083600101548761502f90919063ffffffff16565b346150b590919063ffffffff16565b90506000811115611f32573373ffffffffffffffffffffffffffffffffffffffff166108fc829081150290604051600060405180830381858888f19350505050158015611f30573d6000803e3d6000fd5b505b611f498583600201546150b590919063ffffffff16565b8260020181905550611f688583600301546150ff90919063ffffffff16565b8260030181905550611fc4858360050160003373ffffffffffffffffffffffffffffffffffffffff1673ffffffffffffffffffffffffffffffffffffffff168152602001908152602001600020546150ff90919063ffffffff16565b8260050160003373ffffffffffffffffffffffffffffffffffffffff1673ffffffffffffffffffffffffffffffffffffffff1681526020019081526020016000208190555061203261201f82346150b590919063ffffffff16565b85600101546150ff90919063ffffffff16565b84600101819055503373ffffffffffffffffffffffffffffffffffffffff167e505e05eff2cc810f0e768b70b6fb77c9093f8c5c5095b621e70904bf27e20e89898989604051808573ffffffffffffffffffffffffffffffffffffffff1673ffffffffffffffffffffffffffffffffffffffff1681526020018060200180602001848152602001838103835286818151815260200191508051906020019080838360005b838110156120f15780820151818401526020810190506120d6565b50505050905090810190601f16801561211e5780820380516001836020036101000a031916815260200191505b50838103825285818151815260200191508051906020019080838360005b8381101561215757808201518184015260208101905061213c565b50505050905090810190601f1680156121845780820380516001836020036101000a031916815260200191505b50965050505050505060405180910390a25050505050505050565b600160003373ffffffffffffffffffffffffffffffffffffffff1673ffffffffffffffffffffffffffffffffffffffff16815260200190815260200160002060009054906101000a900460ff1661225e576040517f08c379a00000000000000000000000000000000000000000000000000000000081526004018080602001828103825260198152602001807f63616c6c6572206973206e6f742073746f7265206f776e65720000000000000081525060200191505060405180910390fd5b6000809054906101000a900460ff16156122e0576040517f08c379a00000000000000000000000000000000000000000000000000000000081526004018080602001828103825260118152602001807f73746f7020696e20656d657267656e637900000000000000000000000000000081525060200191505060405180910390fd5b6000600260003373ffffffffffffffffffffffffffffffffffffffff1673ffffffffffffffffffffffffffffffffffffffff168152602001908152602001600020905080600301866040518082805190602001908083835b6020831061235b5780518252602082019150602081019050602083039250612338565b6001836020036101000a038019825116818451168082178552505050505050905001915050908152602001604051809103902060009054906101000a900460ff1661240e576040517f08c379a00000000000000000000000000000000000000000000000000000000081526004018080602001828103825260148152602001807f66726f6e7420646f65736e27742065786973742e00000000000000000000000081525060200191505060405180910390fd5b600081600401876040518082805190602001908083835b602083106124485780518252602082019150602081019050602083039250612425565b6001836020036101000a0380198251168184511680821785525050505050509050019150509081526020016040518091039020905080600301866040518082805190602001908083835b602083106124b55780518252602082019150602081019050602083039250612492565b6001836020036101000a038019825116818451168082178552505050505050905001915050908152602001604051809103902060009054906101000a900460ff1615612569576040517f08c379a00000000000000000000000000000000000000000000000000000000081526004018080602001828103825260208152602001807f70726f64756374206e616d6520697320616c726561647920637265617465642e81525060200191505060405180910390fd5b600181600301876040518082805190602001908083835b602083106125a35780518252602082019150602081019050602083039250612580565b6001836020036101000a038019825116818451168082178552505050505050905001915050908152602001604051809103902060006101000a81548160ff0219169083151502179055506040518060a001604052808781526020018681526020018581526020016000815260200184151581525081600401876040518082805190602001908083835b6020831061264f578051825260208201915060208101905060208303925061262c565b6001836020036101000a0380198251168184511680821785525050505050509050019150509081526020016040518091039020600082015181600001908051906020019061269e929190615247565b5060208201518160010155604082015181600201556060820151816003015560808201518160040160006101000a81548160ff0219169083151502179055509050508060020186908060018154018082558091505090600182039060005260206000200160009091929091909150908051906020019061271f9291906152c7565b50503373ffffffffffffffffffffffffffffffffffffffff167f02a7b30b50af45380ddb7d78a42b77ef264b552f86391b6824b2b2a48c55dd808888604051808060200180602001838103835285818151815260200191508051906020019080838360005b8381101561279f578082015181840152602081019050612784565b50505050905090810190601f1680156127cc5780820380516001836020036101000a031916815260200191505b50838103825284818151815260200191508051906020019080838360005b838110156128055780820151818401526020810190506127ea565b50505050905090810190601f1680156128325780820380516001836020036101000a031916815260200191505b5094505050505060405180910390a250505050505050565b600160003373ffffffffffffffffffffffffffffffffffffffff1673ffffffffffffffffffffffffffffffffffffffff16815260200190815260200160002060009054906101000a900460ff16612909576040517f08c379a00000000000000000000000000000000000000000000000000000000081526004018080602001828103825260198152602001807f63616c6c6572206973206e6f742073746f7265206f776e65720000000000000081525060200191505060405180910390fd5b6000809054906101000a900460ff161561298b576040517f08c379a00000000000000000000000000000000000000000000000000000000081526004018080602001828103825260118152602001807f73746f7020696e20656d657267656e637900000000000000000000000000000081525060200191505060405180910390fd5b600260003373ffffffffffffffffffffffffffffffffffffffff1673ffffffffffffffffffffffffffffffffffffffff168152602001908152602001600020600301816040518082805190602001908083835b60208310612a0157805182526020820191506020810190506020830392506129de565b6001836020036101000a038019825116818451168082178552505050505050905001915050908152602001604051809103902060009054906101000a900460ff16612ab4576040517f08c379a00000000000000000000000000000000000000000000000000000000081526004018080602001828103825260198152602001807f66726f6e74206e616d6520646f65736e27742065786973742e0000000000000081525060200191505060405180910390fd5b6000600260003373ffffffffffffffffffffffffffffffffffffffff1673ffffffffffffffffffffffffffffffffffffffff1681526020019081526020016000209050600081600401836040518082805190602001908083835b60208310612b315780518252602082019150602081019050602083039250612b0e565b6001836020036101000a038019825116818451168082178552505050505050905001915050908152602001604051809103902090508060010160009054906101000a900460ff16158160010160006101000a81548160ff021916908315150217905550505050565b600160003373ffffffffffffffffffffffffffffffffffffffff1673ffffffffffffffffffffffffffffffffffffffff16815260200190815260200160002060009054906101000a900460ff16612c58576040517f08c379a00000000000000000000000000000000000000000000000000000000081526004018080602001828103825260198152602001807f63616c6c6572206973206e6f742073746f7265206f776e65720000000000000081525060200191505060405180910390fd5b6000809054906101000a900460ff1615612cda576040517f08c379a00000000000000000000000000000000000000000000000000000000081526004018080602001828103825260118152602001807f73746f7020696e20656d657267656e637900000000000000000000000000000081525060200191505060405180910390fd5b600260003373ffffffffffffffffffffffffffffffffffffffff1673ffffffffffffffffffffffffffffffffffffffff16815260200190815260200160002060010154811115612d92576040517f08c379a00000000000000000000000000000000000000000000000000000000081526004018080602001828103825260158152602001807f696e73756666696369656e742062616c616e63652e000000000000000000000081525060200191505060405180910390fd5b612de781600260003373ffffffffffffffffffffffffffffffffffffffff1673ffffffffffffffffffffffffffffffffffffffff168152602001908152602001600020600101546150b590919063ffffffff16565b503373ffffffffffffffffffffffffffffffffffffffff166108fc829081150290604051600060405180830381858888f19350505050158015612e2e573d6000803e3d6000fd5b503373ffffffffffffffffffffffffffffffffffffffff167f4ce7033d118120e254016dccf195288400b28fc8936425acd5f17ce2df3ab708600260003373ffffffffffffffffffffffffffffffffffffffff1673ffffffffffffffffffffffffffffffffffffffff168152602001908152602001600020600101546040518082815260200191505060405180910390a250565b60016020528060005260406000206000915054906101000a900460ff1681565b6000600160008473ffffffffffffffffffffffffffffffffffffffff1673ffffffffffffffffffffffffffffffffffffffff16815260200190815260200160002060009054906101000a900460ff16612fa3576040517f08c379a000000000000000000000000000000000000000000000000000000000815260040180806020018281038252601f8152602001807f746865206f776e657227732073746f726520646f65736e27742065786973740081525060200191505060405180910390fd5b6000600260008573ffffffffffffffffffffffffffffffffffffffff1673ffffffffffffffffffffffffffffffffffffffff168152602001908152602001600020905080600301836040518082805190602001908083835b6020831061301e5780518252602082019150602081019050602083039250612ffb565b6001836020036101000a038019825116818451168082178552505050505050905001915050908152602001604051809103902060009054906101000a900460ff166130d1576040517f08c379a000000000000000000000000000000000000000000000000000000000815260040180806020018281038252601f8152602001807f746865206f776e657227732066726f6e7420646f65736e27742065786973740081525060200191505060405180910390fd5b6130d9615347565b81600401846040518082805190602001908083835b6020831061311157805182526020820191506020810190506020830392506130ee565b6001836020036101000a0380198251168184511680821785525050505050509050019150509081526020016040518091039020604051806060016040529081600082018054600181600116156101000203166002900480601f0160208091040260200160405190810160405280929190818152602001828054600181600116156101000203166002900480156131e85780601f106131bd576101008083540402835291602001916131e8565b820191906000526020600020905b8154815290600101906020018083116131cb57829003601f168201915b505050505081526020016001820160009054906101000a900460ff1615151515815260200160028201805480602002602001604051908101604052809291908181526020016000905b828210156132ed578382906000526020600020018054600181600116156101000203166002900480601f0160208091040260200160405190810160405280929190818152602001828054600181600116156101000203166002900480156132d95780601f106132ae576101008083540402835291602001916132d9565b820191906000526020600020905b8154815290600101906020018083116132bc57829003601f168201915b505050505081526020019060010190613231565b505050508152505090508060400151519250505092915050565b600060019054906101000a900473ffffffffffffffffffffffffffffffffffffffff1673ffffffffffffffffffffffffffffffffffffffff163373ffffffffffffffffffffffffffffffffffffffff16146133ca576040517f08c379a00000000000000000000000000000000000000000000000000000000081526004018080602001828103825260148152602001807f63616c6c6572206973206e6f742061646d696e2e00000000000000000000000081525060200191505060405180910390fd5b6000809054906101000a900460ff1661344b576040517f08c379a00000000000000000000000000000000000000000000000000000000081526004018080602001828103825260118152602001807f6f6e6c7920696e20656d657267656e637900000000000000000000000000000081525060200191505060405180910390fd5b6000600260008373ffffffffffffffffffffffffffffffffffffffff1673ffffffffffffffffffffffffffffffffffffffff1681526020019081526020016000206001015411613503576040517f08c379a00000000000000000000000000000000000000000000000000000000081526004018080602001828103825260148152602001807f7468652062616c616e6365206973207a65726f2e00000000000000000000000081525060200191505060405180910390fd5b6000600260008373ffffffffffffffffffffffffffffffffffffffff1673ffffffffffffffffffffffffffffffffffffffff1681526020019081526020016000206001015490506000600260008473ffffffffffffffffffffffffffffffffffffffff1673ffffffffffffffffffffffffffffffffffffffff168152602001908152602001600020600101819055508173ffffffffffffffffffffffffffffffffffffffff166108fc829081150290604051600060405180830381858888f193505050501580156135d8573d6000803e3d6000fd5b505050565b60606000600160008473ffffffffffffffffffffffffffffffffffffffff1673ffffffffffffffffffffffffffffffffffffffff16815260200190815260200160002060009054906101000a900460ff166136a0576040517f08c379a000000000000000000000000000000000000000000000000000000000815260040180806020018281038252601f8152602001807f746865206f776e657227732073746f726520646f65736e27742065786973740081525060200191505060405180910390fd5b600260008473ffffffffffffffffffffffffffffffffffffffff1673ffffffffffffffffffffffffffffffffffffffff1681526020019081526020016000206000018054600181600116156101000203166002900480601f0160208091040260200160405190810160405280929190818152602001828054600181600116156101000203166002900480156137765780601f1061374b57610100808354040283529160200191613776565b820191906000526020600020905b81548152906001019060200180831161375957829003601f168201915b50505050509150600260008473ffffffffffffffffffffffffffffffffffffffff1673ffffffffffffffffffffffffffffffffffffffff168152602001908152602001600020600101549050915091565b6002602052806000526040600020600091509050806000018054600181600116156101000203166002900480601f0160208091040260200160405190810160405280929190818152602001828054600181600116156101000203166002900480156138735780601f1061384857610100808354040283529160200191613873565b820191906000526020600020905b81548152906001019060200180831161385657829003601f168201915b5050505050908060010154905082565b6060600080600080600160008973ffffffffffffffffffffffffffffffffffffffff1673ffffffffffffffffffffffffffffffffffffffff16815260200190815260200160002060009054906101000a900460ff1661394a576040517f08c379a000000000000000000000000000000000000000000000000000000000815260040180806020018281038252601f8152602001807f746865206f776e657227732073746f726520646f65736e27742065786973740081525060200191505060405180910390fd5b6000600260008a73ffffffffffffffffffffffffffffffffffffffff1673ffffffffffffffffffffffffffffffffffffffff168152602001908152602001600020905080600301886040518082805190602001908083835b602083106139c557805182526020820191506020810190506020830392506139a2565b6001836020036101000a038019825116818451168082178552505050505050905001915050908152602001604051809103902060009054906101000a900460ff16613a78576040517f08c379a000000000000000000000000000000000000000000000000000000000815260040180806020018281038252601f8152602001807f746865206f776e657227732066726f6e7420646f65736e27742065786973740081525060200191505060405180910390fd5b600081600401896040518082805190602001908083835b60208310613ab25780518252602082019150602081019050602083039250613a8f565b6001836020036101000a03801982511681845116808217855250505050505090500191505090815260200160405180910390209050613aef61536a565b81600401826002018a81548110613b0257fe5b906000526020600020016040518082805460018160011615610100020316600290048015613b675780601f10613b45576101008083540402835291820191613b67565b820191906000526020600020905b815481529060010190602001808311613b53575b505091505090815260200160405180910390206040518060a0016040529081600082018054600181600116156101000203166002900480601f016020809104026020016040519081016040528092919081815260200182805460018160011615610100020316600290048015613c1e5780601f10613bf357610100808354040283529160200191613c1e565b820191906000526020600020905b815481529060010190602001808311613c0157829003601f168201915b505050505081526020016001820154815260200160028201548152602001600382015481526020016004820160009054906101000a900460ff16151515158152505090508060000151975080602001519650806040015195508060600151945080608001519350505050939792965093509350565b600160003373ffffffffffffffffffffffffffffffffffffffff1673ffffffffffffffffffffffffffffffffffffffff16815260200190815260200160002060009054906101000a900460ff16613d52576040517f08c379a00000000000000000000000000000000000000000000000000000000081526004018080602001828103825260198152602001807f63616c6c6572206973206e6f742073746f7265206f776e65720000000000000081525060200191505060405180910390fd5b6000809054906101000a900460ff1615613dd4576040517f08c379a00000000000000000000000000000000000000000000000000000000081526004018080602001828103825260118152602001807f73746f7020696e20656d657267656e637900000000000000000000000000000081525060200191505060405180910390fd5b600260003373ffffffffffffffffffffffffffffffffffffffff1673ffffffffffffffffffffffffffffffffffffffff168152602001908152602001600020600301826040518082805190602001908083835b60208310613e4a5780518252602082019150602081019050602083039250613e27565b6001836020036101000a038019825116818451168082178552505050505050905001915050908152602001604051809103902060009054906101000a900460ff1615613efe576040517f08c379a000000000000000000000000000000000000000000000000000000000815260040180806020018281038252601e8152602001807f66726f6e74206e616d6520697320616c726561647920637265617465642e000081525060200191505060405180910390fd5b6000600260003373ffffffffffffffffffffffffffffffffffffffff1673ffffffffffffffffffffffffffffffffffffffff1681526020019081526020016000209050600181600301846040518082805190602001908083835b60208310613f7b5780518252602082019150602081019050602083039250613f58565b6001836020036101000a038019825116818451168082178552505050505050905001915050908152602001604051809103902060006101000a81548160ff02191690831515021790555060405180606001604052808481526020018315158152602001600060405190808252806020026020018201604052801561401357816020015b6060815260200190600190039081613ffe5790505b5081525081600401846040518082805190602001908083835b6020831061404f578051825260208201915060208101905060208303925061402c565b6001836020036101000a0380198251168184511680821785525050505050509050019150509081526020016040518091039020600082015181600001908051906020019061409e929190615247565b5060208201518160010160006101000a81548160ff02191690831515021790555060408201518160020190805190602001906140db92919061539b565b509050508060020183908060018154018082558091505090600182039060005260206000200160009091929091909150908051906020019061411e9291906152c7565b50503373ffffffffffffffffffffffffffffffffffffffff167f36da0442e101cb9e4ed09d18ef2c0bc21c2a78d07363bf0ac1f9dea87caec1bb846040518080602001828103825283818151815260200191508051906020019080838360005b8381101561419957808201518184015260208101905061417e565b50505050905090810190601f1680156141c65780820380516001836020036101000a031916815260200191505b509250505060405180910390a2505050565b60606000600160008573ffffffffffffffffffffffffffffffffffffffff1673ffffffffffffffffffffffffffffffffffffffff16815260200190815260200160002060009054906101000a900460ff1661429b576040517f08c379a000000000000000000000000000000000000000000000000000000000815260040180806020018281038252601f8152602001807f746865206f776e657227732073746f726520646f65736e27742065786973740081525060200191505060405180910390fd5b6000600260008673ffffffffffffffffffffffffffffffffffffffff1673ffffffffffffffffffffffffffffffffffffffff16815260200190815260200160002090508060020180549050841061435a576040517f08c379a000000000000000000000000000000000000000000000000000000000815260040180806020018281038252600d8152602001807f6f7574206f6620696e6465782e0000000000000000000000000000000000000081525060200191505060405180910390fd5b614362615347565b8160040182600201868154811061437557fe5b9060005260206000200160405180828054600181600116156101000203166002900480156143da5780601f106143b85761010080835404028352918201916143da565b820191906000526020600020905b8154815290600101906020018083116143c6575b50509150509081526020016040518091039020604051806060016040529081600082018054600181600116156101000203166002900480601f0160208091040260200160405190810160405280929190818152602001828054600181600116156101000203166002900480156144915780601f1061446657610100808354040283529160200191614491565b820191906000526020600020905b81548152906001019060200180831161447457829003601f168201915b505050505081526020016001820160009054906101000a900460ff1615151515815260200160028201805480602002602001604051908101604052809291908181526020016000905b82821015614596578382906000526020600020018054600181600116156101000203166002900480601f0160208091040260200160405190810160405280929190818152602001828054600181600116156101000203166002900480156145825780601f1061455757610100808354040283529160200191614582565b820191906000526020600020905b81548152906001019060200180831161456557829003601f168201915b5050505050815260200190600101906144da565b50505050815250509050806000015193508060200151925050509250929050565b600160003373ffffffffffffffffffffffffffffffffffffffff1673ffffffffffffffffffffffffffffffffffffffff16815260200190815260200160002060009054906101000a900460ff16614676576040517f08c379a00000000000000000000000000000000000000000000000000000000081526004018080602001828103825260198152602001807f63616c6c6572206973206e6f742073746f7265206f776e65720000000000000081525060200191505060405180910390fd5b6000809054906101000a900460ff16156146f8576040517f08c379a00000000000000000000000000000000000000000000000000000000081526004018080602001828103825260118152602001807f73746f7020696e20656d657267656e637900000000000000000000000000000081525060200191505060405180910390fd5b600260003373ffffffffffffffffffffffffffffffffffffffff1673ffffffffffffffffffffffffffffffffffffffff168152602001908152602001600020600301826040518082805190602001908083835b6020831061476e578051825260208201915060208101905060208303925061474b565b6001836020036101000a038019825116818451168082178552505050505050905001915050908152602001604051809103902060009054906101000a900460ff16614821576040517f08c379a00000000000000000000000000000000000000000000000000000000081526004018080602001828103825260198152602001807f66726f6e74206e616d6520646f65736e27742065786973742e0000000000000081525060200191505060405180910390fd5b6000600260003373ffffffffffffffffffffffffffffffffffffffff1673ffffffffffffffffffffffffffffffffffffffff1681526020019081526020016000209050600081600401846040518082805190602001908083835b6020831061489e578051825260208201915060208101905060208303925061487b565b6001836020036101000a0380198251168184511680821785525050505050509050019150509081526020016040518091039020905080600301836040518082805190602001908083835b6020831061490b57805182526020820191506020810190506020830392506148e8565b6001836020036101000a038019825116818451168082178552505050505050905001915050908152602001604051809103902060009054906101000a900460ff166149be576040517f08c379a000000000000000000000000000000000000000000000000000000000815260040180806020018281038252601b8152602001807f70726f64756374206e616d6520646f65736e27742065786973742e000000000081525060200191505060405180910390fd5b600081600401846040518082805190602001908083835b602083106149f857805182526020820191506020810190506020830392506149d5565b6001836020036101000a038019825116818451168082178552505050505050905001915050908152602001604051809103902090508060040160009054906101000a900460ff16158160040160006101000a81548160ff0219169083151502179055505050505050565b6000600380549050905090565b6000600160008373ffffffffffffffffffffffffffffffffffffffff1673ffffffffffffffffffffffffffffffffffffffff16815260200190815260200160002060009054906101000a900460ff16614b30576040517f08c379a000000000000000000000000000000000000000000000000000000000815260040180806020018281038252601f8152602001807f746865206f776e657227732073746f726520646f65736e27742065786973740081525060200191505060405180910390fd5b600260008373ffffffffffffffffffffffffffffffffffffffff1673ffffffffffffffffffffffffffffffffffffffff168152602001908152602001600020600201805490509050919050565b60038181548110614b8a57fe5b906000526020600020016000915054906101000a900473ffffffffffffffffffffffffffffffffffffffff1681565b600060019054906101000a900473ffffffffffffffffffffffffffffffffffffffff1673ffffffffffffffffffffffffffffffffffffffff163373ffffffffffffffffffffffffffffffffffffffff1614614c7c576040517f08c379a00000000000000000000000000000000000000000000000000000000081526004018080602001828103825260148152602001807f63616c6c6572206973206e6f742061646d696e2e00000000000000000000000081525060200191505060405180910390fd5b6000809054906101000a900460ff1615614cfe576040517f08c379a00000000000000000000000000000000000000000000000000000000081526004018080602001828103825260118152602001807f73746f7020696e20656d657267656e637900000000000000000000000000000081525060200191505060405180910390fd5b600160008373ffffffffffffffffffffffffffffffffffffffff1673ffffffffffffffffffffffffffffffffffffffff16815260200190815260200160002060009054906101000a900460ff1615614dbe576040517f08c379a00000000000000000000000000000000000000000000000000000000081526004018080602001828103825260108152602001807f6475706c69636174652073746f72652e0000000000000000000000000000000081525060200191505060405180910390fd5b60018060008473ffffffffffffffffffffffffffffffffffffffff1673ffffffffffffffffffffffffffffffffffffffff16815260200190815260200160002060006101000a81548160ff0219169083151502179055506040518060600160405280828152602001600081526020016000604051908082528060200260200182016040528015614e6257816020015b6060815260200190600190039081614e4d5790505b50815250600260008473ffffffffffffffffffffffffffffffffffffffff1673ffffffffffffffffffffffffffffffffffffffff1681526020019081526020016000206000820151816000019080519060200190614ec1929190615247565b50602082015181600101556040820151816002019080519060200190614ee892919061539b565b5090505060038290806001815401808255809150509060018203906000526020600020016000909192909190916101000a81548173ffffffffffffffffffffffffffffffffffffffff021916908373ffffffffffffffffffffffffffffffffffffffff160217905550508173ffffffffffffffffffffffffffffffffffffffff167fa7a7f9a1330b838be79b751ee060f9db022a74c4288f770bb54d328e8e4c11a7826040518080602001828103825283818151815260200191508051906020019080838360005b83811015614fcb578082015181840152602081019050614fb0565b50505050905090810190601f168015614ff85780820380516001836020036101000a031916815260200191505b509250505060405180910390a25050565b600060019054906101000a900473ffffffffffffffffffffffffffffffffffffffff1681565b60008083141561504257600090506150af565b600082840290508284828161505357fe5b04146150aa576040517f08c379a00000000000000000000000000000000000000000000000000000000081526004018080602001828103825260218152602001806154956021913960400191505060405180910390fd5b809150505b92915050565b60006150f783836040518060400160405280601e81526020017f536166654d6174683a207375627472616374696f6e206f766572666c6f770000815250615187565b905092915050565b60008082840190508381101561517d576040517f08c379a000000000000000000000000000000000000000000000000000000000815260040180806020018281038252601b8152602001807f536166654d6174683a206164646974696f6e206f766572666c6f77000000000081525060200191505060405180910390fd5b8091505092915050565b6000838311158290615234576040517f08c379a00000000000000000000000000000000000000000000000000000000081526004018080602001828103825283818151815260200191508051906020019080838360005b838110156151f95780820151818401526020810190506151de565b50505050905090810190601f1680156152265780820380516001836020036101000a031916815260200191505b509250505060405180910390fd5b5060008385039050809150509392505050565b828054600181600116156101000203166002900490600052602060002090601f016020900481019282601f1061528857805160ff19168380011785556152b6565b828001600101855582156152b6579182015b828111156152b557825182559160200191906001019061529a565b5b5090506152c391906153fb565b5090565b828054600181600116156101000203166002900490600052602060002090601f016020900481019282601f1061530857805160ff1916838001178555615336565b82800160010185558215615336579182015b8281111561533557825182559160200191906001019061531a565b5b50905061534391906153fb565b5090565b604051806060016040528060608152602001600015158152602001606081525090565b6040518060a00160405280606081526020016000815260200160008152602001600081526020016000151581525090565b8280548282559060005260206000209081019282156153ea579160200282015b828111156153e95782518290805190602001906153d9929190615247565b50916020019190600101906153bb565b5b5090506153f79190615420565b5090565b61541d91905b80821115615419576000816000905550600101615401565b5090565b90565b61544991905b80821115615445576000818161543c919061544c565b50600101615426565b5090565b90565b50805460018160011615610100020316600290046000825580601f106154725750615491565b601f01602090049060005260206000209081019061549091906153fb565b5b5056fe536166654d6174683a206d756c7469706c69636174696f6e206f766572666c6f77a165627a7a72305820f3da8cb531e5332069ca7ceb8a2315f4097e0b5b4c0bfa39a8a612c07b23b4910029",
  "source": "pragma solidity ^0.5.0;\n\nimport \"./Adminable.sol\";\nimport \"./SafeMath.sol\";\n\n/** @title Online Marketplace. */\ncontract MarketPlace is Adminable {\n  using SafeMath for uint256;\n  struct Product {\n    string name;\n    uint price;\n    uint quantity;\n    uint sales;\n    bool isOpen;\n    mapping(address => uint) shoppers;\n  }\n  \n  struct Front {\n    string name;\n    bool isOpen;\n    string[] productKeys;\n    mapping(string => bool) isProduct;\n    mapping(string => Product) products;\n  }\n  \n  struct Store {\n    string name;\n    uint balance;\n    string[] frontKeys;\n    mapping(string => bool) isFront;\n    mapping(string => Front) fronts;  \n  }\n\n  mapping(address => bool) public isStore;\n  mapping(address => Store) public stores;\n  address[] public storeKeys;\n  \n  // modifier onlyAdmin() {\n  //   require(msg.sender == admin, \"caller is not admin\");\n  //   _;\n  // }\n  \n  modifier onlyStoreOwner() {\n    require(isStore[msg.sender], \"caller is not store owner\");\n    _;\n  }\n\n  modifier storeExist(address _owner) {\n    require(isStore[_owner], \"the store does not exist.\");\n    _;\n  }\n  \n  event LogNewStore(address indexed owner, string name);\n  event LogNewFront(address indexed owner, string front);\n  event LogNewProduct(address indexed owner, string front, string product);\n  event LogBuyProduct(address indexed shopper, address owner, string front, string product, uint amount);\n  event LogWithdraw(address indexed owner, uint newBalance);\n  \n  constructor() public {\n      // admin = msg.sender;\n  }\n  \n  /** @dev Create a store by admin.\n    * @param _owner address of store owner.\n    * @param _name a unique name of store.\n    */\n  function createStore(address _owner, string memory _name) public onlyAdmin stopInEmergency {\n      require(!isStore[_owner], \"duplicate store.\");\n      isStore[_owner] = true;\n      stores[_owner] = Store(_name, 0, new string[](0));\n      storeKeys.push(_owner);\n      emit LogNewStore(_owner, _name);\n  }\n  \n  /** @dev Create a storefront by store owner .\n    * @param _name a unique name of storefront.\n    * @param _isOpen is the storefront available or not.\n    */\n  function createFront(string memory _name, bool _isOpen) public onlyStoreOwner stopInEmergency {\n      require(!stores[msg.sender].isFront[_name], \"front name is already created.\");\n      Store storage store = stores[msg.sender];\n      store.isFront[_name] = true;\n      store.fronts[_name] = Front(_name, _isOpen, new string[](0));\n      store.frontKeys.push(_name);\n      emit LogNewFront(msg.sender, _name);\n  }\n\n  /** @dev Toggle storefront isOpen for shoppers.\n    * @param _name a unique name of storefront.\n    */\n  function toggleFrontActive(string memory _name) public onlyStoreOwner stopInEmergency {\n    require(stores[msg.sender].isFront[_name], \"front name doesn't exist.\");\n    Store storage s = stores[msg.sender];\n    Front storage f = s.fronts[_name];\n    f.isOpen = !f.isOpen;\n  }\n  \n  /** @dev Create a product of storefront by store owner .\n    * @param _front the name of storefront.\n    * @param _product a unique name of product.\n    * @param _price price of product.\n    * @param _quantity quantity of product.\n    * @param _isOpen is the product available or not.\n    */\n  function createProduct(string memory _front, string memory _product, uint _price, uint _quantity, bool _isOpen) public onlyStoreOwner stopInEmergency {\n      Store storage s = stores[msg.sender];\n      require(s.isFront[_front], \"front doesn't exist.\");\n      Front storage f = s.fronts[_front];\n      require(!f.isProduct[_product], \"product name is already created.\");\n      f.isProduct[_product] = true;\n      f.products[_product] = Product(_product, _price, _quantity, 0, _isOpen);\n      f.productKeys.push(_product);\n      emit LogNewProduct(msg.sender, _front, _product);\n  }\n\n  /** @dev Toggle the product of storefront isOpen for shoppers.\n    * @param _front a unique name of storefront.\n    * @param _product a unique name of product.\n    */\n  function toggleFrontActive(string memory _front, string memory _product) public onlyStoreOwner stopInEmergency {\n    require(stores[msg.sender].isFront[_front], \"front name doesn't exist.\");\n    Store storage s = stores[msg.sender];\n    Front storage f = s.fronts[_front];\n    require(f.isProduct[_product], \"product name doesn't exist.\");\n    Product storage p = f.products[_product];\n    p.isOpen = !p.isOpen;\n  }\n  \n  /** @dev Store owner can withdraw his balance.\n    * @param _amount amount of balance to be withdraw.\n    */\n  function withdraw(uint _amount) public onlyStoreOwner stopInEmergency {\n      require(_amount <= stores[msg.sender].balance, \"insufficient balance.\");\n      stores[msg.sender].balance.sub(_amount);\n      msg.sender.transfer(_amount);\n      emit LogWithdraw(msg.sender, stores[msg.sender].balance);\n  }\n\n  /** @dev Force store owners to withdraw their balance.\n    * @param _owner address of store owner.\n    */\n  function forcedWithdraw(address payable _owner) public onlyAdmin onlyInEmergency {\n    require(stores[_owner].balance > 0, \"the balance is zero.\");\n    uint amount = stores[_owner].balance;\n    stores[_owner].balance = 0;\n    _owner.transfer(amount);\n  }\n  \n  /** @dev Shopper can purches a product.\n    * @param _owner the address of store owner.\n    * @param _front the unique name of storefront.\n    * @param _product the unique name of product.\n    * @param _amount purches amount of product.\n    */\n  function buyProduct(address _owner, string memory _front, string memory _product, uint _amount) public payable stopInEmergency {\n      require(isStore[_owner], \"the store doesn't exist.\");\n      Store storage s = stores[_owner];\n      require(s.isFront[_front], \"the front doesn't exist.\");\n      Front storage f = s.fronts[_front];\n      require(f.isOpen, \"the front is not open.\");\n      require(f.isProduct[_product], \"the product doesn't exist.\");\n      Product storage p = f.products[_product];\n      require(p.isOpen, \"the product is not open.\");\n      require(_amount <= p.quantity, \"out of amount.\");\n      require(msg.value >= _amount * p.price, \"not enough value.\");\n      uint refund = msg.value.sub(_amount.mul(p.price));\n      if (refund > 0) {\n          msg.sender.transfer(refund);\n      }\n      p.quantity = p.quantity.sub(_amount);\n      p.sales = p.sales.add(_amount);\n      p.shoppers[msg.sender] = p.shoppers[msg.sender].add(_amount);\n      s.balance = s.balance.add(msg.value.sub(refund));\n      emit LogBuyProduct(msg.sender, _owner, _front, _product, _amount);\n  }\n  \n  /** @dev Get store count.\n    * @return The store count.\n    */\n  function getStoreCount() public view returns(uint) {\n    return storeKeys.length;\n  }\n\n  /** @dev Get a store information by index.\n    * @param _index a index of store.\n    * @return owner The address of store owner.\n    * @return name The name of store.\n    * @return balance The balance of store.\n    */\n  function getStoreAtIndex(uint _index) public view returns(address owner, string memory name, uint balance) {\n    require(_index < storeKeys.length, \"out of index.\");\n    owner = storeKeys[_index];\n    name = stores[storeKeys[_index]].name;\n    balance = stores[storeKeys[_index]].balance;\n  }\n\n  /** @dev Get a store information by address.\n    * @param _owner an address of store owner.\n    * @return name The name of store.\n    * @return balance The balance of store.\n    */\n  function getStoreDetail(address _owner) public view returns(string memory name, uint balance) {\n    require(isStore[_owner], \"the owner's store doesn't exist\");\n    name = stores[_owner].name;\n    balance = stores[_owner].balance;\n  }\n  \n  /** @dev Get storefront count.\n    * @param _owner the address of store owner.\n    * @return The storefront count.\n    */\n  function getFrontsCount(address _owner) public view returns(uint) {\n      require(isStore[_owner], \"the owner's store doesn't exist\");\n      return stores[_owner].frontKeys.length;\n  }\n  \n  /** @dev Get a storefront information by index.\n    * @param _owner the address of store owner.\n    * @param _index a index of storefront.\n    * @return name The name of storefront.\n    * @return isOpen The status of storefront.\n    */\n  function getFrontAtIndex(address _owner, uint _index) public view returns(string memory name, bool isOpen) {\n      require(isStore[_owner], \"the owner's store doesn't exist\");\n      Store storage s = stores[_owner];\n      require(_index < s.frontKeys.length, \"out of index.\");\n      Front memory f = s.fronts[s.frontKeys[_index]];\n      name = f.name;\n      isOpen = f.isOpen;\n  }\n  \n  /** @dev Get product count of a storefront.\n    * @param _owner the address of store owner.\n    * @param _front the unique name of storefront.\n    * @return The product count of the storefront.\n    */\n  function getProductsCount(address _owner, string memory _front) public view returns(uint) {\n      require(isStore[_owner], \"the owner's store doesn't exist\");\n      Store storage s = stores[_owner];\n      require(s.isFront[_front], \"the owner's front doesn't exist\");\n      Front memory f = s.fronts[_front];\n      return f.productKeys.length;\n  }\n  \n  /** @dev Get a product information by index.\n    * @param _owner the address of store owner.\n    * @param _front the unique name of storefront.\n    * @param _index a index of product of storefront.\n    * @return name The name of product.\n    * @return price The price of product.\n    * @return quantity The quantity of product.\n    * @return sales The sales of product.\n    * @return isOpen The status of product.\n    */\n  function getProductAtIndex(address _owner, string memory _front, uint _index) public view returns(string memory name, uint price, uint quantity, uint sales, bool isOpen) {\n      require(isStore[_owner], \"the owner's store doesn't exist\");\n      Store storage s = stores[_owner];\n      require(s.isFront[_front], \"the owner's front doesn't exist\");\n      Front storage f = s.fronts[_front];\n      Product memory p = f.products[f.productKeys[_index]];\n      name = p.name;\n      price = p.price;\n      quantity = p.quantity;\n      sales = p.sales;\n      isOpen = p.isOpen;\n  }\n\n  function getShopperProducts(address _owner, string memory _front, string memory _product, address _shopper) public view returns(uint amount) {\n    require(isStore[_owner], \"the owner's store doesn't exist\");\n    Store storage s = stores[_owner];\n    require(s.isFront[_front], \"the owner's front doesn't exist\");\n    Front storage f = s.fronts[_front];\n    Product storage p = f.products[_product];\n    amount = p.shoppers[_shopper];\n  }\n  \n  /** @dev Fallback function which reverts all tx.\n    */\n  function () external payable {\n      revert();\n  }\n}",
  "sourcePath": "/Users/iisaint/Workspace/ConsensysAcademy/online-marketplace/contracts/MarketPlace.sol",
  "compiler": {
    "name": "solc",
    "version": "0.5.8+commit.23d335f2.Emscripten.clang"
  },
  "schemaVersion": "3.0.10",
  "updatedAt": "2019-08-01T03:22:04.754Z",
  "devdoc": {
    "methods": {
      "buyProduct(address,string,string,uint256)": {
        "details": "Shopper can purches a product.",
        "params": {
          "_amount": "purches amount of product.",
          "_front": "the unique name of storefront.",
          "_owner": "the address of store owner.",
          "_product": "the unique name of product."
        }
      },
      "createFront(string,bool)": {
        "details": "Create a storefront by store owner .",
        "params": {
          "_isOpen": "is the storefront available or not.",
          "_name": "a unique name of storefront."
        }
      },
      "createProduct(string,string,uint256,uint256,bool)": {
        "details": "Create a product of storefront by store owner .",
        "params": {
          "_front": "the name of storefront.",
          "_isOpen": "is the product available or not.",
          "_price": "price of product.",
          "_product": "a unique name of product.",
          "_quantity": "quantity of product."
        }
      },
      "createStore(address,string)": {
        "details": "Create a store by admin.",
        "params": {
          "_name": "a unique name of store.",
          "_owner": "address of store owner."
        }
      },
      "forcedWithdraw(address)": {
        "details": "Force store owners to withdraw their balance.",
        "params": {
          "_owner": "address of store owner."
        }
      },
      "getFrontAtIndex(address,uint256)": {
        "details": "Get a storefront information by index.",
        "params": {
          "_index": "a index of storefront.",
          "_owner": "the address of store owner."
        },
        "return": "name The name of storefront.isOpen The status of storefront."
      },
      "getFrontsCount(address)": {
        "details": "Get storefront count.",
        "params": {
          "_owner": "the address of store owner."
        },
        "return": "The storefront count."
      },
      "getProductAtIndex(address,string,uint256)": {
        "details": "Get a product information by index.",
        "params": {
          "_front": "the unique name of storefront.",
          "_index": "a index of product of storefront.",
          "_owner": "the address of store owner."
        },
        "return": "name The name of product.price The price of product.quantity The quantity of product.sales The sales of product.isOpen The status of product."
      },
      "getProductsCount(address,string)": {
        "details": "Get product count of a storefront.",
        "params": {
          "_front": "the unique name of storefront.",
          "_owner": "the address of store owner."
        },
        "return": "The product count of the storefront."
      },
      "getStoreAtIndex(uint256)": {
        "details": "Get a store information by index.",
        "params": {
          "_index": "a index of store."
        },
        "return": "owner The address of store owner.name The name of store.balance The balance of store."
      },
      "getStoreCount()": {
        "details": "Get store count.",
        "return": "The store count."
      },
      "getStoreDetail(address)": {
        "details": "Get a store information by address.",
        "params": {
          "_owner": "an address of store owner."
        },
        "return": "name The name of store.balance The balance of store."
      },
      "toggleFrontActive(string)": {
        "details": "Toggle storefront isOpen for shoppers.",
        "params": {
          "_name": "a unique name of storefront."
        }
      },
      "toggleFrontActive(string,string)": {
        "details": "Toggle the product of storefront isOpen for shoppers.",
        "params": {
          "_front": "a unique name of storefront.",
          "_product": "a unique name of product."
        }
      },
      "withdraw(uint256)": {
        "details": "Store owner can withdraw his balance.",
        "params": {
          "_amount": "amount of balance to be withdraw."
        }
      }
    },
    "title": "Online Marketplace. "
  },
  "userdoc": {
    "methods": {}
  }
}