{
  "contractName": "MarketPlace",
  "abi": [
    {
      "constant": false,
      "inputs": [],
      "name": "toggleContractActive",
      "outputs": [],
      "payable": false,
      "stateMutability": "nonpayable",
      "type": "function"
    },
    {
      "constant": true,
      "inputs": [
        {
          "name": "",
          "type": "address"
        }
      ],
      "name": "isStore",
      "outputs": [
        {
          "name": "",
          "type": "bool"
        }
      ],
      "payable": false,
      "stateMutability": "view",
      "type": "function"
    },
    {
      "constant": true,
      "inputs": [
        {
          "name": "",
          "type": "address"
        }
      ],
      "name": "stores",
      "outputs": [
        {
          "name": "name",
          "type": "string"
        },
        {
          "name": "balance",
          "type": "uint256"
        }
      ],
      "payable": false,
      "stateMutability": "view",
      "type": "function"
    },
    {
      "constant": true,
      "inputs": [
        {
          "name": "",
          "type": "uint256"
        }
      ],
      "name": "storeKeys",
      "outputs": [
        {
          "name": "",
          "type": "address"
        }
      ],
      "payable": false,
      "stateMutability": "view",
      "type": "function"
    },
    {
      "constant": true,
      "inputs": [],
      "name": "admin",
      "outputs": [
        {
          "name": "",
          "type": "address"
        }
      ],
      "payable": false,
      "stateMutability": "view",
      "type": "function"
    },
    {
      "inputs": [],
      "payable": false,
      "stateMutability": "nonpayable",
      "type": "constructor"
    },
    {
      "payable": true,
      "stateMutability": "payable",
      "type": "fallback"
    },
    {
      "anonymous": false,
      "inputs": [
        {
          "indexed": true,
          "name": "owner",
          "type": "address"
        },
        {
          "indexed": false,
          "name": "name",
          "type": "string"
        }
      ],
      "name": "LogNewStore",
      "type": "event"
    },
    {
      "anonymous": false,
      "inputs": [
        {
          "indexed": true,
          "name": "owner",
          "type": "address"
        },
        {
          "indexed": false,
          "name": "front",
          "type": "string"
        }
      ],
      "name": "LogNewFront",
      "type": "event"
    },
    {
      "anonymous": false,
      "inputs": [
        {
          "indexed": true,
          "name": "owner",
          "type": "address"
        },
        {
          "indexed": false,
          "name": "front",
          "type": "string"
        },
        {
          "indexed": false,
          "name": "product",
          "type": "string"
        }
      ],
      "name": "LogNewProduct",
      "type": "event"
    },
    {
      "anonymous": false,
      "inputs": [
        {
          "indexed": true,
          "name": "shopper",
          "type": "address"
        },
        {
          "indexed": false,
          "name": "owner",
          "type": "address"
        },
        {
          "indexed": false,
          "name": "front",
          "type": "string"
        },
        {
          "indexed": false,
          "name": "product",
          "type": "string"
        },
        {
          "indexed": false,
          "name": "amount",
          "type": "uint256"
        }
      ],
      "name": "LogBuyProduct",
      "type": "event"
    },
    {
      "anonymous": false,
      "inputs": [
        {
          "indexed": true,
          "name": "owner",
          "type": "address"
        },
        {
          "indexed": false,
          "name": "newBalance",
          "type": "uint256"
        }
      ],
      "name": "LogWithdraw",
      "type": "event"
    },
    {
      "constant": false,
      "inputs": [
        {
          "name": "_owner",
          "type": "address"
        },
        {
          "name": "_name",
          "type": "string"
        }
      ],
      "name": "createStore",
      "outputs": [],
      "payable": false,
      "stateMutability": "nonpayable",
      "type": "function"
    },
    {
      "constant": false,
      "inputs": [
        {
          "name": "_name",
          "type": "string"
        },
        {
          "name": "_isOpen",
          "type": "bool"
        }
      ],
      "name": "createFront",
      "outputs": [],
      "payable": false,
      "stateMutability": "nonpayable",
      "type": "function"
    },
    {
      "constant": false,
      "inputs": [
        {
          "name": "_front",
          "type": "string"
        },
        {
          "name": "_product",
          "type": "string"
        },
        {
          "name": "_price",
          "type": "uint256"
        },
        {
          "name": "_quantity",
          "type": "uint256"
        },
        {
          "name": "_isOpen",
          "type": "bool"
        }
      ],
      "name": "createProduct",
      "outputs": [],
      "payable": false,
      "stateMutability": "nonpayable",
      "type": "function"
    },
    {
      "constant": false,
      "inputs": [
        {
          "name": "_name",
          "type": "string"
        }
      ],
      "name": "toggleFrontActive",
      "outputs": [],
      "payable": false,
      "stateMutability": "nonpayable",
      "type": "function"
    },
    {
      "constant": false,
      "inputs": [
        {
          "name": "_front",
          "type": "string"
        },
        {
          "name": "_product",
          "type": "string"
        }
      ],
      "name": "toggleFrontActive",
      "outputs": [],
      "payable": false,
      "stateMutability": "nonpayable",
      "type": "function"
    },
    {
      "constant": false,
      "inputs": [
        {
          "name": "_amount",
          "type": "uint256"
        }
      ],
      "name": "withdraw",
      "outputs": [],
      "payable": false,
      "stateMutability": "nonpayable",
      "type": "function"
    },
    {
      "constant": false,
      "inputs": [
        {
          "name": "_owner",
          "type": "address"
        }
      ],
      "name": "forcedWithdraw",
      "outputs": [],
      "payable": false,
      "stateMutability": "nonpayable",
      "type": "function"
    },
    {
      "constant": false,
      "inputs": [
        {
          "name": "_owner",
          "type": "address"
        },
        {
          "name": "_front",
          "type": "string"
        },
        {
          "name": "_product",
          "type": "string"
        },
        {
          "name": "_amount",
          "type": "uint256"
        }
      ],
      "name": "buyProduct",
      "outputs": [],
      "payable": true,
      "stateMutability": "payable",
      "type": "function"
    },
    {
      "constant": true,
      "inputs": [],
      "name": "getStoreCount",
      "outputs": [
        {
          "name": "",
          "type": "uint256"
        }
      ],
      "payable": false,
      "stateMutability": "view",
      "type": "function"
    },
    {
      "constant": true,
      "inputs": [
        {
          "name": "_index",
          "type": "uint256"
        }
      ],
      "name": "getStoreAtIndex",
      "outputs": [
        {
          "name": "owner",
          "type": "address"
        },
        {
          "name": "name",
          "type": "string"
        },
        {
          "name": "balance",
          "type": "uint256"
        }
      ],
      "payable": false,
      "stateMutability": "view",
      "type": "function"
    },
    {
      "constant": true,
      "inputs": [
        {
          "name": "_owner",
          "type": "address"
        }
      ],
      "name": "getStoreDetail",
      "outputs": [
        {
          "name": "name",
          "type": "string"
        },
        {
          "name": "balance",
          "type": "uint256"
        }
      ],
      "payable": false,
      "stateMutability": "view",
      "type": "function"
    },
    {
      "constant": true,
      "inputs": [
        {
          "name": "_owner",
          "type": "address"
        }
      ],
      "name": "getFrontsCount",
      "outputs": [
        {
          "name": "",
          "type": "uint256"
        }
      ],
      "payable": false,
      "stateMutability": "view",
      "type": "function"
    },
    {
      "constant": true,
      "inputs": [
        {
          "name": "_owner",
          "type": "address"
        },
        {
          "name": "_index",
          "type": "uint256"
        }
      ],
      "name": "getFrontAtIndex",
      "outputs": [
        {
          "name": "name",
          "type": "string"
        },
        {
          "name": "isOpen",
          "type": "bool"
        }
      ],
      "payable": false,
      "stateMutability": "view",
      "type": "function"
    },
    {
      "constant": true,
      "inputs": [
        {
          "name": "_owner",
          "type": "address"
        },
        {
          "name": "_front",
          "type": "string"
        }
      ],
      "name": "getProductsCount",
      "outputs": [
        {
          "name": "",
          "type": "uint256"
        }
      ],
      "payable": false,
      "stateMutability": "view",
      "type": "function"
    },
    {
      "constant": true,
      "inputs": [
        {
          "name": "_owner",
          "type": "address"
        },
        {
          "name": "_front",
          "type": "string"
        },
        {
          "name": "_index",
          "type": "uint256"
        }
      ],
      "name": "getProductAtIndex",
      "outputs": [
        {
          "name": "name",
          "type": "string"
        },
        {
          "name": "price",
          "type": "uint256"
        },
        {
          "name": "quantity",
          "type": "uint256"
        },
        {
          "name": "sales",
          "type": "uint256"
        },
        {
          "name": "isOpen",
          "type": "bool"
        }
      ],
      "payable": false,
      "stateMutability": "view",
      "type": "function"
    }
  ],
  "bytecode": "0x608060405260008060006101000a81548160ff02191690831515021790555034801561002a57600080fd5b5033600060016101000a81548173ffffffffffffffffffffffffffffffffffffffff021916908373ffffffffffffffffffffffffffffffffffffffff160217905550614f6e8061007b6000396000f3fe60806040526004361061011f5760003560e01c8063621df534116100a057806398e8bd971161006457806398e8bd9714610e1c578063c41d2a2414610e47578063f68fcccb14610eac578063f6a99e4c14610f27578063f851a4401461100f5761011f565b8063621df534146108ae57806373c0c7221461097f57806381d502a914610b0a57806388323f9814610bde57806389d64e9e14610cbd5761011f565b80632e1a7d4d116100e75780632e1a7d4d146105ec57806333f28e64146106275780633c9c02de146106905780634537f7d11461078c5780635b363783146107dd5761011f565b806304458419146101245780631385d24c1461021257806317c30b3c146102295780631a7e914f146103a55780632184fa3814610524575b600080fd5b34801561013057600080fd5b5061015d6004803603602081101561014757600080fd5b8101908080359060200190929190505050611066565b604051808473ffffffffffffffffffffffffffffffffffffffff1673ffffffffffffffffffffffffffffffffffffffff16815260200180602001838152602001828103825284818151815260200191508051906020019080838360005b838110156101d55780820151818401526020810190506101ba565b50505050905090810190601f1680156102025780820380516001836020036101000a031916815260200191505b5094505050505060405180910390f35b34801561021e57600080fd5b506102276112b7565b005b6103a36004803603608081101561023f57600080fd5b81019080803573ffffffffffffffffffffffffffffffffffffffff1690602001909291908035906020019064010000000081111561027c57600080fd5b82018360208201111561028e57600080fd5b803590602001918460018302840111640100000000831117156102b057600080fd5b91908080601f016020809104026020016040519081016040528093929190818152602001838380828437600081840152601f19601f8201169050808301925050505050505091929192908035906020019064010000000081111561031357600080fd5b82018360208201111561032557600080fd5b8035906020019184600183028401116401000000008311171561034757600080fd5b91908080601f016020809104026020016040519081016040528093929190818152602001838380828437600081840152601f19601f820116905080830192505050505050509192919290803590602001909291905050506113a4565b005b3480156103b157600080fd5b50610522600480360360a08110156103c857600080fd5b81019080803590602001906401000000008111156103e557600080fd5b8201836020820111156103f757600080fd5b8035906020019184600183028401116401000000008311171561041957600080fd5b91908080601f016020809104026020016040519081016040528093929190818152602001838380828437600081840152601f19601f8201169050808301925050505050505091929192908035906020019064010000000081111561047c57600080fd5b82018360208201111561048e57600080fd5b803590602001918460018302840111640100000000831117156104b057600080fd5b91908080601f016020809104026020016040519081016040528093929190818152602001838380828437600081840152601f19601f8201169050808301925050505050505091929192908035906020019092919080359060200190929190803515159060200190929190505050611c2c565b005b34801561053057600080fd5b506105ea6004803603602081101561054757600080fd5b810190808035906020019064010000000081111561056457600080fd5b82018360208201111561057657600080fd5b8035906020019184600183028401116401000000008311171561059857600080fd5b91908080601f016020809104026020016040519081016040528093929190818152602001838380828437600081840152601f19601f8201169050808301925050505050505091929192905050506122d7565b005b3480156105f857600080fd5b506106256004803603602081101561060f57600080fd5b8101908080359060200190929190505050612626565b005b34801561063357600080fd5b506106766004803603602081101561064a57600080fd5b81019080803573ffffffffffffffffffffffffffffffffffffffff16906020019092919050505061294f565b604051808215151515815260200191505060405180910390f35b34801561069c57600080fd5b50610776600480360360408110156106b357600080fd5b81019080803573ffffffffffffffffffffffffffffffffffffffff169060200190929190803590602001906401000000008111156106f057600080fd5b82018360208201111561070257600080fd5b8035906020019184600183028401116401000000008311171561072457600080fd5b91908080601f016020809104026020016040519081016040528093929190818152602001838380828437600081840152601f19601f82011690508083019250505050505050919291929050505061296f565b6040518082815260200191505060405180910390f35b34801561079857600080fd5b506107db600480360360208110156107af57600080fd5b81019080803573ffffffffffffffffffffffffffffffffffffffff169060200190929190505050612d94565b005b3480156107e957600080fd5b5061082c6004803603602081101561080057600080fd5b81019080803573ffffffffffffffffffffffffffffffffffffffff16906020019092919050505061306a565b6040518080602001838152602001828103825284818151815260200191508051906020019080838360005b83811015610872578082015181840152602081019050610857565b50505050905090810190601f16801561089f5780820380516001836020036101000a031916815260200191505b50935050505060405180910390f35b3480156108ba57600080fd5b506108fd600480360360208110156108d157600080fd5b81019080803573ffffffffffffffffffffffffffffffffffffffff169060200190929190505050613254565b6040518080602001838152602001828103825284818151815260200191508051906020019080838360005b83811015610943578082015181840152602081019050610928565b50505050905090810190601f1680156109705780820380516001836020036101000a031916815260200191505b50935050505060405180910390f35b34801561098b57600080fd5b50610a6f600480360360608110156109a257600080fd5b81019080803573ffffffffffffffffffffffffffffffffffffffff169060200190929190803590602001906401000000008111156109df57600080fd5b8201836020820111156109f157600080fd5b80359060200191846001830284011164010000000083111715610a1357600080fd5b91908080601f016020809104026020016040519081016040528093929190818152602001838380828437600081840152601f19601f82011690508083019250505050505050919291929080359060200190929190505050613310565b604051808060200186815260200185815260200184815260200183151515158152602001828103825287818151815260200191508051906020019080838360005b83811015610acb578082015181840152602081019050610ab0565b50505050905090810190601f168015610af85780820380516001836020036101000a031916815260200191505b50965050505050505060405180910390f35b348015610b1657600080fd5b50610bdc60048036036040811015610b2d57600080fd5b8101908080359060200190640100000000811115610b4a57600080fd5b820183602082011115610b5c57600080fd5b80359060200191846001830284011164010000000083111715610b7e57600080fd5b91908080601f016020809104026020016040519081016040528093929190818152602001838380828437600081840152601f19601f820116905080830192505050505050509192919290803515159060200190929190505050613720565b005b348015610bea57600080fd5b50610c3760048036036040811015610c0157600080fd5b81019080803573ffffffffffffffffffffffffffffffffffffffff16906020019092919080359060200190929190505050613c65565b604051808060200183151515158152602001828103825284818151815260200191508051906020019080838360005b83811015610c81578082015181840152602081019050610c66565b50505050905090810190601f168015610cae5780820380516001836020036101000a031916815260200191505b50935050505060405180910390f35b348015610cc957600080fd5b50610e1a60048036036040811015610ce057600080fd5b8101908080359060200190640100000000811115610cfd57600080fd5b820183602082011115610d0f57600080fd5b80359060200191846001830284011164010000000083111715610d3157600080fd5b91908080601f016020809104026020016040519081016040528093929190818152602001838380828437600081840152601f19601f82011690508083019250505050505050919291929080359060200190640100000000811115610d9457600080fd5b820183602082011115610da657600080fd5b80359060200191846001830284011164010000000083111715610dc857600080fd5b91908080601f016020809104026020016040519081016040528093929190818152602001838380828437600081840152601f19601f820116905080830192505050505050509192919290505050614044565b005b348015610e2857600080fd5b50610e316144ef565b6040518082815260200191505060405180910390f35b348015610e5357600080fd5b50610e9660048036036020811015610e6a57600080fd5b81019080803573ffffffffffffffffffffffffffffffffffffffff1690602001909291905050506144fc565b6040518082815260200191505060405180910390f35b348015610eb857600080fd5b50610ee560048036036020811015610ecf57600080fd5b810190808035906020019092919050505061460a565b604051808273ffffffffffffffffffffffffffffffffffffffff1673ffffffffffffffffffffffffffffffffffffffff16815260200191505060405180910390f35b348015610f3357600080fd5b5061100d60048036036040811015610f4a57600080fd5b81019080803573ffffffffffffffffffffffffffffffffffffffff16906020019092919080359060200190640100000000811115610f8757600080fd5b820183602082011115610f9957600080fd5b80359060200191846001830284011164010000000083111715610fbb57600080fd5b91908080601f016020809104026020016040519081016040528093929190818152602001838380828437600081840152601f19601f820116905080830192505050505050509192919290505050614646565b005b34801561101b57600080fd5b50611024614a96565b604051808273ffffffffffffffffffffffffffffffffffffffff1673ffffffffffffffffffffffffffffffffffffffff16815260200191505060405180910390f35b60006060600060038054905084106110e6576040517f08c379a000000000000000000000000000000000000000000000000000000000815260040180806020018281038252600d8152602001807f6f7574206f6620696e6465782e0000000000000000000000000000000000000081525060200191505060405180910390fd5b600384815481106110f357fe5b9060005260206000200160009054906101000a900473ffffffffffffffffffffffffffffffffffffffff169250600260006003868154811061113157fe5b9060005260206000200160009054906101000a900473ffffffffffffffffffffffffffffffffffffffff1673ffffffffffffffffffffffffffffffffffffffff1673ffffffffffffffffffffffffffffffffffffffff1681526020019081526020016000206000018054600181600116156101000203166002900480601f01602080910402602001604051908101604052809291908181526020018280546001816001161561010002031660029004801561122d5780601f106112025761010080835404028352916020019161122d565b820191906000526020600020905b81548152906001019060200180831161121057829003601f168201915b50505050509150600260006003868154811061124557fe5b9060005260206000200160009054906101000a900473ffffffffffffffffffffffffffffffffffffffff1673ffffffffffffffffffffffffffffffffffffffff1673ffffffffffffffffffffffffffffffffffffffff1681526020019081526020016000206001015490509193909250565b600060019054906101000a900473ffffffffffffffffffffffffffffffffffffffff1673ffffffffffffffffffffffffffffffffffffffff163373ffffffffffffffffffffffffffffffffffffffff161461137a576040517f08c379a00000000000000000000000000000000000000000000000000000000081526004018080602001828103825260148152602001807f63616c6c6572206973206e6f742061646d696e2e00000000000000000000000081525060200191505060405180910390fd5b6000809054906101000a900460ff16156000806101000a81548160ff021916908315150217905550565b6000809054906101000a900460ff1615611426576040517f08c379a00000000000000000000000000000000000000000000000000000000081526004018080602001828103825260118152602001807f73746f7020696e20656d657267656e637900000000000000000000000000000081525060200191505060405180910390fd5b600160008573ffffffffffffffffffffffffffffffffffffffff1673ffffffffffffffffffffffffffffffffffffffff16815260200190815260200160002060009054906101000a900460ff166114e5576040517f08c379a00000000000000000000000000000000000000000000000000000000081526004018080602001828103825260188152602001807f7468652073746f726520646f65736e27742065786973742e000000000000000081525060200191505060405180910390fd5b6000600260008673ffffffffffffffffffffffffffffffffffffffff1673ffffffffffffffffffffffffffffffffffffffff168152602001908152602001600020905080600301846040518082805190602001908083835b60208310611560578051825260208201915060208101905060208303925061153d565b6001836020036101000a038019825116818451168082178552505050505050905001915050908152602001604051809103902060009054906101000a900460ff16611613576040517f08c379a00000000000000000000000000000000000000000000000000000000081526004018080602001828103825260188152602001807f7468652066726f6e7420646f65736e27742065786973742e000000000000000081525060200191505060405180910390fd5b600081600401856040518082805190602001908083835b6020831061164d578051825260208201915060208101905060208303925061162a565b6001836020036101000a038019825116818451168082178552505050505050905001915050908152602001604051809103902090508060010160009054906101000a900460ff16611706576040517f08c379a00000000000000000000000000000000000000000000000000000000081526004018080602001828103825260168152602001807f7468652066726f6e74206973206e6f74206f70656e2e0000000000000000000081525060200191505060405180910390fd5b80600301846040518082805190602001908083835b6020831061173e578051825260208201915060208101905060208303925061171b565b6001836020036101000a038019825116818451168082178552505050505050905001915050908152602001604051809103902060009054906101000a900460ff166117f1576040517f08c379a000000000000000000000000000000000000000000000000000000000815260040180806020018281038252601a8152602001807f7468652070726f6475637420646f65736e27742065786973742e00000000000081525060200191505060405180910390fd5b600081600401856040518082805190602001908083835b6020831061182b5780518252602082019150602081019050602083039250611808565b6001836020036101000a038019825116818451168082178552505050505050905001915050908152602001604051809103902090508060040160009054906101000a900460ff166118e4576040517f08c379a00000000000000000000000000000000000000000000000000000000081526004018080602001828103825260188152602001807f7468652070726f64756374206973206e6f74206f70656e2e000000000000000081525060200191505060405180910390fd5b806002015484111561195e576040517f08c379a000000000000000000000000000000000000000000000000000000000815260040180806020018281038252600e8152602001807f6f7574206f6620616d6f756e742e00000000000000000000000000000000000081525060200191505060405180910390fd5b806001015484023410156119da576040517f08c379a00000000000000000000000000000000000000000000000000000000081526004018080602001828103825260118152602001807f6e6f7420656e6f7567682076616c75652e00000000000000000000000000000081525060200191505060405180910390fd5b6119f1848260020154614abc90919063ffffffff16565b8160020181905550611a10848260030154614b0690919063ffffffff16565b81600301819055506000611a43611a34836001015487614b8e90919063ffffffff16565b34614abc90919063ffffffff16565b90506000811115611a96573373ffffffffffffffffffffffffffffffffffffffff166108fc829081150290604051600060405180830381858888f19350505050158015611a94573d6000803e3d6000fd5b505b611abf611aac8234614abc90919063ffffffff16565b8560010154614b0690919063ffffffff16565b84600101819055503373ffffffffffffffffffffffffffffffffffffffff167e505e05eff2cc810f0e768b70b6fb77c9093f8c5c5095b621e70904bf27e20e89898989604051808573ffffffffffffffffffffffffffffffffffffffff1673ffffffffffffffffffffffffffffffffffffffff1681526020018060200180602001848152602001838103835286818151815260200191508051906020019080838360005b83811015611b7e578082015181840152602081019050611b63565b50505050905090810190601f168015611bab5780820380516001836020036101000a031916815260200191505b50838103825285818151815260200191508051906020019080838360005b83811015611be4578082015181840152602081019050611bc9565b50505050905090810190601f168015611c115780820380516001836020036101000a031916815260200191505b50965050505050505060405180910390a25050505050505050565b600160003373ffffffffffffffffffffffffffffffffffffffff1673ffffffffffffffffffffffffffffffffffffffff16815260200190815260200160002060009054906101000a900460ff16611ceb576040517f08c379a00000000000000000000000000000000000000000000000000000000081526004018080602001828103825260198152602001807f63616c6c6572206973206e6f742073746f7265206f776e65720000000000000081525060200191505060405180910390fd5b6000809054906101000a900460ff1615611d6d576040517f08c379a00000000000000000000000000000000000000000000000000000000081526004018080602001828103825260118152602001807f73746f7020696e20656d657267656e637900000000000000000000000000000081525060200191505060405180910390fd5b6000600260003373ffffffffffffffffffffffffffffffffffffffff1673ffffffffffffffffffffffffffffffffffffffff168152602001908152602001600020905080600301866040518082805190602001908083835b60208310611de85780518252602082019150602081019050602083039250611dc5565b6001836020036101000a038019825116818451168082178552505050505050905001915050908152602001604051809103902060009054906101000a900460ff16611e9b576040517f08c379a00000000000000000000000000000000000000000000000000000000081526004018080602001828103825260148152602001807f66726f6e7420646f65736e27742065786973742e00000000000000000000000081525060200191505060405180910390fd5b600081600401876040518082805190602001908083835b60208310611ed55780518252602082019150602081019050602083039250611eb2565b6001836020036101000a0380198251168184511680821785525050505050509050019150509081526020016040518091039020905080600301866040518082805190602001908083835b60208310611f425780518252602082019150602081019050602083039250611f1f565b6001836020036101000a038019825116818451168082178552505050505050905001915050908152602001604051809103902060009054906101000a900460ff1615611ff6576040517f08c379a00000000000000000000000000000000000000000000000000000000081526004018080602001828103825260208152602001807f70726f64756374206e616d6520697320616c726561647920637265617465642e81525060200191505060405180910390fd5b600181600301876040518082805190602001908083835b60208310612030578051825260208201915060208101905060208303925061200d565b6001836020036101000a038019825116818451168082178552505050505050905001915050908152602001604051809103902060006101000a81548160ff0219169083151502179055506040518060a001604052808781526020018681526020018581526020016000815260200184151581525081600401876040518082805190602001908083835b602083106120dc57805182526020820191506020810190506020830392506120b9565b6001836020036101000a0380198251168184511680821785525050505050509050019150509081526020016040518091039020600082015181600001908051906020019061212b929190614cd4565b5060208201518160010155604082015181600201556060820151816003015560808201518160040160006101000a81548160ff021916908315150217905550905050806002018690806001815401808255809150509060018203906000526020600020016000909192909190915090805190602001906121ac929190614d54565b50503373ffffffffffffffffffffffffffffffffffffffff167f02a7b30b50af45380ddb7d78a42b77ef264b552f86391b6824b2b2a48c55dd808888604051808060200180602001838103835285818151815260200191508051906020019080838360005b8381101561222c578082015181840152602081019050612211565b50505050905090810190601f1680156122595780820380516001836020036101000a031916815260200191505b50838103825284818151815260200191508051906020019080838360005b83811015612292578082015181840152602081019050612277565b50505050905090810190601f1680156122bf5780820380516001836020036101000a031916815260200191505b5094505050505060405180910390a250505050505050565b600160003373ffffffffffffffffffffffffffffffffffffffff1673ffffffffffffffffffffffffffffffffffffffff16815260200190815260200160002060009054906101000a900460ff16612396576040517f08c379a00000000000000000000000000000000000000000000000000000000081526004018080602001828103825260198152602001807f63616c6c6572206973206e6f742073746f7265206f776e65720000000000000081525060200191505060405180910390fd5b6000809054906101000a900460ff1615612418576040517f08c379a00000000000000000000000000000000000000000000000000000000081526004018080602001828103825260118152602001807f73746f7020696e20656d657267656e637900000000000000000000000000000081525060200191505060405180910390fd5b600260003373ffffffffffffffffffffffffffffffffffffffff1673ffffffffffffffffffffffffffffffffffffffff168152602001908152602001600020600301816040518082805190602001908083835b6020831061248e578051825260208201915060208101905060208303925061246b565b6001836020036101000a038019825116818451168082178552505050505050905001915050908152602001604051809103902060009054906101000a900460ff16612541576040517f08c379a00000000000000000000000000000000000000000000000000000000081526004018080602001828103825260198152602001807f66726f6e74206e616d6520646f65736e27742065786973742e0000000000000081525060200191505060405180910390fd5b6000600260003373ffffffffffffffffffffffffffffffffffffffff1673ffffffffffffffffffffffffffffffffffffffff1681526020019081526020016000209050600081600401836040518082805190602001908083835b602083106125be578051825260208201915060208101905060208303925061259b565b6001836020036101000a038019825116818451168082178552505050505050905001915050908152602001604051809103902090508060010160009054906101000a900460ff16158160010160006101000a81548160ff021916908315150217905550505050565b600160003373ffffffffffffffffffffffffffffffffffffffff1673ffffffffffffffffffffffffffffffffffffffff16815260200190815260200160002060009054906101000a900460ff166126e5576040517f08c379a00000000000000000000000000000000000000000000000000000000081526004018080602001828103825260198152602001807f63616c6c6572206973206e6f742073746f7265206f776e65720000000000000081525060200191505060405180910390fd5b6000809054906101000a900460ff1615612767576040517f08c379a00000000000000000000000000000000000000000000000000000000081526004018080602001828103825260118152602001807f73746f7020696e20656d657267656e637900000000000000000000000000000081525060200191505060405180910390fd5b600260003373ffffffffffffffffffffffffffffffffffffffff1673ffffffffffffffffffffffffffffffffffffffff1681526020019081526020016000206001015481111561281f576040517f08c379a00000000000000000000000000000000000000000000000000000000081526004018080602001828103825260158152602001807f696e73756666696369656e742062616c616e63652e000000000000000000000081525060200191505060405180910390fd5b61287481600260003373ffffffffffffffffffffffffffffffffffffffff1673ffffffffffffffffffffffffffffffffffffffff16815260200190815260200160002060010154614abc90919063ffffffff16565b503373ffffffffffffffffffffffffffffffffffffffff166108fc829081150290604051600060405180830381858888f193505050501580156128bb573d6000803e3d6000fd5b503373ffffffffffffffffffffffffffffffffffffffff167f4ce7033d118120e254016dccf195288400b28fc8936425acd5f17ce2df3ab708600260003373ffffffffffffffffffffffffffffffffffffffff1673ffffffffffffffffffffffffffffffffffffffff168152602001908152602001600020600101546040518082815260200191505060405180910390a250565b60016020528060005260406000206000915054906101000a900460ff1681565b6000600160008473ffffffffffffffffffffffffffffffffffffffff1673ffffffffffffffffffffffffffffffffffffffff16815260200190815260200160002060009054906101000a900460ff16612a30576040517f08c379a000000000000000000000000000000000000000000000000000000000815260040180806020018281038252601f8152602001807f746865206f776e657227732073746f726520646f65736e27742065786973740081525060200191505060405180910390fd5b6000600260008573ffffffffffffffffffffffffffffffffffffffff1673ffffffffffffffffffffffffffffffffffffffff168152602001908152602001600020905080600301836040518082805190602001908083835b60208310612aab5780518252602082019150602081019050602083039250612a88565b6001836020036101000a038019825116818451168082178552505050505050905001915050908152602001604051809103902060009054906101000a900460ff16612b5e576040517f08c379a000000000000000000000000000000000000000000000000000000000815260040180806020018281038252601f8152602001807f746865206f776e657227732066726f6e7420646f65736e27742065786973740081525060200191505060405180910390fd5b612b66614dd4565b81600401846040518082805190602001908083835b60208310612b9e5780518252602082019150602081019050602083039250612b7b565b6001836020036101000a0380198251168184511680821785525050505050509050019150509081526020016040518091039020604051806060016040529081600082018054600181600116156101000203166002900480601f016020809104026020016040519081016040528092919081815260200182805460018160011615610100020316600290048015612c755780601f10612c4a57610100808354040283529160200191612c75565b820191906000526020600020905b815481529060010190602001808311612c5857829003601f168201915b505050505081526020016001820160009054906101000a900460ff1615151515815260200160028201805480602002602001604051908101604052809291908181526020016000905b82821015612d7a578382906000526020600020018054600181600116156101000203166002900480601f016020809104026020016040519081016040528092919081815260200182805460018160011615610100020316600290048015612d665780601f10612d3b57610100808354040283529160200191612d66565b820191906000526020600020905b815481529060010190602001808311612d4957829003601f168201915b505050505081526020019060010190612cbe565b505050508152505090508060400151519250505092915050565b600060019054906101000a900473ffffffffffffffffffffffffffffffffffffffff1673ffffffffffffffffffffffffffffffffffffffff163373ffffffffffffffffffffffffffffffffffffffff1614612e57576040517f08c379a00000000000000000000000000000000000000000000000000000000081526004018080602001828103825260148152602001807f63616c6c6572206973206e6f742061646d696e2e00000000000000000000000081525060200191505060405180910390fd5b6000809054906101000a900460ff16612ed8576040517f08c379a00000000000000000000000000000000000000000000000000000000081526004018080602001828103825260118152602001807f6f6e6c7920696e20656d657267656e637900000000000000000000000000000081525060200191505060405180910390fd5b6000600260008373ffffffffffffffffffffffffffffffffffffffff1673ffffffffffffffffffffffffffffffffffffffff1681526020019081526020016000206001015411612f90576040517f08c379a00000000000000000000000000000000000000000000000000000000081526004018080602001828103825260148152602001807f7468652062616c616e6365206973207a65726f2e00000000000000000000000081525060200191505060405180910390fd5b6000600260008373ffffffffffffffffffffffffffffffffffffffff1673ffffffffffffffffffffffffffffffffffffffff1681526020019081526020016000206001015490506000600260008473ffffffffffffffffffffffffffffffffffffffff1673ffffffffffffffffffffffffffffffffffffffff168152602001908152602001600020600101819055508173ffffffffffffffffffffffffffffffffffffffff166108fc829081150290604051600060405180830381858888f19350505050158015613065573d6000803e3d6000fd5b505050565b60606000600160008473ffffffffffffffffffffffffffffffffffffffff1673ffffffffffffffffffffffffffffffffffffffff16815260200190815260200160002060009054906101000a900460ff1661312d576040517f08c379a000000000000000000000000000000000000000000000000000000000815260040180806020018281038252601f8152602001807f746865206f776e657227732073746f726520646f65736e27742065786973740081525060200191505060405180910390fd5b600260008473ffffffffffffffffffffffffffffffffffffffff1673ffffffffffffffffffffffffffffffffffffffff1681526020019081526020016000206000018054600181600116156101000203166002900480601f0160208091040260200160405190810160405280929190818152602001828054600181600116156101000203166002900480156132035780601f106131d857610100808354040283529160200191613203565b820191906000526020600020905b8154815290600101906020018083116131e657829003601f168201915b50505050509150600260008473ffffffffffffffffffffffffffffffffffffffff1673ffffffffffffffffffffffffffffffffffffffff168152602001908152602001600020600101549050915091565b6002602052806000526040600020600091509050806000018054600181600116156101000203166002900480601f0160208091040260200160405190810160405280929190818152602001828054600181600116156101000203166002900480156133005780601f106132d557610100808354040283529160200191613300565b820191906000526020600020905b8154815290600101906020018083116132e357829003601f168201915b5050505050908060010154905082565b6060600080600080600160008973ffffffffffffffffffffffffffffffffffffffff1673ffffffffffffffffffffffffffffffffffffffff16815260200190815260200160002060009054906101000a900460ff166133d7576040517f08c379a000000000000000000000000000000000000000000000000000000000815260040180806020018281038252601f8152602001807f746865206f776e657227732073746f726520646f65736e27742065786973740081525060200191505060405180910390fd5b6000600260008a73ffffffffffffffffffffffffffffffffffffffff1673ffffffffffffffffffffffffffffffffffffffff168152602001908152602001600020905080600301886040518082805190602001908083835b60208310613452578051825260208201915060208101905060208303925061342f565b6001836020036101000a038019825116818451168082178552505050505050905001915050908152602001604051809103902060009054906101000a900460ff16613505576040517f08c379a000000000000000000000000000000000000000000000000000000000815260040180806020018281038252601f8152602001807f746865206f776e657227732066726f6e7420646f65736e27742065786973740081525060200191505060405180910390fd5b600081600401896040518082805190602001908083835b6020831061353f578051825260208201915060208101905060208303925061351c565b6001836020036101000a0380198251168184511680821785525050505050509050019150509081526020016040518091039020905061357c614df7565b81600401826002018a8154811061358f57fe5b9060005260206000200160405180828054600181600116156101000203166002900480156135f45780601f106135d25761010080835404028352918201916135f4565b820191906000526020600020905b8154815290600101906020018083116135e0575b505091505090815260200160405180910390206040518060a0016040529081600082018054600181600116156101000203166002900480601f0160208091040260200160405190810160405280929190818152602001828054600181600116156101000203166002900480156136ab5780601f10613680576101008083540402835291602001916136ab565b820191906000526020600020905b81548152906001019060200180831161368e57829003601f168201915b505050505081526020016001820154815260200160028201548152602001600382015481526020016004820160009054906101000a900460ff16151515158152505090508060000151975080602001519650806040015195508060600151945080608001519350505050939792965093509350565b600160003373ffffffffffffffffffffffffffffffffffffffff1673ffffffffffffffffffffffffffffffffffffffff16815260200190815260200160002060009054906101000a900460ff166137df576040517f08c379a00000000000000000000000000000000000000000000000000000000081526004018080602001828103825260198152602001807f63616c6c6572206973206e6f742073746f7265206f776e65720000000000000081525060200191505060405180910390fd5b6000809054906101000a900460ff1615613861576040517f08c379a00000000000000000000000000000000000000000000000000000000081526004018080602001828103825260118152602001807f73746f7020696e20656d657267656e637900000000000000000000000000000081525060200191505060405180910390fd5b600260003373ffffffffffffffffffffffffffffffffffffffff1673ffffffffffffffffffffffffffffffffffffffff168152602001908152602001600020600301826040518082805190602001908083835b602083106138d757805182526020820191506020810190506020830392506138b4565b6001836020036101000a038019825116818451168082178552505050505050905001915050908152602001604051809103902060009054906101000a900460ff161561398b576040517f08c379a000000000000000000000000000000000000000000000000000000000815260040180806020018281038252601e8152602001807f66726f6e74206e616d6520697320616c726561647920637265617465642e000081525060200191505060405180910390fd5b6000600260003373ffffffffffffffffffffffffffffffffffffffff1673ffffffffffffffffffffffffffffffffffffffff1681526020019081526020016000209050600181600301846040518082805190602001908083835b60208310613a0857805182526020820191506020810190506020830392506139e5565b6001836020036101000a038019825116818451168082178552505050505050905001915050908152602001604051809103902060006101000a81548160ff021916908315150217905550604051806060016040528084815260200183151581526020016000604051908082528060200260200182016040528015613aa057816020015b6060815260200190600190039081613a8b5790505b5081525081600401846040518082805190602001908083835b60208310613adc5780518252602082019150602081019050602083039250613ab9565b6001836020036101000a03801982511681845116808217855250505050505090500191505090815260200160405180910390206000820151816000019080519060200190613b2b929190614cd4565b5060208201518160010160006101000a81548160ff0219169083151502179055506040820151816002019080519060200190613b68929190614e28565b5090505080600201839080600181540180825580915050906001820390600052602060002001600090919290919091509080519060200190613bab929190614d54565b50503373ffffffffffffffffffffffffffffffffffffffff167f36da0442e101cb9e4ed09d18ef2c0bc21c2a78d07363bf0ac1f9dea87caec1bb846040518080602001828103825283818151815260200191508051906020019080838360005b83811015613c26578082015181840152602081019050613c0b565b50505050905090810190601f168015613c535780820380516001836020036101000a031916815260200191505b509250505060405180910390a2505050565b60606000600160008573ffffffffffffffffffffffffffffffffffffffff1673ffffffffffffffffffffffffffffffffffffffff16815260200190815260200160002060009054906101000a900460ff16613d28576040517f08c379a000000000000000000000000000000000000000000000000000000000815260040180806020018281038252601f8152602001807f746865206f776e657227732073746f726520646f65736e27742065786973740081525060200191505060405180910390fd5b6000600260008673ffffffffffffffffffffffffffffffffffffffff1673ffffffffffffffffffffffffffffffffffffffff168152602001908152602001600020905080600201805490508410613de7576040517f08c379a000000000000000000000000000000000000000000000000000000000815260040180806020018281038252600d8152602001807f6f7574206f6620696e6465782e0000000000000000000000000000000000000081525060200191505060405180910390fd5b613def614dd4565b81600401826002018681548110613e0257fe5b906000526020600020016040518082805460018160011615610100020316600290048015613e675780601f10613e45576101008083540402835291820191613e67565b820191906000526020600020905b815481529060010190602001808311613e53575b50509150509081526020016040518091039020604051806060016040529081600082018054600181600116156101000203166002900480601f016020809104026020016040519081016040528092919081815260200182805460018160011615610100020316600290048015613f1e5780601f10613ef357610100808354040283529160200191613f1e565b820191906000526020600020905b815481529060010190602001808311613f0157829003601f168201915b505050505081526020016001820160009054906101000a900460ff1615151515815260200160028201805480602002602001604051908101604052809291908181526020016000905b82821015614023578382906000526020600020018054600181600116156101000203166002900480601f01602080910402602001604051908101604052809291908181526020018280546001816001161561010002031660029004801561400f5780601f10613fe45761010080835404028352916020019161400f565b820191906000526020600020905b815481529060010190602001808311613ff257829003601f168201915b505050505081526020019060010190613f67565b50505050815250509050806000015193508060200151925050509250929050565b600160003373ffffffffffffffffffffffffffffffffffffffff1673ffffffffffffffffffffffffffffffffffffffff16815260200190815260200160002060009054906101000a900460ff16614103576040517f08c379a00000000000000000000000000000000000000000000000000000000081526004018080602001828103825260198152602001807f63616c6c6572206973206e6f742073746f7265206f776e65720000000000000081525060200191505060405180910390fd5b6000809054906101000a900460ff1615614185576040517f08c379a00000000000000000000000000000000000000000000000000000000081526004018080602001828103825260118152602001807f73746f7020696e20656d657267656e637900000000000000000000000000000081525060200191505060405180910390fd5b600260003373ffffffffffffffffffffffffffffffffffffffff1673ffffffffffffffffffffffffffffffffffffffff168152602001908152602001600020600301826040518082805190602001908083835b602083106141fb57805182526020820191506020810190506020830392506141d8565b6001836020036101000a038019825116818451168082178552505050505050905001915050908152602001604051809103902060009054906101000a900460ff166142ae576040517f08c379a00000000000000000000000000000000000000000000000000000000081526004018080602001828103825260198152602001807f66726f6e74206e616d6520646f65736e27742065786973742e0000000000000081525060200191505060405180910390fd5b6000600260003373ffffffffffffffffffffffffffffffffffffffff1673ffffffffffffffffffffffffffffffffffffffff1681526020019081526020016000209050600081600401846040518082805190602001908083835b6020831061432b5780518252602082019150602081019050602083039250614308565b6001836020036101000a0380198251168184511680821785525050505050509050019150509081526020016040518091039020905080600301836040518082805190602001908083835b602083106143985780518252602082019150602081019050602083039250614375565b6001836020036101000a038019825116818451168082178552505050505050905001915050908152602001604051809103902060009054906101000a900460ff1661444b576040517f08c379a000000000000000000000000000000000000000000000000000000000815260040180806020018281038252601b8152602001807f70726f64756374206e616d6520646f65736e27742065786973742e000000000081525060200191505060405180910390fd5b600081600401846040518082805190602001908083835b602083106144855780518252602082019150602081019050602083039250614462565b6001836020036101000a038019825116818451168082178552505050505050905001915050908152602001604051809103902090508060040160009054906101000a900460ff16158160040160006101000a81548160ff0219169083151502179055505050505050565b6000600380549050905090565b6000600160008373ffffffffffffffffffffffffffffffffffffffff1673ffffffffffffffffffffffffffffffffffffffff16815260200190815260200160002060009054906101000a900460ff166145bd576040517f08c379a000000000000000000000000000000000000000000000000000000000815260040180806020018281038252601f8152602001807f746865206f776e657227732073746f726520646f65736e27742065786973740081525060200191505060405180910390fd5b600260008373ffffffffffffffffffffffffffffffffffffffff1673ffffffffffffffffffffffffffffffffffffffff168152602001908152602001600020600201805490509050919050565b6003818154811061461757fe5b906000526020600020016000915054906101000a900473ffffffffffffffffffffffffffffffffffffffff1681565b600060019054906101000a900473ffffffffffffffffffffffffffffffffffffffff1673ffffffffffffffffffffffffffffffffffffffff163373ffffffffffffffffffffffffffffffffffffffff1614614709576040517f08c379a00000000000000000000000000000000000000000000000000000000081526004018080602001828103825260148152602001807f63616c6c6572206973206e6f742061646d696e2e00000000000000000000000081525060200191505060405180910390fd5b6000809054906101000a900460ff161561478b576040517f08c379a00000000000000000000000000000000000000000000000000000000081526004018080602001828103825260118152602001807f73746f7020696e20656d657267656e637900000000000000000000000000000081525060200191505060405180910390fd5b600160008373ffffffffffffffffffffffffffffffffffffffff1673ffffffffffffffffffffffffffffffffffffffff16815260200190815260200160002060009054906101000a900460ff161561484b576040517f08c379a00000000000000000000000000000000000000000000000000000000081526004018080602001828103825260108152602001807f6475706c69636174652073746f72652e0000000000000000000000000000000081525060200191505060405180910390fd5b60018060008473ffffffffffffffffffffffffffffffffffffffff1673ffffffffffffffffffffffffffffffffffffffff16815260200190815260200160002060006101000a81548160ff02191690831515021790555060405180606001604052808281526020016000815260200160006040519080825280602002602001820160405280156148ef57816020015b60608152602001906001900390816148da5790505b50815250600260008473ffffffffffffffffffffffffffffffffffffffff1673ffffffffffffffffffffffffffffffffffffffff168152602001908152602001600020600082015181600001908051906020019061494e929190614cd4565b50602082015181600101556040820151816002019080519060200190614975929190614e28565b5090505060038290806001815401808255809150509060018203906000526020600020016000909192909190916101000a81548173ffffffffffffffffffffffffffffffffffffffff021916908373ffffffffffffffffffffffffffffffffffffffff160217905550508173ffffffffffffffffffffffffffffffffffffffff167fa7a7f9a1330b838be79b751ee060f9db022a74c4288f770bb54d328e8e4c11a7826040518080602001828103825283818151815260200191508051906020019080838360005b83811015614a58578082015181840152602081019050614a3d565b50505050905090810190601f168015614a855780820380516001836020036101000a031916815260200191505b509250505060405180910390a25050565b600060019054906101000a900473ffffffffffffffffffffffffffffffffffffffff1681565b6000614afe83836040518060400160405280601e81526020017f536166654d6174683a207375627472616374696f6e206f766572666c6f770000815250614c14565b905092915050565b600080828401905083811015614b84576040517f08c379a000000000000000000000000000000000000000000000000000000000815260040180806020018281038252601b8152602001807f536166654d6174683a206164646974696f6e206f766572666c6f77000000000081525060200191505060405180910390fd5b8091505092915050565b600080831415614ba15760009050614c0e565b6000828402905082848281614bb257fe5b0414614c09576040517f08c379a0000000000000000000000000000000000000000000000000000000008152600401808060200182810382526021815260200180614f226021913960400191505060405180910390fd5b809150505b92915050565b6000838311158290614cc1576040517f08c379a00000000000000000000000000000000000000000000000000000000081526004018080602001828103825283818151815260200191508051906020019080838360005b83811015614c86578082015181840152602081019050614c6b565b50505050905090810190601f168015614cb35780820380516001836020036101000a031916815260200191505b509250505060405180910390fd5b5060008385039050809150509392505050565b828054600181600116156101000203166002900490600052602060002090601f016020900481019282601f10614d1557805160ff1916838001178555614d43565b82800160010185558215614d43579182015b82811115614d42578251825591602001919060010190614d27565b5b509050614d509190614e88565b5090565b828054600181600116156101000203166002900490600052602060002090601f016020900481019282601f10614d9557805160ff1916838001178555614dc3565b82800160010185558215614dc3579182015b82811115614dc2578251825591602001919060010190614da7565b5b509050614dd09190614e88565b5090565b604051806060016040528060608152602001600015158152602001606081525090565b6040518060a00160405280606081526020016000815260200160008152602001600081526020016000151581525090565b828054828255906000526020600020908101928215614e77579160200282015b82811115614e76578251829080519060200190614e66929190614cd4565b5091602001919060010190614e48565b5b509050614e849190614ead565b5090565b614eaa91905b80821115614ea6576000816000905550600101614e8e565b5090565b90565b614ed691905b80821115614ed25760008181614ec99190614ed9565b50600101614eb3565b5090565b90565b50805460018160011615610100020316600290046000825580601f10614eff5750614f1e565b601f016020900490600052602060002090810190614f1d9190614e88565b5b5056fe536166654d6174683a206d756c7469706c69636174696f6e206f766572666c6f77a165627a7a723058201fb1d3aedb9e87f7c2b8c525b7c910192b9d69eda087ac013b6ce77fded11dc10029",
  "source": "pragma solidity ^0.5.0;\n\nimport \"./Adminable.sol\";\nimport \"./SafeMath.sol\";\n\n/** @title Online Marketplace. */\ncontract MarketPlace is Adminable {\n  using SafeMath for uint256;\n  struct Product {\n    string name;\n    uint price;\n    uint quantity;\n    uint sales;\n    bool isOpen;\n  }\n  \n  struct Front {\n    string name;\n    bool isOpen;\n    string[] productKeys;\n    mapping(string => bool) isProduct;\n    mapping(string => Product) products;\n  }\n  \n  struct Store {\n    string name;\n    uint balance;\n    string[] frontKeys;\n    mapping(string => bool) isFront;\n    mapping(string => Front) fronts;  \n  }\n\n  mapping(address => bool) public isStore;\n  mapping(address => Store) public stores;\n  address[] public storeKeys;\n  \n  // modifier onlyAdmin() {\n  //   require(msg.sender == admin, \"caller is not admin\");\n  //   _;\n  // }\n  \n  modifier onlyStoreOwner() {\n    require(isStore[msg.sender], \"caller is not store owner\");\n    _;\n  }\n\n  modifier storeExist(address _owner) {\n    require(isStore[_owner], \"the store does not exist.\");\n    _;\n  }\n  \n  event LogNewStore(address indexed owner, string name);\n  event LogNewFront(address indexed owner, string front);\n  event LogNewProduct(address indexed owner, string front, string product);\n  event LogBuyProduct(address indexed shopper, address owner, string front, string product, uint amount);\n  event LogWithdraw(address indexed owner, uint newBalance);\n  \n  constructor() public {\n      // admin = msg.sender;\n  }\n  \n  /** @dev Create a store by admin.\n    * @param _owner address of store owner.\n    * @param _name a unique name of store.\n    */\n  function createStore(address _owner, string memory _name) public onlyAdmin stopInEmergency {\n      require(!isStore[_owner], \"duplicate store.\");\n      isStore[_owner] = true;\n      stores[_owner] = Store(_name, 0, new string[](0));\n      storeKeys.push(_owner);\n      emit LogNewStore(_owner, _name);\n  }\n  \n  /** @dev Create a storefront by store owner .\n    * @param _name a unique name of storefront.\n    * @param _isOpen is the storefront available or not.\n    */\n  function createFront(string memory _name, bool _isOpen) public onlyStoreOwner stopInEmergency {\n      require(!stores[msg.sender].isFront[_name], \"front name is already created.\");\n      Store storage store = stores[msg.sender];\n      store.isFront[_name] = true;\n      store.fronts[_name] = Front(_name, _isOpen, new string[](0));\n      store.frontKeys.push(_name);\n      emit LogNewFront(msg.sender, _name);\n  }\n\n  /** @dev Toggle storefront isOpen for shoppers.\n    * @param _name a unique name of storefront.\n    */\n  function toggleFrontActive(string memory _name) public onlyStoreOwner stopInEmergency {\n    require(stores[msg.sender].isFront[_name], \"front name doesn't exist.\");\n    Store storage s = stores[msg.sender];\n    Front storage f = s.fronts[_name];\n    f.isOpen = !f.isOpen;\n  }\n  \n  /** @dev Create a product of storefront by store owner .\n    * @param _front the name of storefront.\n    * @param _product a unique name of product.\n    * @param _price price of product.\n    * @param _quantity quantity of product.\n    * @param _isOpen is the product available or not.\n    */\n  function createProduct(string memory _front, string memory _product, uint _price, uint _quantity, bool _isOpen) public onlyStoreOwner stopInEmergency {\n      Store storage s = stores[msg.sender];\n      require(s.isFront[_front], \"front doesn't exist.\");\n      Front storage f = s.fronts[_front];\n      require(!f.isProduct[_product], \"product name is already created.\");\n      f.isProduct[_product] = true;\n      f.products[_product] = Product(_product, _price, _quantity, 0, _isOpen);\n      f.productKeys.push(_product);\n      emit LogNewProduct(msg.sender, _front, _product);\n  }\n\n  /** @dev Toggle the product of storefront isOpen for shoppers.\n    * @param _front a unique name of storefront.\n    * @param _product a unique name of product.\n    */\n  function toggleFrontActive(string memory _front, string memory _product) public onlyStoreOwner stopInEmergency {\n    require(stores[msg.sender].isFront[_front], \"front name doesn't exist.\");\n    Store storage s = stores[msg.sender];\n    Front storage f = s.fronts[_front];\n    require(f.isProduct[_product], \"product name doesn't exist.\");\n    Product storage p = f.products[_product];\n    p.isOpen = !p.isOpen;\n  }\n  \n  /** @dev Store owner can withdraw his balance.\n    * @param _amount amount of balance to be withdraw.\n    */\n  function withdraw(uint _amount) public onlyStoreOwner stopInEmergency {\n      require(_amount <= stores[msg.sender].balance, \"insufficient balance.\");\n      stores[msg.sender].balance.sub(_amount);\n      msg.sender.transfer(_amount);\n      emit LogWithdraw(msg.sender, stores[msg.sender].balance);\n  }\n\n  /** @dev Force store owners to withdraw their balance.\n    * @param _owner address of store owner.\n    */\n  function forcedWithdraw(address payable _owner) public onlyAdmin onlyInEmergency {\n    require(stores[_owner].balance > 0, \"the balance is zero.\");\n    uint amount = stores[_owner].balance;\n    stores[_owner].balance = 0;\n    _owner.transfer(amount);\n  }\n  \n  /** @dev Shopper can purches a product.\n    * @param _owner the address of store owner.\n    * @param _front the unique name of storefront.\n    * @param _product the unique name of product.\n    * @param _amount purches amount of product.\n    */\n  function buyProduct(address _owner, string memory _front, string memory _product, uint _amount) public payable stopInEmergency {\n      require(isStore[_owner], \"the store doesn't exist.\");\n      Store storage s = stores[_owner];\n      require(s.isFront[_front], \"the front doesn't exist.\");\n      Front storage f = s.fronts[_front];\n      require(f.isOpen, \"the front is not open.\");\n      require(f.isProduct[_product], \"the product doesn't exist.\");\n      Product storage p = f.products[_product];\n      require(p.isOpen, \"the product is not open.\");\n      require(_amount <= p.quantity, \"out of amount.\");\n      require(msg.value >= _amount * p.price, \"not enough value.\");\n      p.quantity = p.quantity.sub(_amount);\n      p.sales = p.sales.add(_amount);\n      uint refund = msg.value.sub(_amount.mul(p.price));\n      if (refund > 0) {\n          msg.sender.transfer(refund);\n      }\n      s.balance = s.balance.add(msg.value.sub(refund));\n      emit LogBuyProduct(msg.sender, _owner, _front, _product, _amount);\n  }\n  \n  /** @dev Get store count.\n    * @return The store count.\n    */\n  function getStoreCount() public view returns(uint) {\n    return storeKeys.length;\n  }\n\n  /** @dev Get a store information by index.\n    * @param _index a index of store.\n    * @return owner The address of store owner.\n    * @return name The name of store.\n    * @return balance The balance of store.\n    */\n  function getStoreAtIndex(uint _index) public view returns(address owner, string memory name, uint balance) {\n    require(_index < storeKeys.length, \"out of index.\");\n    owner = storeKeys[_index];\n    name = stores[storeKeys[_index]].name;\n    balance = stores[storeKeys[_index]].balance;\n  }\n\n  /** @dev Get a store information by address.\n    * @param _owner an address of store owner.\n    * @return name The name of store.\n    * @return balance The balance of store.\n    */\n  function getStoreDetail(address _owner) public view returns(string memory name, uint balance) {\n    require(isStore[_owner], \"the owner's store doesn't exist\");\n    name = stores[_owner].name;\n    balance = stores[_owner].balance;\n  }\n  \n  /** @dev Get storefront count.\n    * @param _owner the address of store owner.\n    * @return The storefront count.\n    */\n  function getFrontsCount(address _owner) public view returns(uint) {\n      require(isStore[_owner], \"the owner's store doesn't exist\");\n      return stores[_owner].frontKeys.length;\n  }\n  \n  /** @dev Get a storefront information by index.\n    * @param _owner the address of store owner.\n    * @param _index a index of storefront.\n    * @return name The name of storefront.\n    * @return isOpen The status of storefront.\n    */\n  function getFrontAtIndex(address _owner, uint _index) public view returns(string memory name, bool isOpen) {\n      require(isStore[_owner], \"the owner's store doesn't exist\");\n      Store storage s = stores[_owner];\n      require(_index < s.frontKeys.length, \"out of index.\");\n      Front memory f = s.fronts[s.frontKeys[_index]];\n      name = f.name;\n      isOpen = f.isOpen;\n  }\n  \n  /** @dev Get product count of a storefront.\n    * @param _owner the address of store owner.\n    * @param _front the unique name of storefront.\n    * @return The product count of the storefront.\n    */\n  function getProductsCount(address _owner, string memory _front) public view returns(uint) {\n      require(isStore[_owner], \"the owner's store doesn't exist\");\n      Store storage s = stores[_owner];\n      require(s.isFront[_front], \"the owner's front doesn't exist\");\n      Front memory f = s.fronts[_front];\n      return f.productKeys.length;\n  }\n  \n  /** @dev Get a product information by index.\n    * @param _owner the address of store owner.\n    * @param _front the unique name of storefront.\n    * @param _index a index of product of storefront.\n    * @return name The name of product.\n    * @return price The price of product.\n    * @return quantity The quantity of product.\n    * @return sales The sales of product.\n    * @return isOpen The status of product.\n    */\n  function getProductAtIndex(address _owner, string memory _front, uint _index) public view returns(string memory name, uint price, uint quantity, uint sales, bool isOpen) {\n      require(isStore[_owner], \"the owner's store doesn't exist\");\n      Store storage s = stores[_owner];\n      require(s.isFront[_front], \"the owner's front doesn't exist\");\n      Front storage f = s.fronts[_front];\n      Product memory p = f.products[f.productKeys[_index]];\n      name = p.name;\n      price = p.price;\n      quantity = p.quantity;\n      sales = p.sales;\n      isOpen = p.isOpen;\n  }\n  \n  /** @dev Fallback function which reverts all tx.\n    */\n  function () external payable {\n      revert();\n  }\n}",
  "sourcePath": "/Users/iisaint/Workspace/ConsensysAcademy/online-marketplace/contracts/MarketPlace.sol",
  "compiler": {
    "name": "solc",
    "version": "0.5.8+commit.23d335f2.Emscripten.clang"
  },
  "schemaVersion": "3.0.10",
  "updatedAt": "2019-08-01T02:42:50.955Z",
  "devdoc": {
    "methods": {
      "buyProduct(address,string,string,uint256)": {
        "details": "Shopper can purches a product.",
        "params": {
          "_amount": "purches amount of product.",
          "_front": "the unique name of storefront.",
          "_owner": "the address of store owner.",
          "_product": "the unique name of product."
        }
      },
      "createFront(string,bool)": {
        "details": "Create a storefront by store owner .",
        "params": {
          "_isOpen": "is the storefront available or not.",
          "_name": "a unique name of storefront."
        }
      },
      "createProduct(string,string,uint256,uint256,bool)": {
        "details": "Create a product of storefront by store owner .",
        "params": {
          "_front": "the name of storefront.",
          "_isOpen": "is the product available or not.",
          "_price": "price of product.",
          "_product": "a unique name of product.",
          "_quantity": "quantity of product."
        }
      },
      "createStore(address,string)": {
        "details": "Create a store by admin.",
        "params": {
          "_name": "a unique name of store.",
          "_owner": "address of store owner."
        }
      },
      "forcedWithdraw(address)": {
        "details": "Force store owners to withdraw their balance.",
        "params": {
          "_owner": "address of store owner."
        }
      },
      "getFrontAtIndex(address,uint256)": {
        "details": "Get a storefront information by index.",
        "params": {
          "_index": "a index of storefront.",
          "_owner": "the address of store owner."
        },
        "return": "name The name of storefront.isOpen The status of storefront."
      },
      "getFrontsCount(address)": {
        "details": "Get storefront count.",
        "params": {
          "_owner": "the address of store owner."
        },
        "return": "The storefront count."
      },
      "getProductAtIndex(address,string,uint256)": {
        "details": "Get a product information by index.",
        "params": {
          "_front": "the unique name of storefront.",
          "_index": "a index of product of storefront.",
          "_owner": "the address of store owner."
        },
        "return": "name The name of product.price The price of product.quantity The quantity of product.sales The sales of product.isOpen The status of product."
      },
      "getProductsCount(address,string)": {
        "details": "Get product count of a storefront.",
        "params": {
          "_front": "the unique name of storefront.",
          "_owner": "the address of store owner."
        },
        "return": "The product count of the storefront."
      },
      "getStoreAtIndex(uint256)": {
        "details": "Get a store information by index.",
        "params": {
          "_index": "a index of store."
        },
        "return": "owner The address of store owner.name The name of store.balance The balance of store."
      },
      "getStoreCount()": {
        "details": "Get store count.",
        "return": "The store count."
      },
      "getStoreDetail(address)": {
        "details": "Get a store information by address.",
        "params": {
          "_owner": "an address of store owner."
        },
        "return": "name The name of store.balance The balance of store."
      },
      "toggleFrontActive(string)": {
        "details": "Toggle storefront isOpen for shoppers.",
        "params": {
          "_name": "a unique name of storefront."
        }
      },
      "toggleFrontActive(string,string)": {
        "details": "Toggle the product of storefront isOpen for shoppers.",
        "params": {
          "_front": "a unique name of storefront.",
          "_product": "a unique name of product."
        }
      },
      "withdraw(uint256)": {
        "details": "Store owner can withdraw his balance.",
        "params": {
          "_amount": "amount of balance to be withdraw."
        }
      }
    },
    "title": "Online Marketplace. "
  },
  "userdoc": {
    "methods": {}
  }
}