{
  "contractName": "Market",
  "abi": [
    {
      "constant": true,
      "inputs": [
        {
          "name": "",
          "type": "address"
        }
      ],
      "name": "isStore",
      "outputs": [
        {
          "name": "",
          "type": "bool"
        }
      ],
      "payable": false,
      "stateMutability": "view",
      "type": "function"
    },
    {
      "constant": true,
      "inputs": [
        {
          "name": "",
          "type": "address"
        }
      ],
      "name": "stores",
      "outputs": [
        {
          "name": "name",
          "type": "string"
        },
        {
          "name": "balance",
          "type": "uint256"
        }
      ],
      "payable": false,
      "stateMutability": "view",
      "type": "function"
    },
    {
      "constant": true,
      "inputs": [],
      "name": "admin",
      "outputs": [
        {
          "name": "",
          "type": "address"
        }
      ],
      "payable": false,
      "stateMutability": "view",
      "type": "function"
    },
    {
      "inputs": [],
      "payable": false,
      "stateMutability": "nonpayable",
      "type": "constructor"
    },
    {
      "payable": true,
      "stateMutability": "payable",
      "type": "fallback"
    },
    {
      "anonymous": false,
      "inputs": [
        {
          "indexed": true,
          "name": "owner",
          "type": "address"
        },
        {
          "indexed": false,
          "name": "name",
          "type": "string"
        }
      ],
      "name": "LogNewStore",
      "type": "event"
    },
    {
      "anonymous": false,
      "inputs": [
        {
          "indexed": true,
          "name": "owner",
          "type": "address"
        },
        {
          "indexed": false,
          "name": "front",
          "type": "string"
        }
      ],
      "name": "LogNewFront",
      "type": "event"
    },
    {
      "anonymous": false,
      "inputs": [
        {
          "indexed": true,
          "name": "owner",
          "type": "address"
        },
        {
          "indexed": false,
          "name": "front",
          "type": "string"
        },
        {
          "indexed": false,
          "name": "product",
          "type": "string"
        }
      ],
      "name": "LogNewProduct",
      "type": "event"
    },
    {
      "constant": false,
      "inputs": [
        {
          "name": "_owner",
          "type": "address"
        },
        {
          "name": "_name",
          "type": "string"
        }
      ],
      "name": "createStore",
      "outputs": [],
      "payable": false,
      "stateMutability": "nonpayable",
      "type": "function"
    },
    {
      "constant": false,
      "inputs": [
        {
          "name": "_name",
          "type": "string"
        },
        {
          "name": "_isOpen",
          "type": "bool"
        }
      ],
      "name": "createFront",
      "outputs": [],
      "payable": false,
      "stateMutability": "nonpayable",
      "type": "function"
    },
    {
      "constant": false,
      "inputs": [
        {
          "name": "_front",
          "type": "string"
        },
        {
          "name": "_product",
          "type": "string"
        },
        {
          "name": "_price",
          "type": "uint256"
        },
        {
          "name": "_quantity",
          "type": "uint256"
        },
        {
          "name": "_isOpen",
          "type": "bool"
        }
      ],
      "name": "createProduct",
      "outputs": [],
      "payable": false,
      "stateMutability": "nonpayable",
      "type": "function"
    },
    {
      "constant": false,
      "inputs": [
        {
          "name": "_amount",
          "type": "uint256"
        }
      ],
      "name": "withdraw",
      "outputs": [],
      "payable": false,
      "stateMutability": "nonpayable",
      "type": "function"
    },
    {
      "constant": false,
      "inputs": [
        {
          "name": "_owner",
          "type": "address"
        },
        {
          "name": "_front",
          "type": "string"
        },
        {
          "name": "_product",
          "type": "string"
        },
        {
          "name": "_amount",
          "type": "uint256"
        }
      ],
      "name": "buyProduct",
      "outputs": [],
      "payable": true,
      "stateMutability": "payable",
      "type": "function"
    },
    {
      "constant": true,
      "inputs": [
        {
          "name": "_owner",
          "type": "address"
        }
      ],
      "name": "getStoreDetail",
      "outputs": [
        {
          "name": "name",
          "type": "string"
        },
        {
          "name": "balance",
          "type": "uint256"
        }
      ],
      "payable": false,
      "stateMutability": "view",
      "type": "function"
    },
    {
      "constant": true,
      "inputs": [
        {
          "name": "_owner",
          "type": "address"
        }
      ],
      "name": "getFrontsCount",
      "outputs": [
        {
          "name": "",
          "type": "uint256"
        }
      ],
      "payable": false,
      "stateMutability": "view",
      "type": "function"
    },
    {
      "constant": true,
      "inputs": [
        {
          "name": "_owner",
          "type": "address"
        },
        {
          "name": "_index",
          "type": "uint256"
        }
      ],
      "name": "getFrontAtIndex",
      "outputs": [
        {
          "name": "name",
          "type": "string"
        },
        {
          "name": "isOpen",
          "type": "bool"
        }
      ],
      "payable": false,
      "stateMutability": "view",
      "type": "function"
    },
    {
      "constant": true,
      "inputs": [
        {
          "name": "_owner",
          "type": "address"
        },
        {
          "name": "_front",
          "type": "string"
        }
      ],
      "name": "getProductsCount",
      "outputs": [
        {
          "name": "",
          "type": "uint256"
        }
      ],
      "payable": false,
      "stateMutability": "view",
      "type": "function"
    },
    {
      "constant": true,
      "inputs": [
        {
          "name": "_owner",
          "type": "address"
        },
        {
          "name": "_front",
          "type": "string"
        },
        {
          "name": "_index",
          "type": "uint256"
        }
      ],
      "name": "getProductAtIndex",
      "outputs": [
        {
          "name": "name",
          "type": "string"
        },
        {
          "name": "price",
          "type": "uint256"
        },
        {
          "name": "quantity",
          "type": "uint256"
        },
        {
          "name": "sales",
          "type": "uint256"
        },
        {
          "name": "isOpen",
          "type": "bool"
        }
      ],
      "payable": false,
      "stateMutability": "view",
      "type": "function"
    }
  ],
  "bytecode": "0x608060405234801561001057600080fd5b50336000806101000a81548173ffffffffffffffffffffffffffffffffffffffff021916908373ffffffffffffffffffffffffffffffffffffffff160217905550612cae806100606000396000f3fe6080604052600436106100c25760003560e01c8063621df5341161007f57806388323f981161005957806388323f9814610963578063c41d2a2414610a42578063f6a99e4c14610aa7578063f851a44014610b8f576100c2565b8063621df5341461063357806373c0c7221461070457806381d502a91461088f576100c2565b806317c30b3c146100c75780631a7e914f146102435780632e1a7d4d146103c257806333f28e64146103fd5780633c9c02de146104665780635b36378314610562575b600080fd5b610241600480360360808110156100dd57600080fd5b81019080803573ffffffffffffffffffffffffffffffffffffffff1690602001909291908035906020019064010000000081111561011a57600080fd5b82018360208201111561012c57600080fd5b8035906020019184600183028401116401000000008311171561014e57600080fd5b91908080601f016020809104026020016040519081016040528093929190818152602001838380828437600081840152601f19601f820116905080830192505050505050509192919290803590602001906401000000008111156101b157600080fd5b8201836020820111156101c357600080fd5b803590602001918460018302840111640100000000831117156101e557600080fd5b91908080601f016020809104026020016040519081016040528093929190818152602001838380828437600081840152601f19601f82011690508083019250505050505050919291929080359060200190929190505050610be6565b005b34801561024f57600080fd5b506103c0600480360360a081101561026657600080fd5b810190808035906020019064010000000081111561028357600080fd5b82018360208201111561029557600080fd5b803590602001918460018302840111640100000000831117156102b757600080fd5b91908080601f016020809104026020016040519081016040528093929190818152602001838380828437600081840152601f19601f8201169050808301925050505050505091929192908035906020019064010000000081111561031a57600080fd5b82018360208201111561032c57600080fd5b8035906020019184600183028401116401000000008311171561034e57600080fd5b91908080601f016020809104026020016040519081016040528093929190818152602001838380828437600081840152601f19601f8201169050808301925050505050505091929192908035906020019092919080359060200190929190803515159060200190929190505050610f19565b005b3480156103ce57600080fd5b506103fb600480360360208110156103e557600080fd5b8101908080359060200190929190505050611470565b005b34801561040957600080fd5b5061044c6004803603602081101561042057600080fd5b81019080803573ffffffffffffffffffffffffffffffffffffffff169060200190929190505050611618565b604051808215151515815260200191505060405180910390f35b34801561047257600080fd5b5061054c6004803603604081101561048957600080fd5b81019080803573ffffffffffffffffffffffffffffffffffffffff169060200190929190803590602001906401000000008111156104c657600080fd5b8201836020820111156104d857600080fd5b803590602001918460018302840111640100000000831117156104fa57600080fd5b91908080601f016020809104026020016040519081016040528093929190818152602001838380828437600081840152601f19601f820116905080830192505050505050509192919290505050611638565b6040518082815260200191505060405180910390f35b34801561056e57600080fd5b506105b16004803603602081101561058557600080fd5b81019080803573ffffffffffffffffffffffffffffffffffffffff16906020019092919050505061198b565b6040518080602001838152602001828103825284818151815260200191508051906020019080838360005b838110156105f75780820151818401526020810190506105dc565b50505050905090810190601f1680156106245780820380516001836020036101000a031916815260200191505b50935050505060405180910390f35b34801561063f57600080fd5b506106826004803603602081101561065657600080fd5b81019080803573ffffffffffffffffffffffffffffffffffffffff169060200190929190505050611b0c565b6040518080602001838152602001828103825284818151815260200191508051906020019080838360005b838110156106c85780820151818401526020810190506106ad565b50505050905090810190601f1680156106f55780820380516001836020036101000a031916815260200191505b50935050505060405180910390f35b34801561071057600080fd5b506107f46004803603606081101561072757600080fd5b81019080803573ffffffffffffffffffffffffffffffffffffffff1690602001909291908035906020019064010000000081111561076457600080fd5b82018360208201111561077657600080fd5b8035906020019184600183028401116401000000008311171561079857600080fd5b91908080601f016020809104026020016040519081016040528093929190818152602001838380828437600081840152601f19601f82011690508083019250505050505050919291929080359060200190929190505050611bc8565b604051808060200186815260200185815260200184815260200183151515158152602001828103825287818151815260200191508051906020019080838360005b83811015610850578082015181840152602081019050610835565b50505050905090810190601f16801561087d5780820380516001836020036101000a031916815260200191505b50965050505050505060405180910390f35b34801561089b57600080fd5b50610961600480360360408110156108b257600080fd5b81019080803590602001906401000000008111156108cf57600080fd5b8201836020820111156108e157600080fd5b8035906020019184600183028401116401000000008311171561090357600080fd5b91908080601f016020809104026020016040519081016040528093929190818152602001838380828437600081840152601f19601f820116905080830192505050505050509192919290803515159060200190929190505050611f06565b005b34801561096f57600080fd5b506109bc6004803603604081101561098657600080fd5b81019080803573ffffffffffffffffffffffffffffffffffffffff16906020019092919080359060200190929190505050612360565b604051808060200183151515158152602001828103825284818151815260200191508051906020019080838360005b83811015610a065780820151818401526020810190506109eb565b50505050905090810190601f168015610a335780820380516001836020036101000a031916815260200191505b50935050505060405180910390f35b348015610a4e57600080fd5b50610a9160048036036020811015610a6557600080fd5b81019080803573ffffffffffffffffffffffffffffffffffffffff16906020019092919050505061266d565b6040518082815260200191505060405180910390f35b348015610ab357600080fd5b50610b8d60048036036040811015610aca57600080fd5b81019080803573ffffffffffffffffffffffffffffffffffffffff16906020019092919080359060200190640100000000811115610b0757600080fd5b820183602082011115610b1957600080fd5b80359060200191846001830284011164010000000083111715610b3b57600080fd5b91908080601f016020809104026020016040519081016040528093929190818152602001838380828437600081840152601f19601f820116905080830192505050505050509192919290505050612712565b005b348015610b9b57600080fd5b50610ba4612a10565b604051808273ffffffffffffffffffffffffffffffffffffffff1673ffffffffffffffffffffffffffffffffffffffff16815260200191505060405180910390f35b600160008573ffffffffffffffffffffffffffffffffffffffff1673ffffffffffffffffffffffffffffffffffffffff16815260200190815260200160002060009054906101000a900460ff16610c3c57600080fd5b6000600260008673ffffffffffffffffffffffffffffffffffffffff1673ffffffffffffffffffffffffffffffffffffffff168152602001908152602001600020905080600301846040518082805190602001908083835b60208310610cb75780518252602082019150602081019050602083039250610c94565b6001836020036101000a038019825116818451168082178552505050505050905001915050908152602001604051809103902060009054906101000a900460ff16610d0157600080fd5b600081600401856040518082805190602001908083835b60208310610d3b5780518252602082019150602081019050602083039250610d18565b6001836020036101000a0380198251168184511680821785525050505050509050019150509081526020016040518091039020905080600301846040518082805190602001908083835b60208310610da85780518252602082019150602081019050602083039250610d85565b6001836020036101000a038019825116818451168082178552505050505050905001915050908152602001604051809103902060009054906101000a900460ff16610df257600080fd5b600081600401856040518082805190602001908083835b60208310610e2c5780518252602082019150602081019050602083039250610e09565b6001836020036101000a038019825116818451168082178552505050505050905001915050908152602001604051809103902090508060020154816003015485011115610e7857600080fd5b80600101548402341015610e8b57600080fd5b838160030160008282540192505081905550600081600101548502340390506000811115610efb573373ffffffffffffffffffffffffffffffffffffffff166108fc829081150290604051600060405180830381858888f19350505050158015610ef9573d6000803e3d6000fd5b505b80340384600101600082825401925050819055505050505050505050565b600160003373ffffffffffffffffffffffffffffffffffffffff1673ffffffffffffffffffffffffffffffffffffffff16815260200190815260200160002060009054906101000a900460ff16610fd8576040517f08c379a00000000000000000000000000000000000000000000000000000000081526004018080602001828103825260198152602001807f63616c6c6572206973206e6f742073746f7265206f776e65720000000000000081525060200191505060405180910390fd5b6000600260003373ffffffffffffffffffffffffffffffffffffffff1673ffffffffffffffffffffffffffffffffffffffff168152602001908152602001600020905080600301866040518082805190602001908083835b602083106110535780518252602082019150602081019050602083039250611030565b6001836020036101000a038019825116818451168082178552505050505050905001915050908152602001604051809103902060009054906101000a900460ff1661109d57600080fd5b600081600401876040518082805190602001908083835b602083106110d757805182526020820191506020810190506020830392506110b4565b6001836020036101000a0380198251168184511680821785525050505050509050019150509081526020016040518091039020905080600301866040518082805190602001908083835b602083106111445780518252602082019150602081019050602083039250611121565b6001836020036101000a038019825116818451168082178552505050505050905001915050908152602001604051809103902060009054906101000a900460ff161561118f57600080fd5b600181600301876040518082805190602001908083835b602083106111c957805182526020820191506020810190506020830392506111a6565b6001836020036101000a038019825116818451168082178552505050505050905001915050908152602001604051809103902060006101000a81548160ff0219169083151502179055506040518060a001604052808781526020018681526020018581526020016000815260200184151581525081600401876040518082805190602001908083835b602083106112755780518252602082019150602081019050602083039250611252565b6001836020036101000a038019825116818451168082178552505050505050905001915050908152602001604051809103902060008201518160000190805190602001906112c4929190612a35565b5060208201518160010155604082015181600201556060820151816003015560808201518160040160006101000a81548160ff02191690831515021790555090505080600201869080600181540180825580915050906001820390600052602060002001600090919290919091509080519060200190611345929190612ab5565b50503373ffffffffffffffffffffffffffffffffffffffff167f02a7b30b50af45380ddb7d78a42b77ef264b552f86391b6824b2b2a48c55dd808888604051808060200180602001838103835285818151815260200191508051906020019080838360005b838110156113c55780820151818401526020810190506113aa565b50505050905090810190601f1680156113f25780820380516001836020036101000a031916815260200191505b50838103825284818151815260200191508051906020019080838360005b8381101561142b578082015181840152602081019050611410565b50505050905090810190601f1680156114585780820380516001836020036101000a031916815260200191505b5094505050505060405180910390a250505050505050565b600160003373ffffffffffffffffffffffffffffffffffffffff1673ffffffffffffffffffffffffffffffffffffffff16815260200190815260200160002060009054906101000a900460ff1661152f576040517f08c379a00000000000000000000000000000000000000000000000000000000081526004018080602001828103825260198152602001807f63616c6c6572206973206e6f742073746f7265206f776e65720000000000000081525060200191505060405180910390fd5b600260003373ffffffffffffffffffffffffffffffffffffffff1673ffffffffffffffffffffffffffffffffffffffff1681526020019081526020016000206001015481111561157e57600080fd5b80600260003373ffffffffffffffffffffffffffffffffffffffff1673ffffffffffffffffffffffffffffffffffffffff168152602001908152602001600020600101600082825403925050819055503373ffffffffffffffffffffffffffffffffffffffff166108fc829081150290604051600060405180830381858888f19350505050158015611614573d6000803e3d6000fd5b5050565b60016020528060005260406000206000915054906101000a900460ff1681565b6000600160008473ffffffffffffffffffffffffffffffffffffffff1673ffffffffffffffffffffffffffffffffffffffff16815260200190815260200160002060009054906101000a900460ff1661169057600080fd5b6000600260008573ffffffffffffffffffffffffffffffffffffffff1673ffffffffffffffffffffffffffffffffffffffff168152602001908152602001600020905080600301836040518082805190602001908083835b6020831061170b57805182526020820191506020810190506020830392506116e8565b6001836020036101000a038019825116818451168082178552505050505050905001915050908152602001604051809103902060009054906101000a900460ff1661175557600080fd5b61175d612b35565b81600401846040518082805190602001908083835b602083106117955780518252602082019150602081019050602083039250611772565b6001836020036101000a0380198251168184511680821785525050505050509050019150509081526020016040518091039020604051806060016040529081600082018054600181600116156101000203166002900480601f01602080910402602001604051908101604052809291908181526020018280546001816001161561010002031660029004801561186c5780601f106118415761010080835404028352916020019161186c565b820191906000526020600020905b81548152906001019060200180831161184f57829003601f168201915b505050505081526020016001820160009054906101000a900460ff1615151515815260200160028201805480602002602001604051908101604052809291908181526020016000905b82821015611971578382906000526020600020018054600181600116156101000203166002900480601f01602080910402602001604051908101604052809291908181526020018280546001816001161561010002031660029004801561195d5780601f106119325761010080835404028352916020019161195d565b820191906000526020600020905b81548152906001019060200180831161194057829003601f168201915b5050505050815260200190600101906118b5565b505050508152505090508060400151519250505092915050565b60606000600160008473ffffffffffffffffffffffffffffffffffffffff1673ffffffffffffffffffffffffffffffffffffffff16815260200190815260200160002060009054906101000a900460ff166119e557600080fd5b600260008473ffffffffffffffffffffffffffffffffffffffff1673ffffffffffffffffffffffffffffffffffffffff1681526020019081526020016000206000018054600181600116156101000203166002900480601f016020809104026020016040519081016040528092919081815260200182805460018160011615610100020316600290048015611abb5780601f10611a9057610100808354040283529160200191611abb565b820191906000526020600020905b815481529060010190602001808311611a9e57829003601f168201915b50505050509150600260008473ffffffffffffffffffffffffffffffffffffffff1673ffffffffffffffffffffffffffffffffffffffff168152602001908152602001600020600101549050915091565b6002602052806000526040600020600091509050806000018054600181600116156101000203166002900480601f016020809104026020016040519081016040528092919081815260200182805460018160011615610100020316600290048015611bb85780601f10611b8d57610100808354040283529160200191611bb8565b820191906000526020600020905b815481529060010190602001808311611b9b57829003601f168201915b5050505050908060010154905082565b6060600080600080600160008973ffffffffffffffffffffffffffffffffffffffff1673ffffffffffffffffffffffffffffffffffffffff16815260200190815260200160002060009054906101000a900460ff16611c2657600080fd5b6000600260008a73ffffffffffffffffffffffffffffffffffffffff1673ffffffffffffffffffffffffffffffffffffffff168152602001908152602001600020905080600301886040518082805190602001908083835b60208310611ca15780518252602082019150602081019050602083039250611c7e565b6001836020036101000a038019825116818451168082178552505050505050905001915050908152602001604051809103902060009054906101000a900460ff16611ceb57600080fd5b600081600401896040518082805190602001908083835b60208310611d255780518252602082019150602081019050602083039250611d02565b6001836020036101000a03801982511681845116808217855250505050505090500191505090815260200160405180910390209050611d62612b58565b81600401826002018a81548110611d7557fe5b906000526020600020016040518082805460018160011615610100020316600290048015611dda5780601f10611db8576101008083540402835291820191611dda565b820191906000526020600020905b815481529060010190602001808311611dc6575b505091505090815260200160405180910390206040518060a0016040529081600082018054600181600116156101000203166002900480601f016020809104026020016040519081016040528092919081815260200182805460018160011615610100020316600290048015611e915780601f10611e6657610100808354040283529160200191611e91565b820191906000526020600020905b815481529060010190602001808311611e7457829003601f168201915b505050505081526020016001820154815260200160028201548152602001600382015481526020016004820160009054906101000a900460ff16151515158152505090508060000151975080602001519650806040015195508060600151945080608001519350505050939792965093509350565b600160003373ffffffffffffffffffffffffffffffffffffffff1673ffffffffffffffffffffffffffffffffffffffff16815260200190815260200160002060009054906101000a900460ff16611fc5576040517f08c379a00000000000000000000000000000000000000000000000000000000081526004018080602001828103825260198152602001807f63616c6c6572206973206e6f742073746f7265206f776e65720000000000000081525060200191505060405180910390fd5b600260003373ffffffffffffffffffffffffffffffffffffffff1673ffffffffffffffffffffffffffffffffffffffff168152602001908152602001600020600301826040518082805190602001908083835b6020831061203b5780518252602082019150602081019050602083039250612018565b6001836020036101000a038019825116818451168082178552505050505050905001915050908152602001604051809103902060009054906101000a900460ff161561208657600080fd5b6000600260003373ffffffffffffffffffffffffffffffffffffffff1673ffffffffffffffffffffffffffffffffffffffff1681526020019081526020016000209050600181600301846040518082805190602001908083835b6020831061210357805182526020820191506020810190506020830392506120e0565b6001836020036101000a038019825116818451168082178552505050505050905001915050908152602001604051809103902060006101000a81548160ff02191690831515021790555060405180606001604052808481526020018315158152602001600060405190808252806020026020018201604052801561219b57816020015b60608152602001906001900390816121865790505b5081525081600401846040518082805190602001908083835b602083106121d757805182526020820191506020810190506020830392506121b4565b6001836020036101000a03801982511681845116808217855250505050505090500191505090815260200160405180910390206000820151816000019080519060200190612226929190612a35565b5060208201518160010160006101000a81548160ff0219169083151502179055506040820151816002019080519060200190612263929190612b89565b50905050806002018390806001815401808255809150509060018203906000526020600020016000909192909190915090805190602001906122a6929190612ab5565b50503373ffffffffffffffffffffffffffffffffffffffff167f36da0442e101cb9e4ed09d18ef2c0bc21c2a78d07363bf0ac1f9dea87caec1bb846040518080602001828103825283818151815260200191508051906020019080838360005b83811015612321578082015181840152602081019050612306565b50505050905090810190601f16801561234e5780820380516001836020036101000a031916815260200191505b509250505060405180910390a2505050565b60606000600160008573ffffffffffffffffffffffffffffffffffffffff1673ffffffffffffffffffffffffffffffffffffffff16815260200190815260200160002060009054906101000a900460ff166123ba57600080fd5b6000600260008673ffffffffffffffffffffffffffffffffffffffff1673ffffffffffffffffffffffffffffffffffffffff16815260200190815260200160002090508060020180549050841061241057600080fd5b612418612b35565b8160040182600201868154811061242b57fe5b9060005260206000200160405180828054600181600116156101000203166002900480156124905780601f1061246e576101008083540402835291820191612490565b820191906000526020600020905b81548152906001019060200180831161247c575b50509150509081526020016040518091039020604051806060016040529081600082018054600181600116156101000203166002900480601f0160208091040260200160405190810160405280929190818152602001828054600181600116156101000203166002900480156125475780601f1061251c57610100808354040283529160200191612547565b820191906000526020600020905b81548152906001019060200180831161252a57829003601f168201915b505050505081526020016001820160009054906101000a900460ff1615151515815260200160028201805480602002602001604051908101604052809291908181526020016000905b8282101561264c578382906000526020600020018054600181600116156101000203166002900480601f0160208091040260200160405190810160405280929190818152602001828054600181600116156101000203166002900480156126385780601f1061260d57610100808354040283529160200191612638565b820191906000526020600020905b81548152906001019060200180831161261b57829003601f168201915b505050505081526020019060010190612590565b50505050815250509050806000015193508060200151925050509250929050565b6000600160008373ffffffffffffffffffffffffffffffffffffffff1673ffffffffffffffffffffffffffffffffffffffff16815260200190815260200160002060009054906101000a900460ff166126c557600080fd5b600260008373ffffffffffffffffffffffffffffffffffffffff1673ffffffffffffffffffffffffffffffffffffffff168152602001908152602001600020600201805490509050919050565b6000809054906101000a900473ffffffffffffffffffffffffffffffffffffffff1673ffffffffffffffffffffffffffffffffffffffff163373ffffffffffffffffffffffffffffffffffffffff16146127d4576040517f08c379a00000000000000000000000000000000000000000000000000000000081526004018080602001828103825260138152602001807f63616c6c6572206973206e6f742061646d696e0000000000000000000000000081525060200191505060405180910390fd5b600160008373ffffffffffffffffffffffffffffffffffffffff1673ffffffffffffffffffffffffffffffffffffffff16815260200190815260200160002060009054906101000a900460ff161561282b57600080fd5b60018060008473ffffffffffffffffffffffffffffffffffffffff1673ffffffffffffffffffffffffffffffffffffffff16815260200190815260200160002060006101000a81548160ff02191690831515021790555060405180606001604052808281526020016000815260200160006040519080825280602002602001820160405280156128cf57816020015b60608152602001906001900390816128ba5790505b50815250600260008473ffffffffffffffffffffffffffffffffffffffff1673ffffffffffffffffffffffffffffffffffffffff168152602001908152602001600020600082015181600001908051906020019061292e929190612a35565b50602082015181600101556040820151816002019080519060200190612955929190612b89565b509050508173ffffffffffffffffffffffffffffffffffffffff167fa7a7f9a1330b838be79b751ee060f9db022a74c4288f770bb54d328e8e4c11a7826040518080602001828103825283818151815260200191508051906020019080838360005b838110156129d25780820151818401526020810190506129b7565b50505050905090810190601f1680156129ff5780820380516001836020036101000a031916815260200191505b509250505060405180910390a25050565b6000809054906101000a900473ffffffffffffffffffffffffffffffffffffffff1681565b828054600181600116156101000203166002900490600052602060002090601f016020900481019282601f10612a7657805160ff1916838001178555612aa4565b82800160010185558215612aa4579182015b82811115612aa3578251825591602001919060010190612a88565b5b509050612ab19190612be9565b5090565b828054600181600116156101000203166002900490600052602060002090601f016020900481019282601f10612af657805160ff1916838001178555612b24565b82800160010185558215612b24579182015b82811115612b23578251825591602001919060010190612b08565b5b509050612b319190612be9565b5090565b604051806060016040528060608152602001600015158152602001606081525090565b6040518060a00160405280606081526020016000815260200160008152602001600081526020016000151581525090565b828054828255906000526020600020908101928215612bd8579160200282015b82811115612bd7578251829080519060200190612bc7929190612a35565b5091602001919060010190612ba9565b5b509050612be59190612c0e565b5090565b612c0b91905b80821115612c07576000816000905550600101612bef565b5090565b90565b612c3791905b80821115612c335760008181612c2a9190612c3a565b50600101612c14565b5090565b90565b50805460018160011615610100020316600290046000825580601f10612c605750612c7f565b601f016020900490600052602060002090810190612c7e9190612be9565b5b5056fea165627a7a72305820824a2b1866b76809e1c98716d205f8688d36777b3b8d0b94c380d7c9b64dac5e0029",
  "source": "pragma solidity ^0.5.0;\n\ncontract Market {\n  address payable public admin;\n  struct Product {\n      string name;\n      uint price;\n      uint quantity;\n      uint sales;\n      bool isOpen;\n  }\n  \n  struct Front {\n      string name;\n      bool isOpen;\n      string[] productKeys;\n      mapping(string => bool) isProduct;\n      mapping(string => Product) products;\n  }\n  \n  struct Store {\n      string name;\n      uint balance;\n      string[] frontKeys;\n      mapping(string => bool) isFront;\n      mapping(string => Front) fronts;\n      \n  }\n  mapping(address => bool) public isStore;\n  mapping(address => Store) public stores;\n  \n  modifier onlyAdmin() {\n      require(msg.sender == admin, \"caller is not admin\");\n      _;\n  }\n  \n  modifier onlyStoreOwner() {\n      require(isStore[msg.sender], \"caller is not store owner\");\n      _;\n  }\n  \n  event LogNewStore(address indexed owner, string name);\n  event LogNewFront(address indexed owner, string front);\n  event LogNewProduct(address indexed owner, string front, string product);\n  \n  constructor() public {\n      admin = msg.sender;\n  }\n  \n  function createStore(address _owner, string memory _name) public onlyAdmin {\n      require(!isStore[_owner]);\n      isStore[_owner] = true;\n      stores[_owner] = Store(_name, 0, new string[](0));\n      emit LogNewStore(_owner, _name);\n  }\n  \n  function createFront(string memory _name, bool _isOpen) public onlyStoreOwner {\n      require(!stores[msg.sender].isFront[_name]);\n      Store storage store = stores[msg.sender];\n      store.isFront[_name] = true;\n      store.fronts[_name] = Front(_name, _isOpen, new string[](0));\n      store.frontKeys.push(_name);\n      emit LogNewFront(msg.sender, _name);\n  }\n  \n  function createProduct(string memory _front, string memory _product, uint _price, uint _quantity, bool _isOpen) public onlyStoreOwner {\n      Store storage s = stores[msg.sender];\n      require(s.isFront[_front]);\n      Front storage f = s.fronts[_front];\n      require(!f.isProduct[_product]);\n      f.isProduct[_product] = true;\n      f.products[_product] = Product(_product, _price, _quantity, 0, _isOpen);\n      f.productKeys.push(_product);\n      emit LogNewProduct(msg.sender, _front, _product);\n  }\n  \n  function withdraw(uint _amount) public onlyStoreOwner {\n      require(_amount <= stores[msg.sender].balance);\n      stores[msg.sender].balance -= _amount;\n      msg.sender.transfer(_amount);\n  }\n  \n  function buyProduct(address _owner, string memory _front, string memory _product, uint _amount) public payable {\n      require(isStore[_owner]);\n      Store storage s = stores[_owner];\n      require(s.isFront[_front]);\n      Front storage f = s.fronts[_front];\n      require(f.isProduct[_product]);\n      Product storage p = f.products[_product];\n      require(_amount + p.sales <= p.quantity);\n      require(msg.value >= _amount * p.price);\n      p.sales += _amount;\n      uint refund = msg.value - _amount * p.price;\n      if (refund > 0) {\n          msg.sender.transfer(refund);\n      }\n      s.balance += msg.value - refund;\n  }\n  \n  function getStoreDetail(address _owner) public view returns(string memory name, uint balance) {\n      require(isStore[_owner]);\n      name = stores[_owner].name;\n      balance = stores[_owner].balance;\n  }\n  \n  function getFrontsCount(address _owner) public view returns(uint) {\n      require(isStore[_owner]);\n      return stores[_owner].frontKeys.length;\n  }\n  \n  function getFrontAtIndex(address _owner, uint _index) public view returns(string memory name, bool isOpen) {\n      require(isStore[_owner]);\n      Store storage s = stores[_owner];\n      require(_index < s.frontKeys.length);\n      Front memory f = s.fronts[s.frontKeys[_index]];\n      name = f.name;\n      isOpen = f.isOpen;\n  }\n  \n  // function getFronts(address _owner) public view returns(string[] memory list) {\n  //     require(isStore[_owner]);\n  //     Store storage store = stores[_owner];\n  //     list = new string[](store.frontKeys.length);\n  //     for (uint i=0; i < store.frontKeys.length; i++) {\n  //         Front storage front = store.fronts[store.frontKeys[i]];\n  //         list[i] = front.name;\n  //     }\n  // }\n  \n  function getProductsCount(address _owner, string memory _front) public view returns(uint) {\n      require(isStore[_owner]);\n      Store storage s = stores[_owner];\n      require(s.isFront[_front]);\n      Front memory f = s.fronts[_front];\n      return f.productKeys.length;\n  }\n  \n  function getProductAtIndex(address _owner, string memory _front, uint _index) public view returns(string memory name, uint price, uint quantity, uint sales, bool isOpen) {\n      require(isStore[_owner]);\n      Store storage s = stores[_owner];\n      require(s.isFront[_front]);\n      Front storage f = s.fronts[_front];\n      Product memory p = f.products[f.productKeys[_index]];\n      name = p.name;\n      price = p.price;\n      quantity = p.quantity;\n      sales = p.sales;\n      isOpen = p.isOpen;\n  }\n  \n  function () external payable {\n      revert();\n  }\n}",
  "sourcePath": "/Users/iisaint/Workspace/ConsensysAcademy/online-marketplace/contracts/MarketPlace.sol",
  "compiler": {
    "name": "solc",
    "version": "0.5.8+commit.23d335f2.Emscripten.clang"
  },
  "schemaVersion": "3.0.10",
  "updatedAt": "2019-07-16T07:00:29.119Z",
  "devdoc": {
    "methods": {}
  },
  "userdoc": {
    "methods": {}
  }
}