{
  "contractName": "MarketPlaceOld",
  "abi": [
    {
      "constant": true,
      "inputs": [
        {
          "name": "",
          "type": "string"
        }
      ],
      "name": "products",
      "outputs": [
        {
          "name": "name",
          "type": "string"
        },
        {
          "name": "price",
          "type": "uint256"
        },
        {
          "name": "totalItems",
          "type": "uint256"
        },
        {
          "name": "sales",
          "type": "uint256"
        },
        {
          "name": "isOpen",
          "type": "bool"
        },
        {
          "name": "productsPointer",
          "type": "uint256"
        }
      ],
      "payable": false,
      "stateMutability": "view",
      "type": "function"
    },
    {
      "constant": true,
      "inputs": [
        {
          "name": "",
          "type": "address"
        }
      ],
      "name": "storeOwners",
      "outputs": [
        {
          "name": "balance",
          "type": "uint256"
        },
        {
          "name": "storeOwnersPointer",
          "type": "uint256"
        }
      ],
      "payable": false,
      "stateMutability": "view",
      "type": "function"
    },
    {
      "constant": true,
      "inputs": [
        {
          "name": "",
          "type": "uint256"
        }
      ],
      "name": "storeOwnerList",
      "outputs": [
        {
          "name": "",
          "type": "address"
        }
      ],
      "payable": false,
      "stateMutability": "view",
      "type": "function"
    },
    {
      "constant": false,
      "inputs": [],
      "name": "renounceOwnership",
      "outputs": [],
      "payable": false,
      "stateMutability": "nonpayable",
      "type": "function"
    },
    {
      "constant": true,
      "inputs": [
        {
          "name": "",
          "type": "uint256"
        }
      ],
      "name": "storefrontList",
      "outputs": [
        {
          "name": "",
          "type": "string"
        }
      ],
      "payable": false,
      "stateMutability": "view",
      "type": "function"
    },
    {
      "constant": true,
      "inputs": [],
      "name": "owner",
      "outputs": [
        {
          "name": "",
          "type": "address"
        }
      ],
      "payable": false,
      "stateMutability": "view",
      "type": "function"
    },
    {
      "constant": true,
      "inputs": [],
      "name": "isOwner",
      "outputs": [
        {
          "name": "",
          "type": "bool"
        }
      ],
      "payable": false,
      "stateMutability": "view",
      "type": "function"
    },
    {
      "constant": true,
      "inputs": [
        {
          "name": "",
          "type": "string"
        }
      ],
      "name": "storefronts",
      "outputs": [
        {
          "name": "storefrontsPointer",
          "type": "uint256"
        },
        {
          "name": "storeOwner",
          "type": "address"
        }
      ],
      "payable": false,
      "stateMutability": "view",
      "type": "function"
    },
    {
      "constant": false,
      "inputs": [
        {
          "name": "newOwner",
          "type": "address"
        }
      ],
      "name": "transferOwnership",
      "outputs": [],
      "payable": false,
      "stateMutability": "nonpayable",
      "type": "function"
    },
    {
      "anonymous": false,
      "inputs": [
        {
          "indexed": true,
          "name": "newStoreOwner",
          "type": "address"
        }
      ],
      "name": "LogNewStoreOwner",
      "type": "event"
    },
    {
      "anonymous": false,
      "inputs": [
        {
          "indexed": true,
          "name": "storeOwner",
          "type": "address"
        },
        {
          "indexed": false,
          "name": "name",
          "type": "string"
        }
      ],
      "name": "LogNewStorefront",
      "type": "event"
    },
    {
      "anonymous": false,
      "inputs": [
        {
          "indexed": true,
          "name": "previousOwner",
          "type": "address"
        },
        {
          "indexed": true,
          "name": "newOwner",
          "type": "address"
        }
      ],
      "name": "OwnershipTransferred",
      "type": "event"
    },
    {
      "constant": false,
      "inputs": [
        {
          "name": "_newStoreOwner",
          "type": "address"
        }
      ],
      "name": "createStoreOwner",
      "outputs": [],
      "payable": false,
      "stateMutability": "nonpayable",
      "type": "function"
    },
    {
      "constant": false,
      "inputs": [
        {
          "name": "_newName",
          "type": "string"
        }
      ],
      "name": "createStorefront",
      "outputs": [],
      "payable": false,
      "stateMutability": "nonpayable",
      "type": "function"
    },
    {
      "constant": true,
      "inputs": [
        {
          "name": "_storeOwner",
          "type": "address"
        }
      ],
      "name": "isStoreOwner",
      "outputs": [
        {
          "name": "",
          "type": "bool"
        }
      ],
      "payable": false,
      "stateMutability": "view",
      "type": "function"
    },
    {
      "constant": true,
      "inputs": [],
      "name": "getStoreOwnerCount",
      "outputs": [
        {
          "name": "",
          "type": "uint256"
        }
      ],
      "payable": false,
      "stateMutability": "view",
      "type": "function"
    },
    {
      "constant": true,
      "inputs": [
        {
          "name": "_storeOwner",
          "type": "address"
        }
      ],
      "name": "getStorefrontCountFromStoreOwner",
      "outputs": [
        {
          "name": "",
          "type": "uint256"
        }
      ],
      "payable": false,
      "stateMutability": "view",
      "type": "function"
    },
    {
      "constant": true,
      "inputs": [
        {
          "name": "_storeOwner",
          "type": "address"
        },
        {
          "name": "_index",
          "type": "uint256"
        }
      ],
      "name": "getStorefrontFromStoreOwner",
      "outputs": [
        {
          "name": "name",
          "type": "string"
        },
        {
          "name": "storefrontsPointer",
          "type": "uint256"
        },
        {
          "name": "storeOwner",
          "type": "address"
        }
      ],
      "payable": false,
      "stateMutability": "view",
      "type": "function"
    },
    {
      "constant": true,
      "inputs": [],
      "name": "getStorefrontCount",
      "outputs": [
        {
          "name": "",
          "type": "uint256"
        }
      ],
      "payable": false,
      "stateMutability": "view",
      "type": "function"
    },
    {
      "constant": true,
      "inputs": [
        {
          "name": "_name",
          "type": "string"
        }
      ],
      "name": "getStorefront",
      "outputs": [
        {
          "name": "storefrontsPointer",
          "type": "uint256"
        },
        {
          "name": "storeOwner",
          "type": "address"
        }
      ],
      "payable": false,
      "stateMutability": "view",
      "type": "function"
    },
    {
      "constant": true,
      "inputs": [
        {
          "name": "_name",
          "type": "string"
        }
      ],
      "name": "isStorefront",
      "outputs": [
        {
          "name": "",
          "type": "bool"
        }
      ],
      "payable": false,
      "stateMutability": "view",
      "type": "function"
    }
  ],
  "bytecode": "0x6080604052336000806101000a81548173ffffffffffffffffffffffffffffffffffffffff021916908373ffffffffffffffffffffffffffffffffffffffff1602179055506000809054906101000a900473ffffffffffffffffffffffffffffffffffffffff1673ffffffffffffffffffffffffffffffffffffffff16600073ffffffffffffffffffffffffffffffffffffffff167f8be0079c531659141344cd1fd0a4f28419497f9722a3daafe3b4186f6b6457e060405160405180910390a3611de9806100cf6000396000f3fe608060405234801561001057600080fd5b50600436106101165760003560e01c806383f16319116100a2578063a7959a1011610071578063a7959a101461077a578063bf4381101461087b578063d0c8d6e714610899578063d0d3eeba14610954578063f2fde38b14610a2757610116565b806383f16319146105655780638da5cb5b1461060c5780638f32d59b14610656578063a2f00c271461067857610116565b80634baa0f5e116100e95780634baa0f5e1461039b578063538b374f146103df5780635efdaf9f146103fd5780635effd33c146104ff578063715018a61461055b57610116565b80630186a4231461011b578063057cc2a1146102765780630effcaa0146102d5578063217014251461032d575b600080fd5b6101d46004803603602081101561013157600080fd5b810190808035906020019064010000000081111561014e57600080fd5b82018360208201111561016057600080fd5b8035906020019184600183028401116401000000008311171561018257600080fd5b91908080601f016020809104026020016040519081016040528093929190818152602001838380828437600081840152601f19601f820116905080830192505050505050509192919290505050610a6b565b604051808060200187815260200186815260200185815260200184151515158152602001838152602001828103825288818151815260200191508051906020019080838360005b8381101561023657808201518184015260208101905061021b565b50505050905090810190601f1680156102635780820380516001836020036101000a031916815260200191505b5097505050505050505060405180910390f35b6102b86004803603602081101561028c57600080fd5b81019080803573ffffffffffffffffffffffffffffffffffffffff169060200190929190505050610b62565b604051808381526020018281526020019250505060405180910390f35b610317600480360360208110156102eb57600080fd5b81019080803573ffffffffffffffffffffffffffffffffffffffff169060200190929190505050610b86565b6040518082815260200191505060405180910390f35b6103596004803603602081101561034357600080fd5b8101908080359060200190929190505050610c52565b604051808273ffffffffffffffffffffffffffffffffffffffff1673ffffffffffffffffffffffffffffffffffffffff16815260200191505060405180910390f35b6103dd600480360360208110156103b157600080fd5b81019080803573ffffffffffffffffffffffffffffffffffffffff169060200190929190505050610c8e565b005b6103e7610e7a565b6040518082815260200191505060405180910390f35b6104b66004803603602081101561041357600080fd5b810190808035906020019064010000000081111561043057600080fd5b82018360208201111561044257600080fd5b8035906020019184600183028401116401000000008311171561046457600080fd5b91908080601f016020809104026020016040519081016040528093929190818152602001838380828437600081840152601f19601f820116905080830192505050505050509192919290505050610e87565b604051808381526020018273ffffffffffffffffffffffffffffffffffffffff1673ffffffffffffffffffffffffffffffffffffffff1681526020019250505060405180910390f35b6105416004803603602081101561051557600080fd5b81019080803573ffffffffffffffffffffffffffffffffffffffff169060200190929190505050610f8d565b604051808215151515815260200191505060405180910390f35b610563611055565b005b6105916004803603602081101561057b57600080fd5b810190808035906020019092919050505061118e565b6040518080602001828103825283818151815260200191508051906020019080838360005b838110156105d15780820151818401526020810190506105b6565b50505050905090810190601f1680156105fe5780820380516001836020036101000a031916815260200191505b509250505060405180910390f35b610614611247565b604051808273ffffffffffffffffffffffffffffffffffffffff1673ffffffffffffffffffffffffffffffffffffffff16815260200191505060405180910390f35b61065e611270565b604051808215151515815260200191505060405180910390f35b6107316004803603602081101561068e57600080fd5b81019080803590602001906401000000008111156106ab57600080fd5b8201836020820111156106bd57600080fd5b803590602001918460018302840111640100000000831117156106df57600080fd5b91908080601f016020809104026020016040519081016040528093929190818152602001838380828437600081840152601f19601f8201169050808301925050505050505091929192905050506112c7565b604051808381526020018273ffffffffffffffffffffffffffffffffffffffff1673ffffffffffffffffffffffffffffffffffffffff1681526020019250505060405180910390f35b6107c66004803603604081101561079057600080fd5b81019080803573ffffffffffffffffffffffffffffffffffffffff16906020019092919080359060200190929190505050611321565b60405180806020018481526020018373ffffffffffffffffffffffffffffffffffffffff1673ffffffffffffffffffffffffffffffffffffffff168152602001828103825285818151815260200191508051906020019080838360005b8381101561083e578082015181840152602081019050610823565b50505050905090810190601f16801561086b5780820380516001836020036101000a031916815260200191505b5094505050505060405180910390f35b6108836114ad565b6040518082815260200191505060405180910390f35b610952600480360360208110156108af57600080fd5b81019080803590602001906401000000008111156108cc57600080fd5b8201836020820111156108de57600080fd5b8035906020019184600183028401116401000000008311171561090057600080fd5b91908080601f016020809104026020016040519081016040528093929190818152602001838380828437600081840152601f19601f8201169050808301925050505050505091929192905050506114ba565b005b610a0d6004803603602081101561096a57600080fd5b810190808035906020019064010000000081111561098757600080fd5b82018360208201111561099957600080fd5b803590602001918460018302840111640100000000831117156109bb57600080fd5b91908080601f016020809104026020016040519081016040528093929190818152602001838380828437600081840152601f19601f8201169050808301925050505050505091929192905050506118f4565b604051808215151515815260200191505060405180910390f35b610a6960048036036020811015610a3d57600080fd5b81019080803573ffffffffffffffffffffffffffffffffffffffff169060200190929190505050611a39565b005b600581805160208101820180518482526020830160208501208183528095505050505050600091509050806000018054600181600116156101000203166002900480601f016020809104026020016040519081016040528092919081815260200182805460018160011615610100020316600290048015610b2d5780601f10610b0257610100808354040283529160200191610b2d565b820191906000526020600020905b815481529060010190602001808311610b1057829003601f168201915b5050505050908060010154908060020154908060030154908060040160009054906101000a900460ff16908060050154905086565b60016020528060005260406000206000915090508060000154908060010154905082565b600081610b9281610f8d565b610c04576040517f08c379a000000000000000000000000000000000000000000000000000000000815260040180806020018281038252601e8152602001807f63616c6c6572206973206e6f74207468652073746f7265206f776e65722e000081525060200191505060405180910390fd5b600160008473ffffffffffffffffffffffffffffffffffffffff1673ffffffffffffffffffffffffffffffffffffffff16815260200190815260200160002060020180549050915050919050565b60028181548110610c5f57fe5b906000526020600020016000915054906101000a900473ffffffffffffffffffffffffffffffffffffffff1681565b610c96611270565b610d08576040517f08c379a00000000000000000000000000000000000000000000000000000000081526004018080602001828103825260208152602001807f4f776e61626c653a2063616c6c6572206973206e6f7420746865206f776e657281525060200191505060405180910390fd5b80610d1281610f8d565b15610d85576040517f08c379a000000000000000000000000000000000000000000000000000000000815260040180806020018281038252601a8152602001807f63616c6c6572206973207468652073746f7265206f776e65722e00000000000081525060200191505060405180910390fd5b600160028390806001815401808255809150509060018203906000526020600020016000909192909190916101000a81548173ffffffffffffffffffffffffffffffffffffffff021916908373ffffffffffffffffffffffffffffffffffffffff16021790555003600160008473ffffffffffffffffffffffffffffffffffffffff1673ffffffffffffffffffffffffffffffffffffffff168152602001908152602001600020600101819055508173ffffffffffffffffffffffffffffffffffffffff167f64a6cb4c2615e9c9ee211131f9fc94aaa6238a3c255423b75ba43ef01ca42dcd60405160405180910390a25050565b6000600280549050905090565b6000806003836040518082805190602001908083835b60208310610ec05780518252602082019150602081019050602083039250610e9d565b6001836020036101000a03801982511681845116808217855250505050505090500191505090815260200160405180910390206000015491506003836040518082805190602001908083835b60208310610f2f5780518252602082019150602081019050602083039250610f0c565b6001836020036101000a038019825116818451168082178552505050505050905001915050908152602001604051809103902060010160009054906101000a900473ffffffffffffffffffffffffffffffffffffffff169050915091565b6000806002805490501415610fa55760009050611050565b8173ffffffffffffffffffffffffffffffffffffffff166002600160008573ffffffffffffffffffffffffffffffffffffffff1673ffffffffffffffffffffffffffffffffffffffff168152602001908152602001600020600101548154811061100b57fe5b9060005260206000200160009054906101000a900473ffffffffffffffffffffffffffffffffffffffff1673ffffffffffffffffffffffffffffffffffffffff161490505b919050565b61105d611270565b6110cf576040517f08c379a00000000000000000000000000000000000000000000000000000000081526004018080602001828103825260208152602001807f4f776e61626c653a2063616c6c6572206973206e6f7420746865206f776e657281525060200191505060405180910390fd5b600073ffffffffffffffffffffffffffffffffffffffff166000809054906101000a900473ffffffffffffffffffffffffffffffffffffffff1673ffffffffffffffffffffffffffffffffffffffff167f8be0079c531659141344cd1fd0a4f28419497f9722a3daafe3b4186f6b6457e060405160405180910390a360008060006101000a81548173ffffffffffffffffffffffffffffffffffffffff021916908373ffffffffffffffffffffffffffffffffffffffff160217905550565b6004818154811061119b57fe5b906000526020600020016000915090508054600181600116156101000203166002900480601f01602080910402602001604051908101604052809291908181526020018280546001816001161561010002031660029004801561123f5780601f106112145761010080835404028352916020019161123f565b820191906000526020600020905b81548152906001019060200180831161122257829003601f168201915b505050505081565b60008060009054906101000a900473ffffffffffffffffffffffffffffffffffffffff16905090565b60008060009054906101000a900473ffffffffffffffffffffffffffffffffffffffff1673ffffffffffffffffffffffffffffffffffffffff163373ffffffffffffffffffffffffffffffffffffffff1614905090565b6003818051602081018201805184825260208301602085012081835280955050505050506000915090508060000154908060010160009054906101000a900473ffffffffffffffffffffffffffffffffffffffff16905082565b60606000808461133081610f8d565b6113a2576040517f08c379a000000000000000000000000000000000000000000000000000000000815260040180806020018281038252601e8152602001807f63616c6c6572206973206e6f74207468652073746f7265206f776e65722e000081525060200191505060405180910390fd5b600160008773ffffffffffffffffffffffffffffffffffffffff1673ffffffffffffffffffffffffffffffffffffffff16815260200190815260200160002060020185815481106113ef57fe5b906000526020600020018054600181600116156101000203166002900480601f01602080910402602001604051908101604052809291908181526020018280546001816001161561010002031660029004801561148d5780601f106114625761010080835404028352916020019161148d565b820191906000526020600020905b81548152906001019060200180831161147057829003601f168201915b5050505050935061149d84610e87565b8093508194505050509250925092565b6000600480549050905090565b336114c481610f8d565b611536576040517f08c379a000000000000000000000000000000000000000000000000000000000815260040180806020018281038252601e8152602001807f63616c6c6572206973206e6f74207468652073746f7265206f776e65722e000081525060200191505060405180910390fd5b81611540816118f4565b156115b3576040517f08c379a00000000000000000000000000000000000000000000000000000000081526004018080602001828103825260178152602001807f6e616d65206973207468652073746f726566726f6e742e00000000000000000081525060200191505060405180910390fd5b600160048490806001815401808255809150509060018203906000526020600020016000909192909190915090805190602001906115f2929190611cf2565b50036003846040518082805190602001908083835b6020831061162a5780518252602082019150602081019050602083039250611607565b6001836020036101000a038019825116818451168082178552505050505050905001915050908152602001604051809103902060000181905550336003846040518082805190602001908083835b6020831061169b5780518252602082019150602081019050602083039250611678565b6001836020036101000a038019825116818451168082178552505050505050905001915050908152602001604051809103902060010160006101000a81548173ffffffffffffffffffffffffffffffffffffffff021916908373ffffffffffffffffffffffffffffffffffffffff16021790555060018060003373ffffffffffffffffffffffffffffffffffffffff1673ffffffffffffffffffffffffffffffffffffffff16815260200190815260200160002060020184908060018154018082558091505090600182039060005260206000200160009091929091909150908051906020019061178d929190611cf2565b5003600160003373ffffffffffffffffffffffffffffffffffffffff1673ffffffffffffffffffffffffffffffffffffffff168152602001908152602001600020600301846040518082805190602001908083835b6020831061180557805182526020820191506020810190506020830392506117e2565b6001836020036101000a0380198251168184511680821785525050505050509050019150509081526020016040518091039020819055503373ffffffffffffffffffffffffffffffffffffffff167f0a691a1276924624a32ec59ebb1bd350d4bd5ac0a0e78f31043eb93cd426ab5c846040518080602001828103825283818151815260200191508051906020019080838360005b838110156118b557808201518184015260208101905061189a565b50505050905090810190601f1680156118e25780820380516001836020036101000a031916815260200191505b509250505060405180910390a2505050565b600080600480549050141561190c5760009050611a34565b611a3160046003846040518082805190602001908083835b602083106119475780518252602082019150602081019050602083039250611924565b6001836020036101000a0380198251168184511680821785525050505050509050019150509081526020016040518091039020600001548154811061198857fe5b906000526020600020018054600181600116156101000203166002900480601f016020809104026020016040519081016040528092919081815260200182805460018160011615610100020316600290048015611a265780601f106119fb57610100808354040283529160200191611a26565b820191906000526020600020905b815481529060010190602001808311611a0957829003601f168201915b505050505083611abf565b90505b919050565b611a41611270565b611ab3576040517f08c379a00000000000000000000000000000000000000000000000000000000081526004018080602001828103825260208152602001807f4f776e61626c653a2063616c6c6572206973206e6f7420746865206f776e657281525060200191505060405180910390fd5b611abc81611bae565b50565b6000816040516020018082805190602001908083835b60208310611af85780518252602082019150602081019050602083039250611ad5565b6001836020036101000a03801982511681845116808217855250505050505090500191505060405160208183030381529060405280519060200120836040516020018082805190602001908083835b60208310611b6a5780518252602082019150602081019050602083039250611b47565b6001836020036101000a0380198251168184511680821785525050505050509050019150506040516020818303038152906040528051906020012014905092915050565b600073ffffffffffffffffffffffffffffffffffffffff168173ffffffffffffffffffffffffffffffffffffffff161415611c34576040517f08c379a0000000000000000000000000000000000000000000000000000000008152600401808060200182810382526026815260200180611d986026913960400191505060405180910390fd5b8073ffffffffffffffffffffffffffffffffffffffff166000809054906101000a900473ffffffffffffffffffffffffffffffffffffffff1673ffffffffffffffffffffffffffffffffffffffff167f8be0079c531659141344cd1fd0a4f28419497f9722a3daafe3b4186f6b6457e060405160405180910390a3806000806101000a81548173ffffffffffffffffffffffffffffffffffffffff021916908373ffffffffffffffffffffffffffffffffffffffff16021790555050565b828054600181600116156101000203166002900490600052602060002090601f016020900481019282601f10611d3357805160ff1916838001178555611d61565b82800160010185558215611d61579182015b82811115611d60578251825591602001919060010190611d45565b5b509050611d6e9190611d72565b5090565b611d9491905b80821115611d90576000816000905550600101611d78565b5090565b9056fe4f776e61626c653a206e6577206f776e657220697320746865207a65726f2061646472657373a165627a7a72305820db156a4766bd6c0be6d1f0a30027981759609eaef7d41facfbe1ac4e652e96870029",
  "source": "pragma solidity ^0.5.0;\n\nimport \"openzeppelin-solidity/contracts/ownership/Ownable.sol\";\n\ncontract MarketPlaceOld is Ownable {\n  // store owners\n  struct Storeowner {\n    uint balance;\n    uint storeOwnersPointer; // points to a row on the storeOwners\n    // build a table of Storefront keys with a delete capability\n    string[] storefrontKeys;\n    mapping(string => uint) storefrontKeyPointers;\n  }\n  mapping(address => Storeowner) public storeOwners;\n  address[] public storeOwnerList;\n\n  // storefront managed by store owners\n  struct Storefront {\n    uint storefrontsPointer; // points to a row on the storefronts;\n    address storeOwner;\n  }\n  mapping(string => Storefront) public storefronts;\n  string[] public storefrontList;\n\n  // product managed by store owenrs\n  struct Product {\n    string name;\n    uint price;\n    uint totalItems;\n    uint sales;\n    bool isOpen;\n    uint productsPointer;\n  }\n  mapping(string => Product) public products;\n  \n\n  modifier notStoreOwner(address _storeOwner) {\n    require(!isStoreOwner(_storeOwner), \"caller is the store owner.\");\n    _;\n  }\n\n  modifier onlyStoreOwner(address _storeOwner) {\n    require(isStoreOwner(_storeOwner), \"caller is not the store owner.\");\n    _;\n  }\n\n  modifier notStorefront(string memory _name) {\n    require(!isStorefront(_name), \"name is the storefront.\");\n    _;\n  }\n\n  modifier onlyStorefront(string memory _name) {\n    require(isStorefront(_name), \"name is not the storefront\");\n    _;\n  }\n\n\n  event LogNewStoreOwner(address indexed newStoreOwner);\n  event LogNewStorefront(address indexed storeOwner, string name);\n\n  function createStoreOwner(address _newStoreOwner) public onlyOwner notStoreOwner(_newStoreOwner) {\n    storeOwners[_newStoreOwner].storeOwnersPointer = storeOwnerList.push(_newStoreOwner) - 1;\n    emit LogNewStoreOwner(_newStoreOwner);\n  }\n\n  function createStorefront(string memory _newName) public onlyStoreOwner(msg.sender) notStorefront(_newName) {\n    storefronts[_newName].storefrontsPointer = storefrontList.push(_newName) - 1;\n    storefronts[_newName].storeOwner = msg.sender;\n    // also maintain a list of Storefront that refer to the Storeowner\n    storeOwners[msg.sender].storefrontKeyPointers[_newName] = storeOwners[msg.sender].storefrontKeys.push(_newName) - 1;\n    emit LogNewStorefront(msg.sender, _newName);\n  }\n\n  function isStoreOwner(address _storeOwner) public view returns(bool) {\n    if (storeOwnerList.length == 0) return false;\n    return storeOwnerList[storeOwners[_storeOwner].storeOwnersPointer] == _storeOwner;\n  }\n\n  function getStoreOwnerCount() public view returns(uint) {\n    return storeOwnerList.length;\n  }\n\n  function getStorefrontCountFromStoreOwner(address _storeOwner) public view onlyStoreOwner(_storeOwner) returns(uint) {\n    return storeOwners[_storeOwner].storefrontKeys.length;\n  }\n\n  function getStorefrontFromStoreOwner(address _storeOwner, uint _index) \n    public \n    view \n    onlyStoreOwner(_storeOwner) \n    returns(string memory name, uint storefrontsPointer, address storeOwner) \n  {\n    name = storeOwners[_storeOwner].storefrontKeys[_index];\n    (storefrontsPointer, storeOwner) = getStorefront(name);\n  }\n\n  function getStorefrontCount() public view returns(uint) {\n    return storefrontList.length;\n  }\n\n  function getStorefront(string memory _name) public view returns(uint storefrontsPointer, address storeOwner) {\n    storefrontsPointer = storefronts[_name].storefrontsPointer;\n    storeOwner = storefronts[_name].storeOwner;\n  }\n\n  function isStorefront(string memory _name) public view returns(bool) {\n    if (storefrontList.length == 0) return false;\n    return compareStrings(storefrontList[storefronts[_name].storefrontsPointer], _name);\n  }\n\n  function compareStrings(string memory _a, string memory _b) internal pure returns(bool) {\n    return keccak256(abi.encodePacked(_a)) == keccak256(abi.encodePacked(_b));\n  }\n\n}\n",
  "sourcePath": "/Users/iisaint/Workspace/ConsensysAcademy/online-marketplace/contracts/MarketPlaceOld.sol",
  "compiler": {
    "name": "solc",
    "version": "0.5.8+commit.23d335f2.Emscripten.clang"
  },
  "schemaVersion": "3.0.10",
  "updatedAt": "2019-07-16T06:59:19.825Z",
  "devdoc": {
    "methods": {
      "isOwner()": {
        "details": "Returns true if the caller is the current owner."
      },
      "owner()": {
        "details": "Returns the address of the current owner."
      },
      "renounceOwnership()": {
        "details": "Leaves the contract without owner. It will not be possible to call `onlyOwner` functions anymore. Can only be called by the current owner.     * > Note: Renouncing ownership will leave the contract without an owner, thereby removing any functionality that is only available to the owner."
      },
      "transferOwnership(address)": {
        "details": "Transfers ownership of the contract to a new account (`newOwner`). Can only be called by the current owner."
      }
    }
  },
  "userdoc": {
    "methods": {}
  }
}