{
  "contractName": "MarketPlace",
  "abi": [
    {
      "constant": true,
      "inputs": [
        {
          "name": "",
          "type": "address"
        }
      ],
      "name": "isStore",
      "outputs": [
        {
          "name": "",
          "type": "bool"
        }
      ],
      "payable": false,
      "stateMutability": "view",
      "type": "function"
    },
    {
      "constant": true,
      "inputs": [
        {
          "name": "",
          "type": "address"
        }
      ],
      "name": "stores",
      "outputs": [
        {
          "name": "name",
          "type": "string"
        },
        {
          "name": "balance",
          "type": "uint256"
        }
      ],
      "payable": false,
      "stateMutability": "view",
      "type": "function"
    },
    {
      "constant": true,
      "inputs": [
        {
          "name": "",
          "type": "uint256"
        }
      ],
      "name": "storeKeys",
      "outputs": [
        {
          "name": "",
          "type": "address"
        }
      ],
      "payable": false,
      "stateMutability": "view",
      "type": "function"
    },
    {
      "constant": true,
      "inputs": [],
      "name": "admin",
      "outputs": [
        {
          "name": "",
          "type": "address"
        }
      ],
      "payable": false,
      "stateMutability": "view",
      "type": "function"
    },
    {
      "inputs": [],
      "payable": false,
      "stateMutability": "nonpayable",
      "type": "constructor"
    },
    {
      "payable": true,
      "stateMutability": "payable",
      "type": "fallback"
    },
    {
      "anonymous": false,
      "inputs": [
        {
          "indexed": true,
          "name": "owner",
          "type": "address"
        },
        {
          "indexed": false,
          "name": "name",
          "type": "string"
        }
      ],
      "name": "LogNewStore",
      "type": "event"
    },
    {
      "anonymous": false,
      "inputs": [
        {
          "indexed": true,
          "name": "owner",
          "type": "address"
        },
        {
          "indexed": false,
          "name": "front",
          "type": "string"
        }
      ],
      "name": "LogNewFront",
      "type": "event"
    },
    {
      "anonymous": false,
      "inputs": [
        {
          "indexed": true,
          "name": "owner",
          "type": "address"
        },
        {
          "indexed": false,
          "name": "front",
          "type": "string"
        },
        {
          "indexed": false,
          "name": "product",
          "type": "string"
        }
      ],
      "name": "LogNewProduct",
      "type": "event"
    },
    {
      "anonymous": false,
      "inputs": [
        {
          "indexed": true,
          "name": "shopper",
          "type": "address"
        },
        {
          "indexed": false,
          "name": "owner",
          "type": "address"
        },
        {
          "indexed": false,
          "name": "front",
          "type": "string"
        },
        {
          "indexed": false,
          "name": "product",
          "type": "string"
        },
        {
          "indexed": false,
          "name": "amount",
          "type": "uint256"
        }
      ],
      "name": "LogBuyProduct",
      "type": "event"
    },
    {
      "anonymous": false,
      "inputs": [
        {
          "indexed": true,
          "name": "owner",
          "type": "address"
        },
        {
          "indexed": false,
          "name": "newBalance",
          "type": "uint256"
        }
      ],
      "name": "LogWithdraw",
      "type": "event"
    },
    {
      "constant": false,
      "inputs": [
        {
          "name": "_owner",
          "type": "address"
        },
        {
          "name": "_name",
          "type": "string"
        }
      ],
      "name": "createStore",
      "outputs": [],
      "payable": false,
      "stateMutability": "nonpayable",
      "type": "function"
    },
    {
      "constant": false,
      "inputs": [
        {
          "name": "_name",
          "type": "string"
        },
        {
          "name": "_isOpen",
          "type": "bool"
        }
      ],
      "name": "createFront",
      "outputs": [],
      "payable": false,
      "stateMutability": "nonpayable",
      "type": "function"
    },
    {
      "constant": false,
      "inputs": [
        {
          "name": "_front",
          "type": "string"
        },
        {
          "name": "_product",
          "type": "string"
        },
        {
          "name": "_price",
          "type": "uint256"
        },
        {
          "name": "_quantity",
          "type": "uint256"
        },
        {
          "name": "_isOpen",
          "type": "bool"
        }
      ],
      "name": "createProduct",
      "outputs": [],
      "payable": false,
      "stateMutability": "nonpayable",
      "type": "function"
    },
    {
      "constant": false,
      "inputs": [
        {
          "name": "_amount",
          "type": "uint256"
        }
      ],
      "name": "withdraw",
      "outputs": [],
      "payable": false,
      "stateMutability": "nonpayable",
      "type": "function"
    },
    {
      "constant": false,
      "inputs": [
        {
          "name": "_owner",
          "type": "address"
        },
        {
          "name": "_front",
          "type": "string"
        },
        {
          "name": "_product",
          "type": "string"
        },
        {
          "name": "_amount",
          "type": "uint256"
        }
      ],
      "name": "buyProduct",
      "outputs": [],
      "payable": true,
      "stateMutability": "payable",
      "type": "function"
    },
    {
      "constant": true,
      "inputs": [],
      "name": "getStoreCount",
      "outputs": [
        {
          "name": "",
          "type": "uint256"
        }
      ],
      "payable": false,
      "stateMutability": "view",
      "type": "function"
    },
    {
      "constant": true,
      "inputs": [
        {
          "name": "_index",
          "type": "uint256"
        }
      ],
      "name": "getStoreAtIndex",
      "outputs": [
        {
          "name": "owner",
          "type": "address"
        },
        {
          "name": "name",
          "type": "string"
        },
        {
          "name": "balance",
          "type": "uint256"
        }
      ],
      "payable": false,
      "stateMutability": "view",
      "type": "function"
    },
    {
      "constant": true,
      "inputs": [
        {
          "name": "_owner",
          "type": "address"
        }
      ],
      "name": "getStoreDetail",
      "outputs": [
        {
          "name": "name",
          "type": "string"
        },
        {
          "name": "balance",
          "type": "uint256"
        }
      ],
      "payable": false,
      "stateMutability": "view",
      "type": "function"
    },
    {
      "constant": true,
      "inputs": [
        {
          "name": "_owner",
          "type": "address"
        }
      ],
      "name": "getFrontsCount",
      "outputs": [
        {
          "name": "",
          "type": "uint256"
        }
      ],
      "payable": false,
      "stateMutability": "view",
      "type": "function"
    },
    {
      "constant": true,
      "inputs": [
        {
          "name": "_owner",
          "type": "address"
        },
        {
          "name": "_index",
          "type": "uint256"
        }
      ],
      "name": "getFrontAtIndex",
      "outputs": [
        {
          "name": "name",
          "type": "string"
        },
        {
          "name": "isOpen",
          "type": "bool"
        }
      ],
      "payable": false,
      "stateMutability": "view",
      "type": "function"
    },
    {
      "constant": true,
      "inputs": [
        {
          "name": "_owner",
          "type": "address"
        },
        {
          "name": "_front",
          "type": "string"
        }
      ],
      "name": "getProductsCount",
      "outputs": [
        {
          "name": "",
          "type": "uint256"
        }
      ],
      "payable": false,
      "stateMutability": "view",
      "type": "function"
    },
    {
      "constant": true,
      "inputs": [
        {
          "name": "_owner",
          "type": "address"
        },
        {
          "name": "_front",
          "type": "string"
        },
        {
          "name": "_index",
          "type": "uint256"
        }
      ],
      "name": "getProductAtIndex",
      "outputs": [
        {
          "name": "name",
          "type": "string"
        },
        {
          "name": "price",
          "type": "uint256"
        },
        {
          "name": "quantity",
          "type": "uint256"
        },
        {
          "name": "sales",
          "type": "uint256"
        },
        {
          "name": "isOpen",
          "type": "bool"
        }
      ],
      "payable": false,
      "stateMutability": "view",
      "type": "function"
    }
  ],
  "bytecode": "0x608060405234801561001057600080fd5b50336000806101000a81548173ffffffffffffffffffffffffffffffffffffffff021916908373ffffffffffffffffffffffffffffffffffffffff160217905550613394806100606000396000f3fe6080604052600436106100f35760003560e01c806373c0c7221161008a578063c41d2a2411610059578063c41d2a2414610b8c578063f68fcccb14610bf1578063f6a99e4c14610c6c578063f851a44014610d54576100f3565b806373c0c7221461082357806381d502a9146109ae57806388323f9814610a8257806398e8bd9714610b61576100f3565b806333f28e64116100c657806333f28e641461051c5780633c9c02de146105855780635b36378314610681578063621df53414610752576100f3565b806304458419146100f857806317c30b3c146101e65780631a7e914f146103625780632e1a7d4d146104e1575b600080fd5b34801561010457600080fd5b506101316004803603602081101561011b57600080fd5b8101908080359060200190929190505050610dab565b604051808473ffffffffffffffffffffffffffffffffffffffff1673ffffffffffffffffffffffffffffffffffffffff16815260200180602001838152602001828103825284818151815260200191508051906020019080838360005b838110156101a957808201518184015260208101905061018e565b50505050905090810190601f1680156101d65780820380516001836020036101000a031916815260200191505b5094505050505060405180910390f35b610360600480360360808110156101fc57600080fd5b81019080803573ffffffffffffffffffffffffffffffffffffffff1690602001909291908035906020019064010000000081111561023957600080fd5b82018360208201111561024b57600080fd5b8035906020019184600183028401116401000000008311171561026d57600080fd5b91908080601f016020809104026020016040519081016040528093929190818152602001838380828437600081840152601f19601f820116905080830192505050505050509192919290803590602001906401000000008111156102d057600080fd5b8201836020820111156102e257600080fd5b8035906020019184600183028401116401000000008311171561030457600080fd5b91908080601f016020809104026020016040519081016040528093929190818152602001838380828437600081840152601f19601f82011690508083019250505050505050919291929080359060200190929190505050610f93565b005b34801561036e57600080fd5b506104df600480360360a081101561038557600080fd5b81019080803590602001906401000000008111156103a257600080fd5b8201836020820111156103b457600080fd5b803590602001918460018302840111640100000000831117156103d657600080fd5b91908080601f016020809104026020016040519081016040528093929190818152602001838380828437600081840152601f19601f8201169050808301925050505050505091929192908035906020019064010000000081111561043957600080fd5b82018360208201111561044b57600080fd5b8035906020019184600183028401116401000000008311171561046d57600080fd5b91908080601f016020809104026020016040519081016040528093929190818152602001838380828437600081840152601f19601f8201169050808301925050505050505091929192908035906020019092919080359060200190929190803515159060200190929190505050611457565b005b3480156104ed57600080fd5b5061051a6004803603602081101561050457600080fd5b81019080803590602001909291905050506119ae565b005b34801561052857600080fd5b5061056b6004803603602081101561053f57600080fd5b81019080803573ffffffffffffffffffffffffffffffffffffffff169060200190929190505050611be6565b604051808215151515815260200191505060405180910390f35b34801561059157600080fd5b5061066b600480360360408110156105a857600080fd5b81019080803573ffffffffffffffffffffffffffffffffffffffff169060200190929190803590602001906401000000008111156105e557600080fd5b8201836020820111156105f757600080fd5b8035906020019184600183028401116401000000008311171561061957600080fd5b91908080601f016020809104026020016040519081016040528093929190818152602001838380828437600081840152601f19601f820116905080830192505050505050509192919290505050611c06565b6040518082815260200191505060405180910390f35b34801561068d57600080fd5b506106d0600480360360208110156106a457600080fd5b81019080803573ffffffffffffffffffffffffffffffffffffffff169060200190929190505050611f59565b6040518080602001838152602001828103825284818151815260200191508051906020019080838360005b838110156107165780820151818401526020810190506106fb565b50505050905090810190601f1680156107435780820380516001836020036101000a031916815260200191505b50935050505060405180910390f35b34801561075e57600080fd5b506107a16004803603602081101561077557600080fd5b81019080803573ffffffffffffffffffffffffffffffffffffffff1690602001909291905050506120da565b6040518080602001838152602001828103825284818151815260200191508051906020019080838360005b838110156107e75780820151818401526020810190506107cc565b50505050905090810190601f1680156108145780820380516001836020036101000a031916815260200191505b50935050505060405180910390f35b34801561082f57600080fd5b506109136004803603606081101561084657600080fd5b81019080803573ffffffffffffffffffffffffffffffffffffffff1690602001909291908035906020019064010000000081111561088357600080fd5b82018360208201111561089557600080fd5b803590602001918460018302840111640100000000831117156108b757600080fd5b91908080601f016020809104026020016040519081016040528093929190818152602001838380828437600081840152601f19601f82011690508083019250505050505050919291929080359060200190929190505050612196565b604051808060200186815260200185815260200184815260200183151515158152602001828103825287818151815260200191508051906020019080838360005b8381101561096f578082015181840152602081019050610954565b50505050905090810190601f16801561099c5780820380516001836020036101000a031916815260200191505b50965050505050505060405180910390f35b3480156109ba57600080fd5b50610a80600480360360408110156109d157600080fd5b81019080803590602001906401000000008111156109ee57600080fd5b820183602082011115610a0057600080fd5b80359060200191846001830284011164010000000083111715610a2257600080fd5b91908080601f016020809104026020016040519081016040528093929190818152602001838380828437600081840152601f19601f8201169050808301925050505050505091929192908035151590602001909291905050506124d4565b005b348015610a8e57600080fd5b50610adb60048036036040811015610aa557600080fd5b81019080803573ffffffffffffffffffffffffffffffffffffffff1690602001909291908035906020019092919050505061292e565b604051808060200183151515158152602001828103825284818151815260200191508051906020019080838360005b83811015610b25578082015181840152602081019050610b0a565b50505050905090810190601f168015610b525780820380516001836020036101000a031916815260200191505b50935050505060405180910390f35b348015610b6d57600080fd5b50610b76612c3b565b6040518082815260200191505060405180910390f35b348015610b9857600080fd5b50610bdb60048036036020811015610baf57600080fd5b81019080803573ffffffffffffffffffffffffffffffffffffffff169060200190929190505050612c48565b6040518082815260200191505060405180910390f35b348015610bfd57600080fd5b50610c2a60048036036020811015610c1457600080fd5b8101908080359060200190929190505050612ced565b604051808273ffffffffffffffffffffffffffffffffffffffff1673ffffffffffffffffffffffffffffffffffffffff16815260200191505060405180910390f35b348015610c7857600080fd5b50610d5260048036036040811015610c8f57600080fd5b81019080803573ffffffffffffffffffffffffffffffffffffffff16906020019092919080359060200190640100000000811115610ccc57600080fd5b820183602082011115610cde57600080fd5b80359060200191846001830284011164010000000083111715610d0057600080fd5b91908080601f016020809104026020016040519081016040528093929190818152602001838380828437600081840152601f19601f820116905080830192505050505050509192919290505050612d29565b005b348015610d6057600080fd5b50610d696130f6565b604051808273ffffffffffffffffffffffffffffffffffffffff1673ffffffffffffffffffffffffffffffffffffffff16815260200191505060405180910390f35b6000606060006003805490508410610dc257600080fd5b60038481548110610dcf57fe5b9060005260206000200160009054906101000a900473ffffffffffffffffffffffffffffffffffffffff1692506002600060038681548110610e0d57fe5b9060005260206000200160009054906101000a900473ffffffffffffffffffffffffffffffffffffffff1673ffffffffffffffffffffffffffffffffffffffff1673ffffffffffffffffffffffffffffffffffffffff1681526020019081526020016000206000018054600181600116156101000203166002900480601f016020809104026020016040519081016040528092919081815260200182805460018160011615610100020316600290048015610f095780601f10610ede57610100808354040283529160200191610f09565b820191906000526020600020905b815481529060010190602001808311610eec57829003601f168201915b505050505091506002600060038681548110610f2157fe5b9060005260206000200160009054906101000a900473ffffffffffffffffffffffffffffffffffffffff1673ffffffffffffffffffffffffffffffffffffffff1673ffffffffffffffffffffffffffffffffffffffff1681526020019081526020016000206001015490509193909250565b600160008573ffffffffffffffffffffffffffffffffffffffff1673ffffffffffffffffffffffffffffffffffffffff16815260200190815260200160002060009054906101000a900460ff16610fe957600080fd5b6000600260008673ffffffffffffffffffffffffffffffffffffffff1673ffffffffffffffffffffffffffffffffffffffff168152602001908152602001600020905080600301846040518082805190602001908083835b602083106110645780518252602082019150602081019050602083039250611041565b6001836020036101000a038019825116818451168082178552505050505050905001915050908152602001604051809103902060009054906101000a900460ff166110ae57600080fd5b600081600401856040518082805190602001908083835b602083106110e857805182526020820191506020810190506020830392506110c5565b6001836020036101000a038019825116818451168082178552505050505050905001915050908152602001604051809103902090508060010160009054906101000a900460ff1661113857600080fd5b80600301846040518082805190602001908083835b60208310611170578051825260208201915060208101905060208303925061114d565b6001836020036101000a038019825116818451168082178552505050505050905001915050908152602001604051809103902060009054906101000a900460ff166111ba57600080fd5b600081600401856040518082805190602001908083835b602083106111f457805182526020820191506020810190506020830392506111d1565b6001836020036101000a038019825116818451168082178552505050505050905001915050908152602001604051809103902090508060040160009054906101000a900460ff1661124457600080fd5b806002015481600301548501111561125b57600080fd5b8060010154840234101561126e57600080fd5b8381600301600082825401925050819055506000816001015485023403905060008111156112de573373ffffffffffffffffffffffffffffffffffffffff166108fc829081150290604051600060405180830381858888f193505050501580156112dc573d6000803e3d6000fd5b505b80340384600101600082825401925050819055503373ffffffffffffffffffffffffffffffffffffffff167e505e05eff2cc810f0e768b70b6fb77c9093f8c5c5095b621e70904bf27e20e89898989604051808573ffffffffffffffffffffffffffffffffffffffff1673ffffffffffffffffffffffffffffffffffffffff1681526020018060200180602001848152602001838103835286818151815260200191508051906020019080838360005b838110156113a957808201518184015260208101905061138e565b50505050905090810190601f1680156113d65780820380516001836020036101000a031916815260200191505b50838103825285818151815260200191508051906020019080838360005b8381101561140f5780820151818401526020810190506113f4565b50505050905090810190601f16801561143c5780820380516001836020036101000a031916815260200191505b50965050505050505060405180910390a25050505050505050565b600160003373ffffffffffffffffffffffffffffffffffffffff1673ffffffffffffffffffffffffffffffffffffffff16815260200190815260200160002060009054906101000a900460ff16611516576040517f08c379a00000000000000000000000000000000000000000000000000000000081526004018080602001828103825260198152602001807f63616c6c6572206973206e6f742073746f7265206f776e65720000000000000081525060200191505060405180910390fd5b6000600260003373ffffffffffffffffffffffffffffffffffffffff1673ffffffffffffffffffffffffffffffffffffffff168152602001908152602001600020905080600301866040518082805190602001908083835b60208310611591578051825260208201915060208101905060208303925061156e565b6001836020036101000a038019825116818451168082178552505050505050905001915050908152602001604051809103902060009054906101000a900460ff166115db57600080fd5b600081600401876040518082805190602001908083835b6020831061161557805182526020820191506020810190506020830392506115f2565b6001836020036101000a0380198251168184511680821785525050505050509050019150509081526020016040518091039020905080600301866040518082805190602001908083835b60208310611682578051825260208201915060208101905060208303925061165f565b6001836020036101000a038019825116818451168082178552505050505050905001915050908152602001604051809103902060009054906101000a900460ff16156116cd57600080fd5b600181600301876040518082805190602001908083835b6020831061170757805182526020820191506020810190506020830392506116e4565b6001836020036101000a038019825116818451168082178552505050505050905001915050908152602001604051809103902060006101000a81548160ff0219169083151502179055506040518060a001604052808781526020018681526020018581526020016000815260200184151581525081600401876040518082805190602001908083835b602083106117b35780518252602082019150602081019050602083039250611790565b6001836020036101000a0380198251168184511680821785525050505050509050019150509081526020016040518091039020600082015181600001908051906020019061180292919061311b565b5060208201518160010155604082015181600201556060820151816003015560808201518160040160006101000a81548160ff0219169083151502179055509050508060020186908060018154018082558091505090600182039060005260206000200160009091929091909150908051906020019061188392919061319b565b50503373ffffffffffffffffffffffffffffffffffffffff167f02a7b30b50af45380ddb7d78a42b77ef264b552f86391b6824b2b2a48c55dd808888604051808060200180602001838103835285818151815260200191508051906020019080838360005b838110156119035780820151818401526020810190506118e8565b50505050905090810190601f1680156119305780820380516001836020036101000a031916815260200191505b50838103825284818151815260200191508051906020019080838360005b8381101561196957808201518184015260208101905061194e565b50505050905090810190601f1680156119965780820380516001836020036101000a031916815260200191505b5094505050505060405180910390a250505050505050565b600160003373ffffffffffffffffffffffffffffffffffffffff1673ffffffffffffffffffffffffffffffffffffffff16815260200190815260200160002060009054906101000a900460ff16611a6d576040517f08c379a00000000000000000000000000000000000000000000000000000000081526004018080602001828103825260198152602001807f63616c6c6572206973206e6f742073746f7265206f776e65720000000000000081525060200191505060405180910390fd5b600260003373ffffffffffffffffffffffffffffffffffffffff1673ffffffffffffffffffffffffffffffffffffffff16815260200190815260200160002060010154811115611abc57600080fd5b80600260003373ffffffffffffffffffffffffffffffffffffffff1673ffffffffffffffffffffffffffffffffffffffff168152602001908152602001600020600101600082825403925050819055503373ffffffffffffffffffffffffffffffffffffffff166108fc829081150290604051600060405180830381858888f19350505050158015611b52573d6000803e3d6000fd5b503373ffffffffffffffffffffffffffffffffffffffff167f4ce7033d118120e254016dccf195288400b28fc8936425acd5f17ce2df3ab708600260003373ffffffffffffffffffffffffffffffffffffffff1673ffffffffffffffffffffffffffffffffffffffff168152602001908152602001600020600101546040518082815260200191505060405180910390a250565b60016020528060005260406000206000915054906101000a900460ff1681565b6000600160008473ffffffffffffffffffffffffffffffffffffffff1673ffffffffffffffffffffffffffffffffffffffff16815260200190815260200160002060009054906101000a900460ff16611c5e57600080fd5b6000600260008573ffffffffffffffffffffffffffffffffffffffff1673ffffffffffffffffffffffffffffffffffffffff168152602001908152602001600020905080600301836040518082805190602001908083835b60208310611cd95780518252602082019150602081019050602083039250611cb6565b6001836020036101000a038019825116818451168082178552505050505050905001915050908152602001604051809103902060009054906101000a900460ff16611d2357600080fd5b611d2b61321b565b81600401846040518082805190602001908083835b60208310611d635780518252602082019150602081019050602083039250611d40565b6001836020036101000a0380198251168184511680821785525050505050509050019150509081526020016040518091039020604051806060016040529081600082018054600181600116156101000203166002900480601f016020809104026020016040519081016040528092919081815260200182805460018160011615610100020316600290048015611e3a5780601f10611e0f57610100808354040283529160200191611e3a565b820191906000526020600020905b815481529060010190602001808311611e1d57829003601f168201915b505050505081526020016001820160009054906101000a900460ff1615151515815260200160028201805480602002602001604051908101604052809291908181526020016000905b82821015611f3f578382906000526020600020018054600181600116156101000203166002900480601f016020809104026020016040519081016040528092919081815260200182805460018160011615610100020316600290048015611f2b5780601f10611f0057610100808354040283529160200191611f2b565b820191906000526020600020905b815481529060010190602001808311611f0e57829003601f168201915b505050505081526020019060010190611e83565b505050508152505090508060400151519250505092915050565b60606000600160008473ffffffffffffffffffffffffffffffffffffffff1673ffffffffffffffffffffffffffffffffffffffff16815260200190815260200160002060009054906101000a900460ff16611fb357600080fd5b600260008473ffffffffffffffffffffffffffffffffffffffff1673ffffffffffffffffffffffffffffffffffffffff1681526020019081526020016000206000018054600181600116156101000203166002900480601f0160208091040260200160405190810160405280929190818152602001828054600181600116156101000203166002900480156120895780601f1061205e57610100808354040283529160200191612089565b820191906000526020600020905b81548152906001019060200180831161206c57829003601f168201915b50505050509150600260008473ffffffffffffffffffffffffffffffffffffffff1673ffffffffffffffffffffffffffffffffffffffff168152602001908152602001600020600101549050915091565b6002602052806000526040600020600091509050806000018054600181600116156101000203166002900480601f0160208091040260200160405190810160405280929190818152602001828054600181600116156101000203166002900480156121865780601f1061215b57610100808354040283529160200191612186565b820191906000526020600020905b81548152906001019060200180831161216957829003601f168201915b5050505050908060010154905082565b6060600080600080600160008973ffffffffffffffffffffffffffffffffffffffff1673ffffffffffffffffffffffffffffffffffffffff16815260200190815260200160002060009054906101000a900460ff166121f457600080fd5b6000600260008a73ffffffffffffffffffffffffffffffffffffffff1673ffffffffffffffffffffffffffffffffffffffff168152602001908152602001600020905080600301886040518082805190602001908083835b6020831061226f578051825260208201915060208101905060208303925061224c565b6001836020036101000a038019825116818451168082178552505050505050905001915050908152602001604051809103902060009054906101000a900460ff166122b957600080fd5b600081600401896040518082805190602001908083835b602083106122f357805182526020820191506020810190506020830392506122d0565b6001836020036101000a0380198251168184511680821785525050505050509050019150509081526020016040518091039020905061233061323e565b81600401826002018a8154811061234357fe5b9060005260206000200160405180828054600181600116156101000203166002900480156123a85780601f106123865761010080835404028352918201916123a8565b820191906000526020600020905b815481529060010190602001808311612394575b505091505090815260200160405180910390206040518060a0016040529081600082018054600181600116156101000203166002900480601f01602080910402602001604051908101604052809291908181526020018280546001816001161561010002031660029004801561245f5780601f106124345761010080835404028352916020019161245f565b820191906000526020600020905b81548152906001019060200180831161244257829003601f168201915b505050505081526020016001820154815260200160028201548152602001600382015481526020016004820160009054906101000a900460ff16151515158152505090508060000151975080602001519650806040015195508060600151945080608001519350505050939792965093509350565b600160003373ffffffffffffffffffffffffffffffffffffffff1673ffffffffffffffffffffffffffffffffffffffff16815260200190815260200160002060009054906101000a900460ff16612593576040517f08c379a00000000000000000000000000000000000000000000000000000000081526004018080602001828103825260198152602001807f63616c6c6572206973206e6f742073746f7265206f776e65720000000000000081525060200191505060405180910390fd5b600260003373ffffffffffffffffffffffffffffffffffffffff1673ffffffffffffffffffffffffffffffffffffffff168152602001908152602001600020600301826040518082805190602001908083835b6020831061260957805182526020820191506020810190506020830392506125e6565b6001836020036101000a038019825116818451168082178552505050505050905001915050908152602001604051809103902060009054906101000a900460ff161561265457600080fd5b6000600260003373ffffffffffffffffffffffffffffffffffffffff1673ffffffffffffffffffffffffffffffffffffffff1681526020019081526020016000209050600181600301846040518082805190602001908083835b602083106126d157805182526020820191506020810190506020830392506126ae565b6001836020036101000a038019825116818451168082178552505050505050905001915050908152602001604051809103902060006101000a81548160ff02191690831515021790555060405180606001604052808481526020018315158152602001600060405190808252806020026020018201604052801561276957816020015b60608152602001906001900390816127545790505b5081525081600401846040518082805190602001908083835b602083106127a55780518252602082019150602081019050602083039250612782565b6001836020036101000a038019825116818451168082178552505050505050905001915050908152602001604051809103902060008201518160000190805190602001906127f492919061311b565b5060208201518160010160006101000a81548160ff021916908315150217905550604082015181600201908051906020019061283192919061326f565b509050508060020183908060018154018082558091505090600182039060005260206000200160009091929091909150908051906020019061287492919061319b565b50503373ffffffffffffffffffffffffffffffffffffffff167f36da0442e101cb9e4ed09d18ef2c0bc21c2a78d07363bf0ac1f9dea87caec1bb846040518080602001828103825283818151815260200191508051906020019080838360005b838110156128ef5780820151818401526020810190506128d4565b50505050905090810190601f16801561291c5780820380516001836020036101000a031916815260200191505b509250505060405180910390a2505050565b60606000600160008573ffffffffffffffffffffffffffffffffffffffff1673ffffffffffffffffffffffffffffffffffffffff16815260200190815260200160002060009054906101000a900460ff1661298857600080fd5b6000600260008673ffffffffffffffffffffffffffffffffffffffff1673ffffffffffffffffffffffffffffffffffffffff1681526020019081526020016000209050806002018054905084106129de57600080fd5b6129e661321b565b816004018260020186815481106129f957fe5b906000526020600020016040518082805460018160011615610100020316600290048015612a5e5780601f10612a3c576101008083540402835291820191612a5e565b820191906000526020600020905b815481529060010190602001808311612a4a575b50509150509081526020016040518091039020604051806060016040529081600082018054600181600116156101000203166002900480601f016020809104026020016040519081016040528092919081815260200182805460018160011615610100020316600290048015612b155780601f10612aea57610100808354040283529160200191612b15565b820191906000526020600020905b815481529060010190602001808311612af857829003601f168201915b505050505081526020016001820160009054906101000a900460ff1615151515815260200160028201805480602002602001604051908101604052809291908181526020016000905b82821015612c1a578382906000526020600020018054600181600116156101000203166002900480601f016020809104026020016040519081016040528092919081815260200182805460018160011615610100020316600290048015612c065780601f10612bdb57610100808354040283529160200191612c06565b820191906000526020600020905b815481529060010190602001808311612be957829003601f168201915b505050505081526020019060010190612b5e565b50505050815250509050806000015193508060200151925050509250929050565b6000600380549050905090565b6000600160008373ffffffffffffffffffffffffffffffffffffffff1673ffffffffffffffffffffffffffffffffffffffff16815260200190815260200160002060009054906101000a900460ff16612ca057600080fd5b600260008373ffffffffffffffffffffffffffffffffffffffff1673ffffffffffffffffffffffffffffffffffffffff168152602001908152602001600020600201805490509050919050565b60038181548110612cfa57fe5b906000526020600020016000915054906101000a900473ffffffffffffffffffffffffffffffffffffffff1681565b6000809054906101000a900473ffffffffffffffffffffffffffffffffffffffff1673ffffffffffffffffffffffffffffffffffffffff163373ffffffffffffffffffffffffffffffffffffffff1614612deb576040517f08c379a00000000000000000000000000000000000000000000000000000000081526004018080602001828103825260148152602001807f63616c6c6572206973206e6f742061646d696e2e00000000000000000000000081525060200191505060405180910390fd5b600160008373ffffffffffffffffffffffffffffffffffffffff1673ffffffffffffffffffffffffffffffffffffffff16815260200190815260200160002060009054906101000a900460ff1615612eab576040517f08c379a00000000000000000000000000000000000000000000000000000000081526004018080602001828103825260108152602001807f6475706c69636174652073746f72652e0000000000000000000000000000000081525060200191505060405180910390fd5b60018060008473ffffffffffffffffffffffffffffffffffffffff1673ffffffffffffffffffffffffffffffffffffffff16815260200190815260200160002060006101000a81548160ff0219169083151502179055506040518060600160405280828152602001600081526020016000604051908082528060200260200182016040528015612f4f57816020015b6060815260200190600190039081612f3a5790505b50815250600260008473ffffffffffffffffffffffffffffffffffffffff1673ffffffffffffffffffffffffffffffffffffffff1681526020019081526020016000206000820151816000019080519060200190612fae92919061311b565b50602082015181600101556040820151816002019080519060200190612fd592919061326f565b5090505060038290806001815401808255809150509060018203906000526020600020016000909192909190916101000a81548173ffffffffffffffffffffffffffffffffffffffff021916908373ffffffffffffffffffffffffffffffffffffffff160217905550508173ffffffffffffffffffffffffffffffffffffffff167fa7a7f9a1330b838be79b751ee060f9db022a74c4288f770bb54d328e8e4c11a7826040518080602001828103825283818151815260200191508051906020019080838360005b838110156130b857808201518184015260208101905061309d565b50505050905090810190601f1680156130e55780820380516001836020036101000a031916815260200191505b509250505060405180910390a25050565b6000809054906101000a900473ffffffffffffffffffffffffffffffffffffffff1681565b828054600181600116156101000203166002900490600052602060002090601f016020900481019282601f1061315c57805160ff191683800117855561318a565b8280016001018555821561318a579182015b8281111561318957825182559160200191906001019061316e565b5b50905061319791906132cf565b5090565b828054600181600116156101000203166002900490600052602060002090601f016020900481019282601f106131dc57805160ff191683800117855561320a565b8280016001018555821561320a579182015b828111156132095782518255916020019190600101906131ee565b5b50905061321791906132cf565b5090565b604051806060016040528060608152602001600015158152602001606081525090565b6040518060a00160405280606081526020016000815260200160008152602001600081526020016000151581525090565b8280548282559060005260206000209081019282156132be579160200282015b828111156132bd5782518290805190602001906132ad92919061311b565b509160200191906001019061328f565b5b5090506132cb91906132f4565b5090565b6132f191905b808211156132ed5760008160009055506001016132d5565b5090565b90565b61331d91905b8082111561331957600081816133109190613320565b506001016132fa565b5090565b90565b50805460018160011615610100020316600290046000825580601f106133465750613365565b601f01602090049060005260206000209081019061336491906132cf565b5b5056fea165627a7a723058201248004fddce5500ca5aff45129290e8f47f316328fc7097862dc45647216c810029",
  "source": "pragma solidity ^0.5.0;\n\nimport \"./Adminable.sol\";\n\n/** @title Online Marketplace. */\ncontract MarketPlace is Adminable {\n  struct Product {\n    string name;\n    uint price;\n    uint quantity;\n    uint sales;\n    bool isOpen;\n  }\n  \n  struct Front {\n    string name;\n    bool isOpen;\n    string[] productKeys;\n    mapping(string => bool) isProduct;\n    mapping(string => Product) products;\n  }\n  \n  struct Store {\n    string name;\n    uint balance;\n    string[] frontKeys;\n    mapping(string => bool) isFront;\n    mapping(string => Front) fronts;  \n  }\n\n  mapping(address => bool) public isStore;\n  mapping(address => Store) public stores;\n  address[] public storeKeys;\n  \n  // modifier onlyAdmin() {\n  //   require(msg.sender == admin, \"caller is not admin\");\n  //   _;\n  // }\n  \n  modifier onlyStoreOwner() {\n    require(isStore[msg.sender], \"caller is not store owner\");\n    _;\n  }\n\n  modifier storeExist(address _owner) {\n    require(isStore[_owner], \"the store does not exist.\");\n    _;\n  }\n  \n  event LogNewStore(address indexed owner, string name);\n  event LogNewFront(address indexed owner, string front);\n  event LogNewProduct(address indexed owner, string front, string product);\n  event LogBuyProduct(address indexed shopper, address owner, string front, string product, uint amount);\n  event LogWithdraw(address indexed owner, uint newBalance);\n  \n  constructor() public {\n      // admin = msg.sender;\n  }\n  \n  /** @dev Create a store by admin.\n    * @param _owner address of store owner.\n    * @param _name a unique name of store.\n    */\n  function createStore(address _owner, string memory _name) public onlyAdmin {\n      require(!isStore[_owner], \"duplicate store.\");\n      isStore[_owner] = true;\n      stores[_owner] = Store(_name, 0, new string[](0));\n      storeKeys.push(_owner);\n      emit LogNewStore(_owner, _name);\n  }\n  \n  /** @dev Create a storefront by store owner .\n    * @param _name a unique name of storefront.\n    * @param _isOpen is the storefront available or not.\n    */\n  function createFront(string memory _name, bool _isOpen) public onlyStoreOwner {\n      require(!stores[msg.sender].isFront[_name]);\n      Store storage store = stores[msg.sender];\n      store.isFront[_name] = true;\n      store.fronts[_name] = Front(_name, _isOpen, new string[](0));\n      store.frontKeys.push(_name);\n      emit LogNewFront(msg.sender, _name);\n  }\n  \n  /** @dev Create a product of storefront by store owner .\n    * @param _front the name of storefront.\n    * @param _product a unique name of product.\n    * @param _price price of product.\n    * @param _quantity quantity of product.\n    * @param _isOpen is the product available or not.\n    */\n  function createProduct(string memory _front, string memory _product, uint _price, uint _quantity, bool _isOpen) public onlyStoreOwner {\n      Store storage s = stores[msg.sender];\n      require(s.isFront[_front]);\n      Front storage f = s.fronts[_front];\n      require(!f.isProduct[_product]);\n      f.isProduct[_product] = true;\n      f.products[_product] = Product(_product, _price, _quantity, 0, _isOpen);\n      f.productKeys.push(_product);\n      emit LogNewProduct(msg.sender, _front, _product);\n  }\n  \n  /** @dev Store owner can withdraw his balance.\n    * @param _amount amount of balance to be withdraw.\n    */\n  function withdraw(uint _amount) public onlyStoreOwner {\n      require(_amount <= stores[msg.sender].balance);\n      stores[msg.sender].balance -= _amount;\n      msg.sender.transfer(_amount);\n      emit LogWithdraw(msg.sender, stores[msg.sender].balance);\n  }\n  \n  /** @dev Shopper can purches a product.\n    * @param _owner the address of store owner.\n    * @param _front the unique name of storefront.\n    * @param _product the unique name of product.\n    * @param _amount purches amount of product.\n    */\n  function buyProduct(address _owner, string memory _front, string memory _product, uint _amount) public payable {\n      require(isStore[_owner]);\n      Store storage s = stores[_owner];\n      require(s.isFront[_front]);\n      Front storage f = s.fronts[_front];\n      require(f.isOpen);\n      require(f.isProduct[_product]);\n      Product storage p = f.products[_product];\n      require(p.isOpen);\n      require(_amount + p.sales <= p.quantity);\n      require(msg.value >= _amount * p.price);\n      p.sales += _amount;\n      uint refund = msg.value - _amount * p.price;\n      if (refund > 0) {\n          msg.sender.transfer(refund);\n      }\n      s.balance += msg.value - refund;\n      emit LogBuyProduct(msg.sender, _owner, _front, _product, _amount);\n  }\n  \n  /** @dev Get store count.\n    * @return The store count.\n    */\n  function getStoreCount() public view returns(uint) {\n    return storeKeys.length;\n  }\n\n  /** @dev Get a store information by index.\n    * @param _index a index of store.\n    * @return owner The address of store owner.\n    * @return name The name of store.\n    * @return balance The balance of store.\n    */\n  function getStoreAtIndex(uint _index) public view returns(address owner, string memory name, uint balance) {\n    require(_index < storeKeys.length);\n    owner = storeKeys[_index];\n    name = stores[storeKeys[_index]].name;\n    balance = stores[storeKeys[_index]].balance;\n  }\n\n  /** @dev Get a store information by address.\n    * @param _owner an address of store owner.\n    * @return name The name of store.\n    * @return balance The balance of store.\n    */\n  function getStoreDetail(address _owner) public view returns(string memory name, uint balance) {\n    require(isStore[_owner]);\n    name = stores[_owner].name;\n    balance = stores[_owner].balance;\n  }\n  \n  /** @dev Get storefront count.\n    * @param _owner the address of store owner.\n    * @return The storefront count.\n    */\n  function getFrontsCount(address _owner) public view returns(uint) {\n      require(isStore[_owner]);\n      return stores[_owner].frontKeys.length;\n  }\n  \n  /** @dev Get a storefront information by index.\n    * @param _owner the address of store owner.\n    * @param _index a index of storefront.\n    * @return name The name of storefront.\n    * @return isOpen The status of storefront.\n    */\n  function getFrontAtIndex(address _owner, uint _index) public view returns(string memory name, bool isOpen) {\n      require(isStore[_owner]);\n      Store storage s = stores[_owner];\n      require(_index < s.frontKeys.length);\n      Front memory f = s.fronts[s.frontKeys[_index]];\n      name = f.name;\n      isOpen = f.isOpen;\n  }\n  \n  /** @dev Get product count of a storefront.\n    * @param _owner the address of store owner.\n    * @param _front the unique name of storefront.\n    * @return The product count of the storefront.\n    */\n  function getProductsCount(address _owner, string memory _front) public view returns(uint) {\n      require(isStore[_owner]);\n      Store storage s = stores[_owner];\n      require(s.isFront[_front]);\n      Front memory f = s.fronts[_front];\n      return f.productKeys.length;\n  }\n  \n  /** @dev Get a product information by index.\n    * @param _owner the address of store owner.\n    * @param _front the unique name of storefront.\n    * @param _index a index of product of storefront.\n    * @return name The name of product.\n    * @return price The price of product.\n    * @return quantity The quantity of product.\n    * @return sales The sales of product.\n    * @return isOpen The status of product.\n    */\n  function getProductAtIndex(address _owner, string memory _front, uint _index) public view returns(string memory name, uint price, uint quantity, uint sales, bool isOpen) {\n      require(isStore[_owner]);\n      Store storage s = stores[_owner];\n      require(s.isFront[_front]);\n      Front storage f = s.fronts[_front];\n      Product memory p = f.products[f.productKeys[_index]];\n      name = p.name;\n      price = p.price;\n      quantity = p.quantity;\n      sales = p.sales;\n      isOpen = p.isOpen;\n  }\n  \n  /** @dev Fallback function which reverts all tx.\n    */\n  function () external payable {\n      revert();\n  }\n}",
  "sourcePath": "/Users/iisaint/Workspace/ConsensysAcademy/online-marketplace/contracts/MarketPlace.sol",
  "compiler": {
    "name": "solc",
    "version": "0.5.8+commit.23d335f2.Emscripten.clang"
  },
  "schemaVersion": "3.0.10",
  "updatedAt": "2019-07-31T18:55:47.254Z",
  "devdoc": {
    "methods": {
      "buyProduct(address,string,string,uint256)": {
        "details": "Shopper can purches a product.",
        "params": {
          "_amount": "purches amount of product.",
          "_front": "the unique name of storefront.",
          "_owner": "the address of store owner.",
          "_product": "the unique name of product."
        }
      },
      "createFront(string,bool)": {
        "details": "Create a storefront by store owner .",
        "params": {
          "_isOpen": "is the storefront available or not.",
          "_name": "a unique name of storefront."
        }
      },
      "createProduct(string,string,uint256,uint256,bool)": {
        "details": "Create a product of storefront by store owner .",
        "params": {
          "_front": "the name of storefront.",
          "_isOpen": "is the product available or not.",
          "_price": "price of product.",
          "_product": "a unique name of product.",
          "_quantity": "quantity of product."
        }
      },
      "createStore(address,string)": {
        "details": "Create a store by admin.",
        "params": {
          "_name": "a unique name of store.",
          "_owner": "address of store owner."
        }
      },
      "getFrontAtIndex(address,uint256)": {
        "details": "Get a storefront information by index.",
        "params": {
          "_index": "a index of storefront.",
          "_owner": "the address of store owner."
        },
        "return": "name The name of storefront.isOpen The status of storefront."
      },
      "getFrontsCount(address)": {
        "details": "Get storefront count.",
        "params": {
          "_owner": "the address of store owner."
        },
        "return": "The storefront count."
      },
      "getProductAtIndex(address,string,uint256)": {
        "details": "Get a product information by index.",
        "params": {
          "_front": "the unique name of storefront.",
          "_index": "a index of product of storefront.",
          "_owner": "the address of store owner."
        },
        "return": "name The name of product.price The price of product.quantity The quantity of product.sales The sales of product.isOpen The status of product."
      },
      "getProductsCount(address,string)": {
        "details": "Get product count of a storefront.",
        "params": {
          "_front": "the unique name of storefront.",
          "_owner": "the address of store owner."
        },
        "return": "The product count of the storefront."
      },
      "getStoreAtIndex(uint256)": {
        "details": "Get a store information by index.",
        "params": {
          "_index": "a index of store."
        },
        "return": "owner The address of store owner.name The name of store.balance The balance of store."
      },
      "getStoreCount()": {
        "details": "Get store count.",
        "return": "The store count."
      },
      "getStoreDetail(address)": {
        "details": "Get a store information by address.",
        "params": {
          "_owner": "an address of store owner."
        },
        "return": "name The name of store.balance The balance of store."
      },
      "withdraw(uint256)": {
        "details": "Store owner can withdraw his balance.",
        "params": {
          "_amount": "amount of balance to be withdraw."
        }
      }
    },
    "title": "Online Marketplace. "
  },
  "userdoc": {
    "methods": {}
  }
}