{
  "contractName": "UniswapExchange",
  "abi": [
    {
      "constant": true,
      "inputs": [],
      "name": "name",
      "outputs": [
        {
          "name": "",
          "type": "bytes32"
        }
      ],
      "payable": false,
      "stateMutability": "view",
      "type": "function"
    },
    {
      "constant": false,
      "inputs": [
        {
          "name": "spender",
          "type": "address"
        },
        {
          "name": "value",
          "type": "uint256"
        }
      ],
      "name": "approve",
      "outputs": [
        {
          "name": "",
          "type": "bool"
        }
      ],
      "payable": false,
      "stateMutability": "nonpayable",
      "type": "function"
    },
    {
      "constant": true,
      "inputs": [],
      "name": "totalSupply",
      "outputs": [
        {
          "name": "",
          "type": "uint256"
        }
      ],
      "payable": false,
      "stateMutability": "view",
      "type": "function"
    },
    {
      "constant": false,
      "inputs": [
        {
          "name": "from",
          "type": "address"
        },
        {
          "name": "to",
          "type": "address"
        },
        {
          "name": "value",
          "type": "uint256"
        }
      ],
      "name": "transferFrom",
      "outputs": [
        {
          "name": "",
          "type": "bool"
        }
      ],
      "payable": false,
      "stateMutability": "nonpayable",
      "type": "function"
    },
    {
      "constant": true,
      "inputs": [],
      "name": "decimals",
      "outputs": [
        {
          "name": "",
          "type": "uint256"
        }
      ],
      "payable": false,
      "stateMutability": "view",
      "type": "function"
    },
    {
      "constant": false,
      "inputs": [
        {
          "name": "spender",
          "type": "address"
        },
        {
          "name": "addedValue",
          "type": "uint256"
        }
      ],
      "name": "increaseAllowance",
      "outputs": [
        {
          "name": "",
          "type": "bool"
        }
      ],
      "payable": false,
      "stateMutability": "nonpayable",
      "type": "function"
    },
    {
      "constant": true,
      "inputs": [
        {
          "name": "owner",
          "type": "address"
        }
      ],
      "name": "balanceOf",
      "outputs": [
        {
          "name": "",
          "type": "uint256"
        }
      ],
      "payable": false,
      "stateMutability": "view",
      "type": "function"
    },
    {
      "constant": true,
      "inputs": [],
      "name": "symbol",
      "outputs": [
        {
          "name": "",
          "type": "bytes32"
        }
      ],
      "payable": false,
      "stateMutability": "view",
      "type": "function"
    },
    {
      "constant": false,
      "inputs": [
        {
          "name": "spender",
          "type": "address"
        },
        {
          "name": "subtractedValue",
          "type": "uint256"
        }
      ],
      "name": "decreaseAllowance",
      "outputs": [
        {
          "name": "",
          "type": "bool"
        }
      ],
      "payable": false,
      "stateMutability": "nonpayable",
      "type": "function"
    },
    {
      "constant": false,
      "inputs": [
        {
          "name": "to",
          "type": "address"
        },
        {
          "name": "value",
          "type": "uint256"
        }
      ],
      "name": "transfer",
      "outputs": [
        {
          "name": "",
          "type": "bool"
        }
      ],
      "payable": false,
      "stateMutability": "nonpayable",
      "type": "function"
    },
    {
      "constant": true,
      "inputs": [
        {
          "name": "owner",
          "type": "address"
        },
        {
          "name": "spender",
          "type": "address"
        }
      ],
      "name": "allowance",
      "outputs": [
        {
          "name": "",
          "type": "uint256"
        }
      ],
      "payable": false,
      "stateMutability": "view",
      "type": "function"
    },
    {
      "payable": true,
      "stateMutability": "payable",
      "type": "fallback"
    },
    {
      "anonymous": false,
      "inputs": [
        {
          "indexed": true,
          "name": "buyer",
          "type": "address"
        },
        {
          "indexed": true,
          "name": "eth_sold",
          "type": "uint256"
        },
        {
          "indexed": true,
          "name": "tokens_bought",
          "type": "uint256"
        }
      ],
      "name": "TokenPurchase",
      "type": "event"
    },
    {
      "anonymous": false,
      "inputs": [
        {
          "indexed": true,
          "name": "buyer",
          "type": "address"
        },
        {
          "indexed": true,
          "name": "tokens_sold",
          "type": "uint256"
        },
        {
          "indexed": true,
          "name": "eth_bought",
          "type": "uint256"
        }
      ],
      "name": "EthPurchase",
      "type": "event"
    },
    {
      "anonymous": false,
      "inputs": [
        {
          "indexed": true,
          "name": "provider",
          "type": "address"
        },
        {
          "indexed": true,
          "name": "eth_amount",
          "type": "uint256"
        },
        {
          "indexed": true,
          "name": "token_amount",
          "type": "uint256"
        }
      ],
      "name": "AddLiquidity",
      "type": "event"
    },
    {
      "anonymous": false,
      "inputs": [
        {
          "indexed": true,
          "name": "provider",
          "type": "address"
        },
        {
          "indexed": true,
          "name": "eth_amount",
          "type": "uint256"
        },
        {
          "indexed": true,
          "name": "token_amount",
          "type": "uint256"
        }
      ],
      "name": "RemoveLiquidity",
      "type": "event"
    },
    {
      "anonymous": false,
      "inputs": [
        {
          "indexed": true,
          "name": "from",
          "type": "address"
        },
        {
          "indexed": true,
          "name": "to",
          "type": "address"
        },
        {
          "indexed": false,
          "name": "value",
          "type": "uint256"
        }
      ],
      "name": "Transfer",
      "type": "event"
    },
    {
      "anonymous": false,
      "inputs": [
        {
          "indexed": true,
          "name": "owner",
          "type": "address"
        },
        {
          "indexed": true,
          "name": "spender",
          "type": "address"
        },
        {
          "indexed": false,
          "name": "value",
          "type": "uint256"
        }
      ],
      "name": "Approval",
      "type": "event"
    },
    {
      "constant": false,
      "inputs": [
        {
          "name": "token_addr",
          "type": "address"
        }
      ],
      "name": "setup",
      "outputs": [],
      "payable": false,
      "stateMutability": "nonpayable",
      "type": "function"
    },
    {
      "constant": true,
      "inputs": [
        {
          "name": "input_amount",
          "type": "uint256"
        },
        {
          "name": "input_reserve",
          "type": "uint256"
        },
        {
          "name": "output_reserve",
          "type": "uint256"
        }
      ],
      "name": "getInputPrice",
      "outputs": [
        {
          "name": "",
          "type": "uint256"
        }
      ],
      "payable": false,
      "stateMutability": "pure",
      "type": "function"
    },
    {
      "constant": true,
      "inputs": [
        {
          "name": "output_amount",
          "type": "uint256"
        },
        {
          "name": "input_reserve",
          "type": "uint256"
        },
        {
          "name": "output_reserve",
          "type": "uint256"
        }
      ],
      "name": "getOutputPrice",
      "outputs": [
        {
          "name": "",
          "type": "uint256"
        }
      ],
      "payable": false,
      "stateMutability": "pure",
      "type": "function"
    },
    {
      "constant": false,
      "inputs": [
        {
          "name": "min_tokens",
          "type": "uint256"
        },
        {
          "name": "deadline",
          "type": "uint256"
        }
      ],
      "name": "ethToTokenSwapInput",
      "outputs": [
        {
          "name": "",
          "type": "uint256"
        }
      ],
      "payable": true,
      "stateMutability": "payable",
      "type": "function"
    },
    {
      "constant": false,
      "inputs": [
        {
          "name": "min_tokens",
          "type": "uint256"
        },
        {
          "name": "deadline",
          "type": "uint256"
        },
        {
          "name": "recipient",
          "type": "address"
        }
      ],
      "name": "ethToTokenTransferInput",
      "outputs": [
        {
          "name": "",
          "type": "uint256"
        }
      ],
      "payable": true,
      "stateMutability": "payable",
      "type": "function"
    },
    {
      "constant": false,
      "inputs": [
        {
          "name": "tokens_bought",
          "type": "uint256"
        },
        {
          "name": "deadline",
          "type": "uint256"
        }
      ],
      "name": "ethToTokenSwapOutput",
      "outputs": [
        {
          "name": "",
          "type": "uint256"
        }
      ],
      "payable": true,
      "stateMutability": "payable",
      "type": "function"
    },
    {
      "constant": false,
      "inputs": [
        {
          "name": "tokens_bought",
          "type": "uint256"
        },
        {
          "name": "deadline",
          "type": "uint256"
        },
        {
          "name": "recipient",
          "type": "address"
        }
      ],
      "name": "ethToTokenTransferOutput",
      "outputs": [
        {
          "name": "",
          "type": "uint256"
        }
      ],
      "payable": true,
      "stateMutability": "payable",
      "type": "function"
    },
    {
      "constant": false,
      "inputs": [
        {
          "name": "tokens_sold",
          "type": "uint256"
        },
        {
          "name": "min_eth",
          "type": "uint256"
        },
        {
          "name": "deadline",
          "type": "uint256"
        }
      ],
      "name": "tokenToEthSwapInput",
      "outputs": [
        {
          "name": "",
          "type": "uint256"
        }
      ],
      "payable": false,
      "stateMutability": "nonpayable",
      "type": "function"
    },
    {
      "constant": false,
      "inputs": [
        {
          "name": "tokens_sold",
          "type": "uint256"
        },
        {
          "name": "min_eth",
          "type": "uint256"
        },
        {
          "name": "deadline",
          "type": "uint256"
        },
        {
          "name": "recipient",
          "type": "address"
        }
      ],
      "name": "tokenToEthTransferInput",
      "outputs": [
        {
          "name": "",
          "type": "uint256"
        }
      ],
      "payable": false,
      "stateMutability": "nonpayable",
      "type": "function"
    },
    {
      "constant": false,
      "inputs": [
        {
          "name": "eth_bought",
          "type": "uint256"
        },
        {
          "name": "max_tokens",
          "type": "uint256"
        },
        {
          "name": "deadline",
          "type": "uint256"
        }
      ],
      "name": "tokenToEthSwapOutput",
      "outputs": [
        {
          "name": "",
          "type": "uint256"
        }
      ],
      "payable": false,
      "stateMutability": "nonpayable",
      "type": "function"
    },
    {
      "constant": false,
      "inputs": [
        {
          "name": "eth_bought",
          "type": "uint256"
        },
        {
          "name": "max_tokens",
          "type": "uint256"
        },
        {
          "name": "deadline",
          "type": "uint256"
        },
        {
          "name": "recipient",
          "type": "address"
        }
      ],
      "name": "tokenToEthTransferOutput",
      "outputs": [
        {
          "name": "",
          "type": "uint256"
        }
      ],
      "payable": false,
      "stateMutability": "nonpayable",
      "type": "function"
    },
    {
      "constant": false,
      "inputs": [
        {
          "name": "tokens_sold",
          "type": "uint256"
        },
        {
          "name": "min_tokens_bought",
          "type": "uint256"
        },
        {
          "name": "min_eth_bought",
          "type": "uint256"
        },
        {
          "name": "deadline",
          "type": "uint256"
        },
        {
          "name": "token_addr",
          "type": "address"
        }
      ],
      "name": "tokenToTokenSwapInput",
      "outputs": [
        {
          "name": "",
          "type": "uint256"
        }
      ],
      "payable": false,
      "stateMutability": "nonpayable",
      "type": "function"
    },
    {
      "constant": false,
      "inputs": [
        {
          "name": "tokens_sold",
          "type": "uint256"
        },
        {
          "name": "min_tokens_bought",
          "type": "uint256"
        },
        {
          "name": "min_eth_bought",
          "type": "uint256"
        },
        {
          "name": "deadline",
          "type": "uint256"
        },
        {
          "name": "recipient",
          "type": "address"
        },
        {
          "name": "token_addr",
          "type": "address"
        }
      ],
      "name": "tokenToTokenTransferInput",
      "outputs": [
        {
          "name": "",
          "type": "uint256"
        }
      ],
      "payable": false,
      "stateMutability": "nonpayable",
      "type": "function"
    },
    {
      "constant": false,
      "inputs": [
        {
          "name": "tokens_bought",
          "type": "uint256"
        },
        {
          "name": "max_tokens_sold",
          "type": "uint256"
        },
        {
          "name": "max_eth_sold",
          "type": "uint256"
        },
        {
          "name": "deadline",
          "type": "uint256"
        },
        {
          "name": "token_addr",
          "type": "address"
        }
      ],
      "name": "tokenToTokenSwapOutput",
      "outputs": [
        {
          "name": "",
          "type": "uint256"
        }
      ],
      "payable": false,
      "stateMutability": "nonpayable",
      "type": "function"
    },
    {
      "constant": false,
      "inputs": [
        {
          "name": "tokens_bought",
          "type": "uint256"
        },
        {
          "name": "max_tokens_sold",
          "type": "uint256"
        },
        {
          "name": "max_eth_sold",
          "type": "uint256"
        },
        {
          "name": "deadline",
          "type": "uint256"
        },
        {
          "name": "recipient",
          "type": "address"
        },
        {
          "name": "token_addr",
          "type": "address"
        }
      ],
      "name": "tokenToTokenTransferOutput",
      "outputs": [
        {
          "name": "",
          "type": "uint256"
        }
      ],
      "payable": false,
      "stateMutability": "nonpayable",
      "type": "function"
    },
    {
      "constant": false,
      "inputs": [
        {
          "name": "tokens_sold",
          "type": "uint256"
        },
        {
          "name": "min_tokens_bought",
          "type": "uint256"
        },
        {
          "name": "min_eth_bought",
          "type": "uint256"
        },
        {
          "name": "deadline",
          "type": "uint256"
        },
        {
          "name": "exchange_addr",
          "type": "address"
        }
      ],
      "name": "tokenToExchangeSwapInput",
      "outputs": [
        {
          "name": "",
          "type": "uint256"
        }
      ],
      "payable": false,
      "stateMutability": "nonpayable",
      "type": "function"
    },
    {
      "constant": false,
      "inputs": [
        {
          "name": "tokens_sold",
          "type": "uint256"
        },
        {
          "name": "min_tokens_bought",
          "type": "uint256"
        },
        {
          "name": "min_eth_bought",
          "type": "uint256"
        },
        {
          "name": "deadline",
          "type": "uint256"
        },
        {
          "name": "recipient",
          "type": "address"
        },
        {
          "name": "exchange_addr",
          "type": "address"
        }
      ],
      "name": "tokenToExchangeTransferInput",
      "outputs": [
        {
          "name": "",
          "type": "uint256"
        }
      ],
      "payable": false,
      "stateMutability": "nonpayable",
      "type": "function"
    },
    {
      "constant": false,
      "inputs": [
        {
          "name": "tokens_bought",
          "type": "uint256"
        },
        {
          "name": "max_tokens_sold",
          "type": "uint256"
        },
        {
          "name": "max_eth_sold",
          "type": "uint256"
        },
        {
          "name": "deadline",
          "type": "uint256"
        },
        {
          "name": "exchange_addr",
          "type": "address"
        }
      ],
      "name": "tokenToExchangeSwapOutput",
      "outputs": [
        {
          "name": "",
          "type": "uint256"
        }
      ],
      "payable": false,
      "stateMutability": "nonpayable",
      "type": "function"
    },
    {
      "constant": false,
      "inputs": [
        {
          "name": "tokens_bought",
          "type": "uint256"
        },
        {
          "name": "max_tokens_sold",
          "type": "uint256"
        },
        {
          "name": "max_eth_sold",
          "type": "uint256"
        },
        {
          "name": "deadline",
          "type": "uint256"
        },
        {
          "name": "recipient",
          "type": "address"
        },
        {
          "name": "exchange_addr",
          "type": "address"
        }
      ],
      "name": "tokenToExchangeTransferOutput",
      "outputs": [
        {
          "name": "",
          "type": "uint256"
        }
      ],
      "payable": false,
      "stateMutability": "nonpayable",
      "type": "function"
    },
    {
      "constant": true,
      "inputs": [
        {
          "name": "eth_sold",
          "type": "uint256"
        }
      ],
      "name": "getEthToTokenInputPrice",
      "outputs": [
        {
          "name": "",
          "type": "uint256"
        }
      ],
      "payable": false,
      "stateMutability": "view",
      "type": "function"
    },
    {
      "constant": true,
      "inputs": [
        {
          "name": "tokens_bought",
          "type": "uint256"
        }
      ],
      "name": "getEthToTokenOutputPrice",
      "outputs": [
        {
          "name": "",
          "type": "uint256"
        }
      ],
      "payable": false,
      "stateMutability": "view",
      "type": "function"
    },
    {
      "constant": true,
      "inputs": [
        {
          "name": "tokens_sold",
          "type": "uint256"
        }
      ],
      "name": "getTokenToEthInputPrice",
      "outputs": [
        {
          "name": "",
          "type": "uint256"
        }
      ],
      "payable": false,
      "stateMutability": "view",
      "type": "function"
    },
    {
      "constant": true,
      "inputs": [
        {
          "name": "eth_bought",
          "type": "uint256"
        }
      ],
      "name": "getTokenToEthOutputPrice",
      "outputs": [
        {
          "name": "",
          "type": "uint256"
        }
      ],
      "payable": false,
      "stateMutability": "view",
      "type": "function"
    },
    {
      "constant": true,
      "inputs": [],
      "name": "tokenAddress",
      "outputs": [
        {
          "name": "",
          "type": "address"
        }
      ],
      "payable": false,
      "stateMutability": "view",
      "type": "function"
    },
    {
      "constant": true,
      "inputs": [],
      "name": "factoryAddress",
      "outputs": [
        {
          "name": "",
          "type": "address"
        }
      ],
      "payable": false,
      "stateMutability": "view",
      "type": "function"
    },
    {
      "constant": false,
      "inputs": [
        {
          "name": "min_liquidity",
          "type": "uint256"
        },
        {
          "name": "max_tokens",
          "type": "uint256"
        },
        {
          "name": "deadline",
          "type": "uint256"
        }
      ],
      "name": "addLiquidity",
      "outputs": [
        {
          "name": "",
          "type": "uint256"
        }
      ],
      "payable": true,
      "stateMutability": "payable",
      "type": "function"
    },
    {
      "constant": false,
      "inputs": [
        {
          "name": "amount",
          "type": "uint256"
        },
        {
          "name": "min_eth",
          "type": "uint256"
        },
        {
          "name": "min_tokens",
          "type": "uint256"
        },
        {
          "name": "deadline",
          "type": "uint256"
        }
      ],
      "name": "removeLiquidity",
      "outputs": [
        {
          "name": "",
          "type": "uint256"
        },
        {
          "name": "",
          "type": "uint256"
        }
      ],
      "payable": false,
      "stateMutability": "nonpayable",
      "type": "function"
    }
  ],
  "bytecode": "0x608060405234801561001057600080fd5b50614b7d806100206000396000f3fe6080604052600436106102255760003560e01c8063966dae0e11610123578063d4e4841d116100ab578063f39b5b9b1161006f578063f39b5b9b14610f9d578063f3c0efe914610fe9578063f552d91b14611096578063f88bf15a14611143578063fd11c223146111b757610225565b8063d4e4841d14610cce578063dd62ed3e14610d51578063ddf7e1a714610dd6578063ea650c7d14610e63578063ec384a3e14610ef057610225565b8063a9059cbb116100f2578063a9059cbb14610a86578063ad65d76d14610af9578063b040d54514610b65578063b1cb43bf14610bf2578063cd7724c314610c7f57610225565b8063966dae0e146108b8578063981a13271461090f5780639d76ea58146109bc578063a457c2d714610a1357610225565b8063422f1043116101b15780637237e031116101755780637237e031146106f557806389f2a8711461077857806395b68fe7146107db57806395d89b411461082a57806395e3c50b1461085557610225565b8063422f10431461054e57806359e94862146105a457806366d38203146105f35780636b1d4db71461064457806370a082311461069057610225565b806318160ddd116101f857806318160ddd146103a357806323b872dd146103ce5780632640f62c14610461578063313ce567146104b057806339509351146104db57610225565b8063013efd8b1461023657806306fdde0314610299578063095ea7b3146102c45780630b57363814610337575b61023334600142333361121a565b50005b34801561024257600080fd5b506102836004803603606081101561025957600080fd5b810190808035906020019092919080359060200190929190803590602001909291905050506114a4565b6040518082815260200191505060405180910390f35b3480156102a557600080fd5b506102ae6114bc565b6040518082815260200191505060405180910390f35b3480156102d057600080fd5b5061031d600480360360408110156102e757600080fd5b81019080803573ffffffffffffffffffffffffffffffffffffffff169060200190929190803590602001909291905050506114c2565b604051808215151515815260200191505060405180910390f35b61038d6004803603606081101561034d57600080fd5b810190808035906020019092919080359060200190929190803573ffffffffffffffffffffffffffffffffffffffff1690602001909291905050506114d9565b6040518082815260200191505060405180910390f35b3480156103af57600080fd5b506103b8611563565b6040518082815260200191505060405180910390f35b3480156103da57600080fd5b50610447600480360360608110156103f157600080fd5b81019080803573ffffffffffffffffffffffffffffffffffffffff169060200190929190803573ffffffffffffffffffffffffffffffffffffffff1690602001909291908035906020019092919050505061156d565b604051808215151515815260200191505060405180910390f35b34801561046d57600080fd5b5061049a6004803603602081101561048457600080fd5b810190808035906020019092919050505061161e565b6040518082815260200191505060405180910390f35b3480156104bc57600080fd5b506104c5611734565b6040518082815260200191505060405180910390f35b3480156104e757600080fd5b50610534600480360360408110156104fe57600080fd5b81019080803573ffffffffffffffffffffffffffffffffffffffff1690602001909291908035906020019092919050505061173a565b604051808215151515815260200191505060405180910390f35b61058e6004803603606081101561056457600080fd5b810190808035906020019092919080359060200190929190803590602001909291905050506117df565b6040518082815260200191505060405180910390f35b3480156105b057600080fd5b506105dd600480360360208110156105c757600080fd5b8101908080359060200190929190505050612113565b6040518082815260200191505060405180910390f35b3480156105ff57600080fd5b506106426004803603602081101561061657600080fd5b81019080803573ffffffffffffffffffffffffffffffffffffffff16906020019092919050505061222f565b005b61067a6004803603604081101561065a57600080fd5b810190808035906020019092919080359060200190929190505050612467565b6040518082815260200191505060405180910390f35b34801561069c57600080fd5b506106df600480360360208110156106b357600080fd5b81019080803573ffffffffffffffffffffffffffffffffffffffff16906020019092919050505061247e565b6040518082815260200191505060405180910390f35b34801561070157600080fd5b506107626004803603608081101561071857600080fd5b81019080803590602001909291908035906020019092919080359060200190929190803573ffffffffffffffffffffffffffffffffffffffff1690602001909291905050506124c6565b6040518082815260200191505060405180910390f35b34801561078457600080fd5b506107c56004803603606081101561079b57600080fd5b81019080803590602001909291908035906020019092919080359060200190929190505050612551565b6040518082815260200191505060405180910390f35b3480156107e757600080fd5b50610814600480360360208110156107fe57600080fd5b8101908080359060200190929190505050612645565b6040518082815260200191505060405180910390f35b34801561083657600080fd5b5061083f612761565b6040518082815260200191505060405180910390f35b34801561086157600080fd5b506108a26004803603606081101561087857600080fd5b81019080803590602001909291908035906020019092919080359060200190929190505050612767565b6040518082815260200191505060405180910390f35b3480156108c457600080fd5b506108cd61277f565b604051808273ffffffffffffffffffffffffffffffffffffffff1673ffffffffffffffffffffffffffffffffffffffff16815260200191505060405180910390f35b34801561091b57600080fd5b506109a6600480360360c081101561093257600080fd5b8101908080359060200190929190803590602001909291908035906020019092919080359060200190929190803573ffffffffffffffffffffffffffffffffffffffff169060200190929190803573ffffffffffffffffffffffffffffffffffffffff1690602001909291905050506127a9565b6040518082815260200191505060405180910390f35b3480156109c857600080fd5b506109d16127ff565b604051808273ffffffffffffffffffffffffffffffffffffffff1673ffffffffffffffffffffffffffffffffffffffff16815260200191505060405180910390f35b348015610a1f57600080fd5b50610a6c60048036036040811015610a3657600080fd5b81019080803573ffffffffffffffffffffffffffffffffffffffff16906020019092919080359060200190929190505050612829565b604051808215151515815260200191505060405180910390f35b348015610a9257600080fd5b50610adf60048036036040811015610aa957600080fd5b81019080803573ffffffffffffffffffffffffffffffffffffffff169060200190929190803590602001909291905050506128ce565b604051808215151515815260200191505060405180910390f35b610b4f60048036036060811015610b0f57600080fd5b810190808035906020019092919080359060200190929190803573ffffffffffffffffffffffffffffffffffffffff1690602001909291905050506128e5565b6040518082815260200191505060405180910390f35b348015610b7157600080fd5b50610bdc600480360360a0811015610b8857600080fd5b8101908080359060200190929190803590602001909291908035906020019092919080359060200190929190803573ffffffffffffffffffffffffffffffffffffffff16906020019092919050505061296f565b6040518082815260200191505060405180910390f35b348015610bfe57600080fd5b50610c69600480360360a0811015610c1557600080fd5b8101908080359060200190929190803590602001909291908035906020019092919080359060200190929190803573ffffffffffffffffffffffffffffffffffffffff169060200190929190505050612a69565b6040518082815260200191505060405180910390f35b348015610c8b57600080fd5b50610cb860048036036020811015610ca257600080fd5b8101908080359060200190929190505050612a85565b6040518082815260200191505060405180910390f35b348015610cda57600080fd5b50610d3b60048036036080811015610cf157600080fd5b81019080803590602001909291908035906020019092919080359060200190929190803573ffffffffffffffffffffffffffffffffffffffff169060200190929190505050612b9b565b6040518082815260200191505060405180910390f35b348015610d5d57600080fd5b50610dc060048036036040811015610d7457600080fd5b81019080803573ffffffffffffffffffffffffffffffffffffffff169060200190929190803573ffffffffffffffffffffffffffffffffffffffff169060200190929190505050612c26565b6040518082815260200191505060405180910390f35b348015610de257600080fd5b50610e4d600480360360a0811015610df957600080fd5b8101908080359060200190929190803590602001909291908035906020019092919080359060200190929190803573ffffffffffffffffffffffffffffffffffffffff169060200190929190505050612cad565b6040518082815260200191505060405180910390f35b348015610e6f57600080fd5b50610eda600480360360a0811015610e8657600080fd5b8101908080359060200190929190803590602001909291908035906020019092919080359060200190929190803573ffffffffffffffffffffffffffffffffffffffff169060200190929190505050612da7565b6040518082815260200191505060405180910390f35b348015610efc57600080fd5b50610f87600480360360c0811015610f1357600080fd5b8101908080359060200190929190803590602001909291908035906020019092919080359060200190929190803573ffffffffffffffffffffffffffffffffffffffff169060200190929190803573ffffffffffffffffffffffffffffffffffffffff169060200190929190505050612dc3565b6040518082815260200191505060405180910390f35b610fd360048036036040811015610fb357600080fd5b810190808035906020019092919080359060200190929190505050612e19565b6040518082815260200191505060405180910390f35b348015610ff557600080fd5b50611080600480360360c081101561100c57600080fd5b8101908080359060200190929190803590602001909291908035906020019092919080359060200190929190803573ffffffffffffffffffffffffffffffffffffffff169060200190929190803573ffffffffffffffffffffffffffffffffffffffff169060200190929190505050612e30565b6040518082815260200191505060405180910390f35b3480156110a257600080fd5b5061112d600480360360c08110156110b957600080fd5b8101908080359060200190929190803590602001909291908035906020019092919080359060200190929190803573ffffffffffffffffffffffffffffffffffffffff169060200190929190803573ffffffffffffffffffffffffffffffffffffffff169060200190929190505050612f2b565b6040518082815260200191505060405180910390f35b34801561114f57600080fd5b5061119a6004803603608081101561116657600080fd5b8101908080359060200190929190803590602001909291908035906020019092919080359060200190929190505050613026565b604051808381526020018281526020019250505060405180910390f35b3480156111c357600080fd5b50611204600480360360608110156111da57600080fd5b81019080803590602001909291908035906020019092919080359060200190929190505050613459565b6040518082815260200191505060405180910390f35b600042841015801561122c5750600086115b80156112385750600085115b61124157600080fd5b6000600660009054906101000a900473ffffffffffffffffffffffffffffffffffffffff1673ffffffffffffffffffffffffffffffffffffffff166370a08231306040518263ffffffff1660e01b8152600401808273ffffffffffffffffffffffffffffffffffffffff1673ffffffffffffffffffffffffffffffffffffffff16815260200191505060206040518083038186803b1580156112e257600080fd5b505afa1580156112f6573d6000803e3d6000fd5b505050506040513d602081101561130c57600080fd5b8101908080519060200190929190505050905060006113558861134f8a3073ffffffffffffffffffffffffffffffffffffffff16316134f190919063ffffffff16565b84612551565b90508681101561136457600080fd5b600660009054906101000a900473ffffffffffffffffffffffffffffffffffffffff1673ffffffffffffffffffffffffffffffffffffffff1663a9059cbb85836040518363ffffffff1660e01b8152600401808373ffffffffffffffffffffffffffffffffffffffff1673ffffffffffffffffffffffffffffffffffffffff16815260200182815260200192505050602060405180830381600087803b15801561140d57600080fd5b505af1158015611421573d6000803e3d6000fd5b505050506040513d602081101561143757600080fd5b810190808051906020019092919050505061145157600080fd5b80888673ffffffffffffffffffffffffffffffffffffffff167fcd60aa75dea3072fbc07ae6d7d856b5dc5f4eee88854f5b4abf7b680ef8bc50f60405160405180910390a4809250505095945050505050565b60006114b3848484333361357a565b90509392505050565b60035481565b60006114cf338484613861565b6001905092915050565b60003073ffffffffffffffffffffffffffffffffffffffff168273ffffffffffffffffffffffffffffffffffffffff16141580156115445750600073ffffffffffffffffffffffffffffffffffffffff168273ffffffffffffffffffffffffffffffffffffffff1614155b61154d57600080fd5b61155a84348533866139c0565b90509392505050565b6000600254905090565b600061157a848484613ca6565b611613843361160e85600160008a73ffffffffffffffffffffffffffffffffffffffff1673ffffffffffffffffffffffffffffffffffffffff16815260200190815260200160002060003373ffffffffffffffffffffffffffffffffffffffff1673ffffffffffffffffffffffffffffffffffffffff168152602001908152602001600020546134f190919063ffffffff16565b613861565b600190509392505050565b600080821161162c57600080fd5b6000600660009054906101000a900473ffffffffffffffffffffffffffffffffffffffff1673ffffffffffffffffffffffffffffffffffffffff166370a08231306040518263ffffffff1660e01b8152600401808273ffffffffffffffffffffffffffffffffffffffff1673ffffffffffffffffffffffffffffffffffffffff16815260200191505060206040518083038186803b1580156116cd57600080fd5b505afa1580156116e1573d6000803e3d6000fd5b505050506040513d60208110156116f757600080fd5b8101908080519060200190929190505050905061172c83823073ffffffffffffffffffffffffffffffffffffffff1631613459565b915050919050565b60055481565b60006117d533846117d085600160003373ffffffffffffffffffffffffffffffffffffffff1673ffffffffffffffffffffffffffffffffffffffff16815260200190815260200160002060008973ffffffffffffffffffffffffffffffffffffffff1673ffffffffffffffffffffffffffffffffffffffff16815260200190815260200160002054613e7090919063ffffffff16565b613861565b6001905092915050565b600042821180156117f05750600083115b80156117fc5750600034115b611851576040517f08c379a000000000000000000000000000000000000000000000000000000000815260040180806020018281038252602e815260200180614b24602e913960400191505060405180910390fd5b600060025490506000811115611c6b576000851161186e57600080fd5b600061189a343073ffffffffffffffffffffffffffffffffffffffff16316134f190919063ffffffff16565b90506000600660009054906101000a900473ffffffffffffffffffffffffffffffffffffffff1673ffffffffffffffffffffffffffffffffffffffff166370a08231306040518263ffffffff1660e01b8152600401808273ffffffffffffffffffffffffffffffffffffffff1673ffffffffffffffffffffffffffffffffffffffff16815260200191505060206040518083038186803b15801561193d57600080fd5b505afa158015611951573d6000803e3d6000fd5b505050506040513d602081101561196757600080fd5b8101908080519060200190929190505050905060006119ab6001846119958534613ef890919063ffffffff16565b8161199c57fe5b04613e7090919063ffffffff16565b90506000836119c38634613ef890919063ffffffff16565b816119ca57fe5b0490508188101580156119dd5750888110155b6119e657600080fd5b611a37816000803373ffffffffffffffffffffffffffffffffffffffff1673ffffffffffffffffffffffffffffffffffffffff16815260200190815260200160002054613e7090919063ffffffff16565b6000803373ffffffffffffffffffffffffffffffffffffffff1673ffffffffffffffffffffffffffffffffffffffff16815260200190815260200160002081905550611a8c8186613e7090919063ffffffff16565b600281905550600660009054906101000a900473ffffffffffffffffffffffffffffffffffffffff1673ffffffffffffffffffffffffffffffffffffffff166323b872dd3330856040518463ffffffff1660e01b8152600401808473ffffffffffffffffffffffffffffffffffffffff1673ffffffffffffffffffffffffffffffffffffffff1681526020018373ffffffffffffffffffffffffffffffffffffffff1673ffffffffffffffffffffffffffffffffffffffff1681526020018281526020019350505050602060405180830381600087803b158015611b6f57600080fd5b505af1158015611b83573d6000803e3d6000fd5b505050506040513d6020811015611b9957600080fd5b8101908080519060200190929190505050611bb357600080fd5b81343373ffffffffffffffffffffffffffffffffffffffff167f06239653922ac7bea6aa2b19dc486b9361821d37712eb796adfd38d81de278ca60405160405180910390a43373ffffffffffffffffffffffffffffffffffffffff16600073ffffffffffffffffffffffffffffffffffffffff167fddf252ad1be2c89b69c2b068fc378daa952ba7f163c4a11628f55a4df523b3ef836040518082815260200191505060405180910390a3809550505050505061210c565b600073ffffffffffffffffffffffffffffffffffffffff16600760009054906101000a900473ffffffffffffffffffffffffffffffffffffffff1673ffffffffffffffffffffffffffffffffffffffff1614158015611d195750600073ffffffffffffffffffffffffffffffffffffffff16600660009054906101000a900473ffffffffffffffffffffffffffffffffffffffff1673ffffffffffffffffffffffffffffffffffffffff1614155b8015611d295750633b9aca003410155b611d9b576040517f08c379a000000000000000000000000000000000000000000000000000000000815260040180806020018281038252600d8152602001807f494e56414c49445f56414c55450000000000000000000000000000000000000081525060200191505060405180910390fd5b3073ffffffffffffffffffffffffffffffffffffffff16600760009054906101000a900473ffffffffffffffffffffffffffffffffffffffff1673ffffffffffffffffffffffffffffffffffffffff166306f2bf62600660009054906101000a900473ffffffffffffffffffffffffffffffffffffffff166040518263ffffffff1660e01b8152600401808273ffffffffffffffffffffffffffffffffffffffff1673ffffffffffffffffffffffffffffffffffffffff16815260200191505060206040518083038186803b158015611e7357600080fd5b505afa158015611e87573d6000803e3d6000fd5b505050506040513d6020811015611e9d57600080fd5b810190808051906020019092919050505073ffffffffffffffffffffffffffffffffffffffff1614611ece57600080fd5b600084905060003073ffffffffffffffffffffffffffffffffffffffff1631905080600281905550806000803373ffffffffffffffffffffffffffffffffffffffff1673ffffffffffffffffffffffffffffffffffffffff16815260200190815260200160002081905550600660009054906101000a900473ffffffffffffffffffffffffffffffffffffffff1673ffffffffffffffffffffffffffffffffffffffff166323b872dd3330856040518463ffffffff1660e01b8152600401808473ffffffffffffffffffffffffffffffffffffffff1673ffffffffffffffffffffffffffffffffffffffff1681526020018373ffffffffffffffffffffffffffffffffffffffff1673ffffffffffffffffffffffffffffffffffffffff1681526020018281526020019350505050602060405180830381600087803b15801561201657600080fd5b505af115801561202a573d6000803e3d6000fd5b505050506040513d602081101561204057600080fd5b810190808051906020019092919050505061205a57600080fd5b81343373ffffffffffffffffffffffffffffffffffffffff167f06239653922ac7bea6aa2b19dc486b9361821d37712eb796adfd38d81de278ca60405160405180910390a43373ffffffffffffffffffffffffffffffffffffffff16600073ffffffffffffffffffffffffffffffffffffffff167fddf252ad1be2c89b69c2b068fc378daa952ba7f163c4a11628f55a4df523b3ef836040518082815260200191505060405180910390a38093505050505b9392505050565b600080821161212157600080fd5b6000600660009054906101000a900473ffffffffffffffffffffffffffffffffffffffff1673ffffffffffffffffffffffffffffffffffffffff166370a08231306040518263ffffffff1660e01b8152600401808273ffffffffffffffffffffffffffffffffffffffff1673ffffffffffffffffffffffffffffffffffffffff16815260200191505060206040518083038186803b1580156121c257600080fd5b505afa1580156121d6573d6000803e3d6000fd5b505050506040513d60208110156121ec57600080fd5b810190808051906020019092919050505090506000612223843073ffffffffffffffffffffffffffffffffffffffff163184613459565b90508092505050919050565b600073ffffffffffffffffffffffffffffffffffffffff16600760009054906101000a900473ffffffffffffffffffffffffffffffffffffffff1673ffffffffffffffffffffffffffffffffffffffff161480156122db5750600073ffffffffffffffffffffffffffffffffffffffff16600660009054906101000a900473ffffffffffffffffffffffffffffffffffffffff1673ffffffffffffffffffffffffffffffffffffffff16145b80156123145750600073ffffffffffffffffffffffffffffffffffffffff168173ffffffffffffffffffffffffffffffffffffffff1614155b612386576040517f08c379a000000000000000000000000000000000000000000000000000000000815260040180806020018281038252600f8152602001807f494e56414c49445f41444452455353000000000000000000000000000000000081525060200191505060405180910390fd5b33600760006101000a81548173ffffffffffffffffffffffffffffffffffffffff021916908373ffffffffffffffffffffffffffffffffffffffff16021790555080600660006101000a81548173ffffffffffffffffffffffffffffffffffffffff021916908373ffffffffffffffffffffffffffffffffffffffff1602179055507f556e69737761702056310000000000000000000000000000000000000000000060001b6003819055507f554e492d5631000000000000000000000000000000000000000000000000000060001b600481905550601260058190555050565b600061247683348433336139c0565b905092915050565b60008060008373ffffffffffffffffffffffffffffffffffffffff1673ffffffffffffffffffffffffffffffffffffffff168152602001908152602001600020549050919050565b60003073ffffffffffffffffffffffffffffffffffffffff168273ffffffffffffffffffffffffffffffffffffffff16141580156125315750600073ffffffffffffffffffffffffffffffffffffffff168273ffffffffffffffffffffffffffffffffffffffff1614155b61253a57600080fd5b6125478585853386613f9b565b9050949350505050565b600080831180156125625750600082115b6125d4576040517f08c379a000000000000000000000000000000000000000000000000000000000815260040180806020018281038252600d8152602001807f494e56414c49445f56414c55450000000000000000000000000000000000000081525060200191505060405180910390fd5b60006125eb6103e586613ef890919063ffffffff16565b905060006126028483613ef890919063ffffffff16565b9050600061262d8361261f6103e889613ef890919063ffffffff16565b613e7090919063ffffffff16565b905080828161263857fe5b0493505050509392505050565b600080821161265357600080fd5b6000600660009054906101000a900473ffffffffffffffffffffffffffffffffffffffff1673ffffffffffffffffffffffffffffffffffffffff166370a08231306040518263ffffffff1660e01b8152600401808273ffffffffffffffffffffffffffffffffffffffff1673ffffffffffffffffffffffffffffffffffffffff16815260200191505060206040518083038186803b1580156126f457600080fd5b505afa158015612708573d6000803e3d6000fd5b505050506040513d602081101561271e57600080fd5b81019080805190602001909291905050509050600061275584833073ffffffffffffffffffffffffffffffffffffffff1631612551565b90508092505050919050565b60045481565b60006127768484843333613f9b565b90509392505050565b6000600760009054906101000a900473ffffffffffffffffffffffffffffffffffffffff16905090565b60003073ffffffffffffffffffffffffffffffffffffffff168373ffffffffffffffffffffffffffffffffffffffff1614156127e457600080fd5b6127f387878787338888614294565b90509695505050505050565b6000600660009054906101000a900473ffffffffffffffffffffffffffffffffffffffff16905090565b60006128c433846128bf85600160003373ffffffffffffffffffffffffffffffffffffffff1673ffffffffffffffffffffffffffffffffffffffff16815260200190815260200160002060008973ffffffffffffffffffffffffffffffffffffffff1673ffffffffffffffffffffffffffffffffffffffff168152602001908152602001600020546134f190919063ffffffff16565b613861565b6001905092915050565b60006128db338484613ca6565b6001905092915050565b60003073ffffffffffffffffffffffffffffffffffffffff168273ffffffffffffffffffffffffffffffffffffffff16141580156129505750600073ffffffffffffffffffffffffffffffffffffffff168273ffffffffffffffffffffffffffffffffffffffff1614155b61295957600080fd5b612966348585338661121a565b90509392505050565b600080600760009054906101000a900473ffffffffffffffffffffffffffffffffffffffff1673ffffffffffffffffffffffffffffffffffffffff166306f2bf62846040518263ffffffff1660e01b8152600401808273ffffffffffffffffffffffffffffffffffffffff1673ffffffffffffffffffffffffffffffffffffffff16815260200191505060206040518083038186803b158015612a1157600080fd5b505afa158015612a25573d6000803e3d6000fd5b505050506040513d6020811015612a3b57600080fd5b81019080805190602001909291905050509050612a5d87878787333387614294565b91505095945050505050565b6000612a7a86868686333388614721565b905095945050505050565b6000808211612a9357600080fd5b6000600660009054906101000a900473ffffffffffffffffffffffffffffffffffffffff1673ffffffffffffffffffffffffffffffffffffffff166370a08231306040518263ffffffff1660e01b8152600401808273ffffffffffffffffffffffffffffffffffffffff1673ffffffffffffffffffffffffffffffffffffffff16815260200191505060206040518083038186803b158015612b3457600080fd5b505afa158015612b48573d6000803e3d6000fd5b505050506040513d6020811015612b5e57600080fd5b81019080805190602001909291905050509050612b93833073ffffffffffffffffffffffffffffffffffffffff163183612551565b915050919050565b60003073ffffffffffffffffffffffffffffffffffffffff168273ffffffffffffffffffffffffffffffffffffffff1614158015612c065750600073ffffffffffffffffffffffffffffffffffffffff168273ffffffffffffffffffffffffffffffffffffffff1614155b612c0f57600080fd5b612c1c858585338661357a565b9050949350505050565b6000600160008473ffffffffffffffffffffffffffffffffffffffff1673ffffffffffffffffffffffffffffffffffffffff16815260200190815260200160002060008373ffffffffffffffffffffffffffffffffffffffff1673ffffffffffffffffffffffffffffffffffffffff16815260200190815260200160002054905092915050565b600080600760009054906101000a900473ffffffffffffffffffffffffffffffffffffffff1673ffffffffffffffffffffffffffffffffffffffff166306f2bf62846040518263ffffffff1660e01b8152600401808273ffffffffffffffffffffffffffffffffffffffff1673ffffffffffffffffffffffffffffffffffffffff16815260200191505060206040518083038186803b158015612d4f57600080fd5b505afa158015612d63573d6000803e3d6000fd5b505050506040513d6020811015612d7957600080fd5b81019080805190602001909291905050509050612d9b87878787333387614721565b91505095945050505050565b6000612db886868686333388614294565b905095945050505050565b60003073ffffffffffffffffffffffffffffffffffffffff168373ffffffffffffffffffffffffffffffffffffffff161415612dfe57600080fd5b612e0d87878787338888614721565b90509695505050505050565b6000612e28348484333361121a565b905092915050565b600080600760009054906101000a900473ffffffffffffffffffffffffffffffffffffffff1673ffffffffffffffffffffffffffffffffffffffff166306f2bf62846040518263ffffffff1660e01b8152600401808273ffffffffffffffffffffffffffffffffffffffff1673ffffffffffffffffffffffffffffffffffffffff16815260200191505060206040518083038186803b158015612ed257600080fd5b505afa158015612ee6573d6000803e3d6000fd5b505050506040513d6020811015612efc57600080fd5b81019080805190602001909291905050509050612f1e88888888338987614294565b9150509695505050505050565b600080600760009054906101000a900473ffffffffffffffffffffffffffffffffffffffff1673ffffffffffffffffffffffffffffffffffffffff166306f2bf62846040518263ffffffff1660e01b8152600401808273ffffffffffffffffffffffffffffffffffffffff1673ffffffffffffffffffffffffffffffffffffffff16815260200191505060206040518083038186803b158015612fcd57600080fd5b505afa158015612fe1573d6000803e3d6000fd5b505050506040513d6020811015612ff757600080fd5b8101908080519060200190929190505050905061301988888888338987614721565b9150509695505050505050565b60008060008611801561303857504283115b80156130445750600085115b80156130505750600084115b61305957600080fd5b600060025490506000811161306d57600080fd5b6000600660009054906101000a900473ffffffffffffffffffffffffffffffffffffffff1673ffffffffffffffffffffffffffffffffffffffff166370a08231306040518263ffffffff1660e01b8152600401808273ffffffffffffffffffffffffffffffffffffffff1673ffffffffffffffffffffffffffffffffffffffff16815260200191505060206040518083038186803b15801561310e57600080fd5b505afa158015613122573d6000803e3d6000fd5b505050506040513d602081101561313857600080fd5b810190808051906020019092919050505090506000826131783073ffffffffffffffffffffffffffffffffffffffff16318b613ef890919063ffffffff16565b8161317f57fe5b049050600083613198848c613ef890919063ffffffff16565b8161319f57fe5b0490508882101580156131b25750878110155b6131bb57600080fd5b61320c8a6000803373ffffffffffffffffffffffffffffffffffffffff1673ffffffffffffffffffffffffffffffffffffffff168152602001908152602001600020546134f190919063ffffffff16565b6000803373ffffffffffffffffffffffffffffffffffffffff1673ffffffffffffffffffffffffffffffffffffffff168152602001908152602001600020819055506132618a856134f190919063ffffffff16565b6002819055503373ffffffffffffffffffffffffffffffffffffffff166108fc839081150290604051600060405180830381858888f193505050501580156132ad573d6000803e3d6000fd5b50600660009054906101000a900473ffffffffffffffffffffffffffffffffffffffff1673ffffffffffffffffffffffffffffffffffffffff1663a9059cbb33836040518363ffffffff1660e01b8152600401808373ffffffffffffffffffffffffffffffffffffffff1673ffffffffffffffffffffffffffffffffffffffff16815260200182815260200192505050602060405180830381600087803b15801561335757600080fd5b505af115801561336b573d6000803e3d6000fd5b505050506040513d602081101561338157600080fd5b810190808051906020019092919050505061339b57600080fd5b80823373ffffffffffffffffffffffffffffffffffffffff167f0fbf06c058b90cb038a618f8c2acbf6145f8b3570fd1fa56abb8f0f3f05b36e860405160405180910390a4600073ffffffffffffffffffffffffffffffffffffffff163373ffffffffffffffffffffffffffffffffffffffff167fddf252ad1be2c89b69c2b068fc378daa952ba7f163c4a11628f55a4df523b3ef8c6040518082815260200191505060405180910390a38181955095505050505094509492505050565b6000808311801561346a5750600082115b61347357600080fd5b600061349c6103e861348e8787613ef890919063ffffffff16565b613ef890919063ffffffff16565b905060006134c76103e56134b988876134f190919063ffffffff16565b613ef890919063ffffffff16565b90506134e660018284816134d757fe5b04613e7090919063ffffffff16565b925050509392505050565b600082821115613569576040517f08c379a00000000000000000000000000000000000000000000000000000000081526004018080602001828103825260178152602001807f536166654d617468237375623a20554e444552464c4f5700000000000000000081525060200191505060405180910390fd5b600082840390508091505092915050565b600042841015801561358c5750600086115b61359557600080fd5b6000600660009054906101000a900473ffffffffffffffffffffffffffffffffffffffff1673ffffffffffffffffffffffffffffffffffffffff166370a08231306040518263ffffffff1660e01b8152600401808273ffffffffffffffffffffffffffffffffffffffff1673ffffffffffffffffffffffffffffffffffffffff16815260200191505060206040518083038186803b15801561363657600080fd5b505afa15801561364a573d6000803e3d6000fd5b505050506040513d602081101561366057600080fd5b81019080805190602001909291905050509050600061369788833073ffffffffffffffffffffffffffffffffffffffff1631613459565b9050808710156136a657600080fd5b8373ffffffffffffffffffffffffffffffffffffffff166108fc899081150290604051600060405180830381858888f193505050501580156136ec573d6000803e3d6000fd5b50600660009054906101000a900473ffffffffffffffffffffffffffffffffffffffff1673ffffffffffffffffffffffffffffffffffffffff166323b872dd8630846040518463ffffffff1660e01b8152600401808473ffffffffffffffffffffffffffffffffffffffff1673ffffffffffffffffffffffffffffffffffffffff1681526020018373ffffffffffffffffffffffffffffffffffffffff1673ffffffffffffffffffffffffffffffffffffffff1681526020018281526020019350505050602060405180830381600087803b1580156137ca57600080fd5b505af11580156137de573d6000803e3d6000fd5b505050506040513d60208110156137f457600080fd5b810190808051906020019092919050505061380e57600080fd5b87818673ffffffffffffffffffffffffffffffffffffffff167f7f4091b46c33e918a0f3aa42307641d17bb67029427a5369e54b35398423870560405160405180910390a4809250505095945050505050565b600073ffffffffffffffffffffffffffffffffffffffff168273ffffffffffffffffffffffffffffffffffffffff16141561389b57600080fd5b600073ffffffffffffffffffffffffffffffffffffffff168373ffffffffffffffffffffffffffffffffffffffff1614156138d557600080fd5b80600160008573ffffffffffffffffffffffffffffffffffffffff1673ffffffffffffffffffffffffffffffffffffffff16815260200190815260200160002060008473ffffffffffffffffffffffffffffffffffffffff1673ffffffffffffffffffffffffffffffffffffffff168152602001908152602001600020819055508173ffffffffffffffffffffffffffffffffffffffff168373ffffffffffffffffffffffffffffffffffffffff167f8c5be1e5ebec7d5bd14f71427d1e84f3dd0314c0f7b2291e5b200ac8c7c3b925836040518082815260200191505060405180910390a3505050565b60004284101580156139d25750600086115b80156139de5750600085115b6139e757600080fd5b6000600660009054906101000a900473ffffffffffffffffffffffffffffffffffffffff1673ffffffffffffffffffffffffffffffffffffffff166370a08231306040518263ffffffff1660e01b8152600401808273ffffffffffffffffffffffffffffffffffffffff1673ffffffffffffffffffffffffffffffffffffffff16815260200191505060206040518083038186803b158015613a8857600080fd5b505afa158015613a9c573d6000803e3d6000fd5b505050506040513d6020811015613ab257600080fd5b810190808051906020019092919050505090506000613afb88613af5893073ffffffffffffffffffffffffffffffffffffffff16316134f190919063ffffffff16565b84613459565b90506000613b1282896134f190919063ffffffff16565b90506000811115613b65578573ffffffffffffffffffffffffffffffffffffffff166108fc829081150290604051600060405180830381858888f19350505050158015613b63573d6000803e3d6000fd5b505b600660009054906101000a900473ffffffffffffffffffffffffffffffffffffffff1673ffffffffffffffffffffffffffffffffffffffff1663a9059cbb868b6040518363ffffffff1660e01b8152600401808373ffffffffffffffffffffffffffffffffffffffff1673ffffffffffffffffffffffffffffffffffffffff16815260200182815260200192505050602060405180830381600087803b158015613c0e57600080fd5b505af1158015613c22573d6000803e3d6000fd5b505050506040513d6020811015613c3857600080fd5b8101908080519060200190929190505050613c5257600080fd5b88828773ffffffffffffffffffffffffffffffffffffffff167fcd60aa75dea3072fbc07ae6d7d856b5dc5f4eee88854f5b4abf7b680ef8bc50f60405160405180910390a481935050505095945050505050565b600073ffffffffffffffffffffffffffffffffffffffff168273ffffffffffffffffffffffffffffffffffffffff161415613ce057600080fd5b613d31816000808673ffffffffffffffffffffffffffffffffffffffff1673ffffffffffffffffffffffffffffffffffffffff168152602001908152602001600020546134f190919063ffffffff16565b6000808573ffffffffffffffffffffffffffffffffffffffff1673ffffffffffffffffffffffffffffffffffffffff16815260200190815260200160002081905550613dc4816000808573ffffffffffffffffffffffffffffffffffffffff1673ffffffffffffffffffffffffffffffffffffffff16815260200190815260200160002054613e7090919063ffffffff16565b6000808473ffffffffffffffffffffffffffffffffffffffff1673ffffffffffffffffffffffffffffffffffffffff168152602001908152602001600020819055508173ffffffffffffffffffffffffffffffffffffffff168373ffffffffffffffffffffffffffffffffffffffff167fddf252ad1be2c89b69c2b068fc378daa952ba7f163c4a11628f55a4df523b3ef836040518082815260200191505060405180910390a3505050565b600080828401905083811015613eee576040517f08c379a00000000000000000000000000000000000000000000000000000000081526004018080602001828103825260168152602001807f536166654d617468236164643a204f564552464c4f570000000000000000000081525060200191505060405180910390fd5b8091505092915050565b600080831415613f0b5760009050613f95565b6000828402905082848281613f1c57fe5b0414613f90576040517f08c379a00000000000000000000000000000000000000000000000000000000081526004018080602001828103825260168152602001807f536166654d617468236d756c3a204f564552464c4f570000000000000000000081525060200191505060405180910390fd5b809150505b92915050565b6000428410158015613fad5750600086115b8015613fb95750600085115b613fc257600080fd5b6000600660009054906101000a900473ffffffffffffffffffffffffffffffffffffffff1673ffffffffffffffffffffffffffffffffffffffff166370a08231306040518263ffffffff1660e01b8152600401808273ffffffffffffffffffffffffffffffffffffffff1673ffffffffffffffffffffffffffffffffffffffff16815260200191505060206040518083038186803b15801561406357600080fd5b505afa158015614077573d6000803e3d6000fd5b505050506040513d602081101561408d57600080fd5b8101908080519060200190929190505050905060006140c488833073ffffffffffffffffffffffffffffffffffffffff1631612551565b90506000819050878110156140d857600080fd5b8473ffffffffffffffffffffffffffffffffffffffff166108fc829081150290604051600060405180830381858888f1935050505015801561411e573d6000803e3d6000fd5b50600660009054906101000a900473ffffffffffffffffffffffffffffffffffffffff1673ffffffffffffffffffffffffffffffffffffffff166323b872dd87308c6040518463ffffffff1660e01b8152600401808473ffffffffffffffffffffffffffffffffffffffff1673ffffffffffffffffffffffffffffffffffffffff1681526020018373ffffffffffffffffffffffffffffffffffffffff1673ffffffffffffffffffffffffffffffffffffffff1681526020018281526020019350505050602060405180830381600087803b1580156141fc57600080fd5b505af1158015614210573d6000803e3d6000fd5b505050506040513d602081101561422657600080fd5b810190808051906020019092919050505061424057600080fd5b80898773ffffffffffffffffffffffffffffffffffffffff167f7f4091b46c33e918a0f3aa42307641d17bb67029427a5369e54b35398423870560405160405180910390a480935050505095945050505050565b60004285101580156142b257506000881180156142b15750600086115b5b6142bb57600080fd5b3073ffffffffffffffffffffffffffffffffffffffff168273ffffffffffffffffffffffffffffffffffffffff16141580156143245750600073ffffffffffffffffffffffffffffffffffffffff168273ffffffffffffffffffffffffffffffffffffffff1614155b61432d57600080fd5b60008273ffffffffffffffffffffffffffffffffffffffff166359e948628a6040518263ffffffff1660e01b81526004018082815260200191505060206040518083038186803b15801561438057600080fd5b505afa158015614394573d6000803e3d6000fd5b505050506040513d60208110156143aa57600080fd5b810190808051906020019092919050505090506000600660009054906101000a900473ffffffffffffffffffffffffffffffffffffffff1673ffffffffffffffffffffffffffffffffffffffff166370a08231306040518263ffffffff1660e01b8152600401808273ffffffffffffffffffffffffffffffffffffffff1673ffffffffffffffffffffffffffffffffffffffff16815260200191505060206040518083038186803b15801561445e57600080fd5b505afa158015614472573d6000803e3d6000fd5b505050506040513d602081101561448857600080fd5b8101908080519060200190929190505050905060006144bf83833073ffffffffffffffffffffffffffffffffffffffff1631613459565b9050808a101580156144d15750828910155b6144da57600080fd5b600660009054906101000a900473ffffffffffffffffffffffffffffffffffffffff1673ffffffffffffffffffffffffffffffffffffffff166323b872dd8830846040518463ffffffff1660e01b8152600401808473ffffffffffffffffffffffffffffffffffffffff1673ffffffffffffffffffffffffffffffffffffffff1681526020018373ffffffffffffffffffffffffffffffffffffffff1673ffffffffffffffffffffffffffffffffffffffff1681526020018281526020019350505050602060405180830381600087803b1580156145b757600080fd5b505af11580156145cb573d6000803e3d6000fd5b505050506040513d60208110156145e157600080fd5b81019080805190602001909291905050506145fb57600080fd5b60008573ffffffffffffffffffffffffffffffffffffffff16630b573638858e8c8b6040518563ffffffff1660e01b8152600401808481526020018381526020018273ffffffffffffffffffffffffffffffffffffffff1673ffffffffffffffffffffffffffffffffffffffff16815260200193505050506020604051808303818588803b15801561468c57600080fd5b505af11580156146a0573d6000803e3d6000fd5b50505050506040513d60208110156146b757600080fd5b8101908080519060200190929190505050905083828973ffffffffffffffffffffffffffffffffffffffff167f7f4091b46c33e918a0f3aa42307641d17bb67029427a5369e54b35398423870560405160405180910390a481945050505050979650505050505050565b60004285101580156147335750600088115b801561473f5750600087115b801561474b5750600086115b61475457600080fd5b3073ffffffffffffffffffffffffffffffffffffffff168273ffffffffffffffffffffffffffffffffffffffff16141580156147bd5750600073ffffffffffffffffffffffffffffffffffffffff168273ffffffffffffffffffffffffffffffffffffffff1614155b6147c657600080fd5b6000600660009054906101000a900473ffffffffffffffffffffffffffffffffffffffff1673ffffffffffffffffffffffffffffffffffffffff166370a08231306040518263ffffffff1660e01b8152600401808273ffffffffffffffffffffffffffffffffffffffff1673ffffffffffffffffffffffffffffffffffffffff16815260200191505060206040518083038186803b15801561486757600080fd5b505afa15801561487b573d6000803e3d6000fd5b505050506040513d602081101561489157600080fd5b8101908080519060200190929190505050905060006148c88a833073ffffffffffffffffffffffffffffffffffffffff1631612551565b90506000819050888110156148dc57600080fd5b600660009054906101000a900473ffffffffffffffffffffffffffffffffffffffff1673ffffffffffffffffffffffffffffffffffffffff166323b872dd88308e6040518463ffffffff1660e01b8152600401808473ffffffffffffffffffffffffffffffffffffffff1673ffffffffffffffffffffffffffffffffffffffff1681526020018373ffffffffffffffffffffffffffffffffffffffff1673ffffffffffffffffffffffffffffffffffffffff1681526020018281526020019350505050602060405180830381600087803b1580156149b957600080fd5b505af11580156149cd573d6000803e3d6000fd5b505050506040513d60208110156149e357600080fd5b81019080805190602001909291905050506149fd57600080fd5b60008573ffffffffffffffffffffffffffffffffffffffff1663ad65d76d838d8c8b6040518563ffffffff1660e01b8152600401808481526020018381526020018273ffffffffffffffffffffffffffffffffffffffff1673ffffffffffffffffffffffffffffffffffffffff16815260200193505050506020604051808303818588803b158015614a8e57600080fd5b505af1158015614aa2573d6000803e3d6000fd5b50505050506040513d6020811015614ab957600080fd5b81019080805190602001909291905050509050818c8973ffffffffffffffffffffffffffffffffffffffff167f7f4091b46c33e918a0f3aa42307641d17bb67029427a5369e54b35398423870560405160405180910390a48094505050505097965050505050505056fe556e697377617045786368616e6765236164644c69717569646974793a20494e56414c49445f415247554d454e54a165627a7a72305820c23ce8dd0b8ee229346ee63ae6a10caa71132e758c8eff5339d0243e170731700029",
  "source": "pragma solidity ^0.5.0;\n\nimport \"../tokens/ERC20.sol\";\nimport \"../interfaces/IERC20.sol\";\nimport \"../interfaces/IUniswapFactory.sol\";\nimport \"../interfaces/IUniswapExchange.sol\";\n\n\ncontract UniswapExchange is ERC20 {\n\n  /***********************************|\n  |        Variables && Events        |\n  |__________________________________*/\n\n  // Variables\n  bytes32 public name;         // Uniswap V1\n  bytes32 public symbol;       // UNI-V1\n  uint256 public decimals;     // 18\n  IERC20 token;                // address of the ERC20 token traded on this contract\n  IUniswapFactory factory;     // interface for the factory that created this contract\n  \n  // Events\n  event TokenPurchase(address indexed buyer, uint256 indexed eth_sold, uint256 indexed tokens_bought);\n  event EthPurchase(address indexed buyer, uint256 indexed tokens_sold, uint256 indexed eth_bought);\n  event AddLiquidity(address indexed provider, uint256 indexed eth_amount, uint256 indexed token_amount);\n  event RemoveLiquidity(address indexed provider, uint256 indexed eth_amount, uint256 indexed token_amount);\n\n\n  /***********************************|\n  |            Constsructor           |\n  |__________________________________*/\n\n  /**  \n   * @dev This function acts as a contract constructor which is not currently supported in contracts deployed\n   *      using create_with_code_of(). It is called once by the factory during contract creation.\n   */\n  function setup(address token_addr) public {\n    require( \n      address(factory) == address(0) && address(token) == address(0) && token_addr != address(0), \n      \"INVALID_ADDRESS\"\n    );\n    factory = IUniswapFactory(msg.sender);\n    token = IERC20(token_addr);\n    name = 0x556e697377617020563100000000000000000000000000000000000000000000;\n    symbol = 0x554e492d56310000000000000000000000000000000000000000000000000000;\n    decimals = 18;\n  }\n\n\n  /***********************************|\n  |        Exchange Functions         |\n  |__________________________________*/\n\n\n  /**\n   * @notice Convert ETH to Tokens.\n   * @dev User specifies exact input (msg.value).\n   * @dev User cannot specify minimum output or deadline.\n   */\n  function () external payable {\n    ethToTokenInput(msg.value, 1, block.timestamp, msg.sender, msg.sender);\n  }\n\n /**\n   * @dev Pricing function for converting between ETH && Tokens.\n   * @param input_amount Amount of ETH or Tokens being sold.\n   * @param input_reserve Amount of ETH or Tokens (input type) in exchange reserves.\n   * @param output_reserve Amount of ETH or Tokens (output type) in exchange reserves.\n   * @return Amount of ETH or Tokens bought.\n   */\n  function getInputPrice(uint256 input_amount, uint256 input_reserve, uint256 output_reserve) public pure returns (uint256) {\n    require(input_reserve > 0 && output_reserve > 0, \"INVALID_VALUE\");\n    uint256 input_amount_with_fee = input_amount.mul(997);\n    uint256 numerator = input_amount_with_fee.mul(output_reserve);\n    uint256 denominator = input_reserve.mul(1000).add(input_amount_with_fee);\n    return numerator / denominator;\n  }\n\n /**\n   * @dev Pricing function for converting between ETH && Tokens.\n   * @param output_amount Amount of ETH or Tokens being bought.\n   * @param input_reserve Amount of ETH or Tokens (input type) in exchange reserves.\n   * @param output_reserve Amount of ETH or Tokens (output type) in exchange reserves.\n   * @return Amount of ETH or Tokens sold.\n   */\n  function getOutputPrice(uint256 output_amount, uint256 input_reserve, uint256 output_reserve) public pure returns (uint256) {\n    require(input_reserve > 0 && output_reserve > 0);\n    uint256 numerator = input_reserve.mul(output_amount).mul(1000);\n    uint256 denominator = (output_reserve.sub(output_amount)).mul(997);\n    return (numerator / denominator).add(1);\n  }\n\n  function ethToTokenInput(uint256 eth_sold, uint256 min_tokens, uint256 deadline, address buyer, address recipient) private returns (uint256) {\n    require(deadline >= block.timestamp && eth_sold > 0 && min_tokens > 0);\n    uint256 token_reserve = token.balanceOf(address(this));\n    uint256 tokens_bought = getInputPrice(eth_sold, address(this).balance.sub(eth_sold), token_reserve);\n    require(tokens_bought >= min_tokens);\n    require(token.transfer(recipient, tokens_bought));\n    emit TokenPurchase(buyer, eth_sold, tokens_bought);\n    return tokens_bought;\n  }\n\n  /** \n   * @notice Convert ETH to Tokens.\n   * @dev User specifies exact input (msg.value) && minimum output.\n   * @param min_tokens Minimum Tokens bought.\n   * @param deadline Time after which this transaction can no longer be executed.\n   * @return Amount of Tokens bought.\n   */ \n  function ethToTokenSwapInput(uint256 min_tokens, uint256 deadline) public payable returns (uint256) {\n    return ethToTokenInput(msg.value, min_tokens, deadline, msg.sender, msg.sender);\n  }\n\n  /** \n   * @notice Convert ETH to Tokens && transfers Tokens to recipient.\n   * @dev User specifies exact input (msg.value) && minimum output\n   * @param min_tokens Minimum Tokens bought.\n   * @param deadline Time after which this transaction can no longer be executed.\n   * @param recipient The address that receives output Tokens.\n   * @return  Amount of Tokens bought.\n   */\n  function ethToTokenTransferInput(uint256 min_tokens, uint256 deadline, address recipient) public payable returns(uint256) {\n    require(recipient != address(this) && recipient != address(0));\n    return ethToTokenInput(msg.value, min_tokens, deadline, msg.sender, recipient);\n  }\n\n  function ethToTokenOutput(uint256 tokens_bought, uint256 max_eth, uint256 deadline, address payable buyer, address recipient) private returns (uint256) {\n    require(deadline >= block.timestamp && tokens_bought > 0 && max_eth > 0);\n    uint256 token_reserve = token.balanceOf(address(this));\n    uint256 eth_sold = getOutputPrice(tokens_bought, address(this).balance.sub(max_eth), token_reserve);\n    // Throws if eth_sold > max_eth\n    uint256 eth_refund = max_eth.sub(eth_sold);\n    if (eth_refund > 0) {\n      buyer.transfer(eth_refund);\n    }\n    require(token.transfer(recipient, tokens_bought));\n    emit TokenPurchase(buyer, eth_sold, tokens_bought);\n    return eth_sold;\n  }\n\n  /** \n   * @notice Convert ETH to Tokens.\n   * @dev User specifies maximum input (msg.value) && exact output.\n   * @param tokens_bought Amount of tokens bought.\n   * @param deadline Time after which this transaction can no longer be executed.\n   * @return Amount of ETH sold.\n   */\n  function ethToTokenSwapOutput(uint256 tokens_bought, uint256 deadline) public payable returns(uint256) {\n    return ethToTokenOutput(tokens_bought, msg.value, deadline, msg.sender, msg.sender);\n  }\n\n  /** \n   * @notice Convert ETH to Tokens && transfers Tokens to recipient.\n   * @dev User specifies maximum input (msg.value) && exact output.\n   * @param tokens_bought Amount of tokens bought.\n   * @param deadline Time after which this transaction can no longer be executed.\n   * @param recipient The address that receives output Tokens.\n   * @return Amount of ETH sold.\n   */\n  function ethToTokenTransferOutput(uint256 tokens_bought, uint256 deadline, address recipient) public payable returns (uint256) {\n    require(recipient != address(this) && recipient != address(0));\n    return ethToTokenOutput(tokens_bought, msg.value, deadline, msg.sender, recipient);\n  }\n\n  function tokenToEthInput(uint256 tokens_sold, uint256 min_eth, uint256 deadline, address buyer, address payable recipient) private returns (uint256) {\n    require(deadline >= block.timestamp && tokens_sold > 0 && min_eth > 0);\n    uint256 token_reserve = token.balanceOf(address(this));\n    uint256 eth_bought = getInputPrice(tokens_sold, token_reserve, address(this).balance);\n    uint256 wei_bought = eth_bought;\n    require(wei_bought >= min_eth);\n    recipient.transfer(wei_bought);\n    require(token.transferFrom(buyer, address(this), tokens_sold));\n    emit EthPurchase(buyer, tokens_sold, wei_bought);\n    return wei_bought;\n  }\n\n  /** \n   * @notice Convert Tokens to ETH.\n   * @dev User specifies exact input && minimum output.\n   * @param tokens_sold Amount of Tokens sold.\n   * @param min_eth Minimum ETH purchased.\n   * @param deadline Time after which this transaction can no longer be executed.\n   * @return Amount of ETH bought.\n   */\n  function tokenToEthSwapInput(uint256 tokens_sold, uint256 min_eth, uint256 deadline) public returns (uint256) {\n    return tokenToEthInput(tokens_sold, min_eth, deadline, msg.sender, msg.sender);\n  }\n\n  /** \n   * @notice Convert Tokens to ETH && transfers ETH to recipient.\n   * @dev User specifies exact input && minimum output.\n   * @param tokens_sold Amount of Tokens sold.\n   * @param min_eth Minimum ETH purchased.\n   * @param deadline Time after which this transaction can no longer be executed.\n   * @param recipient The address that receives output ETH.\n   * @return  Amount of ETH bought.\n   */\n  function tokenToEthTransferInput(uint256 tokens_sold, uint256 min_eth, uint256 deadline, address payable recipient) public returns (uint256) {\n    require(recipient != address(this) && recipient != address(0));\n    return tokenToEthInput(tokens_sold, min_eth, deadline, msg.sender, recipient);\n  }\n\n  \n  function tokenToEthOutput(uint256 eth_bought, uint256 max_tokens, uint256 deadline, address buyer, address payable recipient) private returns (uint256) {\n    require(deadline >= block.timestamp && eth_bought > 0);\n    uint256 token_reserve = token.balanceOf(address(this));\n    uint256 tokens_sold = getOutputPrice(eth_bought, token_reserve, address(this).balance);\n    // tokens sold is always > 0\n    require(max_tokens >= tokens_sold);\n    recipient.transfer(eth_bought);\n    require(token.transferFrom(buyer, address(this), tokens_sold));\n    emit EthPurchase(buyer, tokens_sold, eth_bought);\n    return tokens_sold;\n  }\n\n  /** \n   * @notice Convert Tokens to ETH.\n   * @dev User specifies maximum input && exact output.\n   * @param eth_bought Amount of ETH purchased.\n   * @param max_tokens Maximum Tokens sold.\n   * @param deadline Time after which this transaction can no longer be executed.\n   * @return Amount of Tokens sold.\n   */\n  function tokenToEthSwapOutput(uint256 eth_bought, uint256 max_tokens, uint256 deadline) public returns (uint256) {\n    return tokenToEthOutput(eth_bought, max_tokens, deadline, msg.sender, msg.sender);\n  }\n\n  /**\n   * @notice Convert Tokens to ETH && transfers ETH to recipient.\n   * @dev User specifies maximum input && exact output.\n   * @param eth_bought Amount of ETH purchased.\n   * @param max_tokens Maximum Tokens sold.\n   * @param deadline Time after which this transaction can no longer be executed.\n   * @param recipient The address that receives output ETH.\n   * @return Amount of Tokens sold.\n   */\n  function tokenToEthTransferOutput(uint256 eth_bought, uint256 max_tokens, uint256 deadline, address payable recipient) public returns (uint256) {\n    require(recipient != address(this) && recipient != address(0));\n    return tokenToEthOutput(eth_bought, max_tokens, deadline, msg.sender, recipient);\n  }\n\n  function tokenToTokenInput(\n    uint256 tokens_sold, \n    uint256 min_tokens_bought, \n    uint256 min_eth_bought, \n    uint256 deadline,\n    address buyer, \n    address recipient, \n    address payable exchange_addr) \n    private returns (uint256) \n  {\n    require(deadline >= block.timestamp && tokens_sold > 0 && min_tokens_bought > 0 && min_eth_bought > 0);\n    require(exchange_addr != address(this) && exchange_addr != address(0));\n    uint256 token_reserve = token.balanceOf(address(this));\n    uint256 eth_bought = getInputPrice(tokens_sold, token_reserve, address(this).balance);\n    uint256 wei_bought = eth_bought;\n    require(wei_bought >= min_eth_bought);\n    require(token.transferFrom(buyer, address(this), tokens_sold));\n    uint256 tokens_bought = IUniswapExchange(exchange_addr).ethToTokenTransferInput.value(wei_bought)(min_tokens_bought, deadline, recipient);\n    emit EthPurchase(buyer, tokens_sold, wei_bought);\n    return tokens_bought;\n  }\n\n  /**\n   * @notice Convert Tokens (token) to Tokens (token_addr).\n   * @dev User specifies exact input && minimum output.\n   * @param tokens_sold Amount of Tokens sold.\n   * @param min_tokens_bought Minimum Tokens (token_addr) purchased.\n   * @param min_eth_bought Minimum ETH purchased as intermediary.\n   * @param deadline Time after which this transaction can no longer be executed.\n   * @param token_addr The address of the token being purchased.\n   * @return Amount of Tokens (token_addr) bought.\n   */\n  function tokenToTokenSwapInput(\n    uint256 tokens_sold, \n    uint256 min_tokens_bought, \n    uint256 min_eth_bought, \n    uint256 deadline, \n    address token_addr) \n    public returns (uint256) \n  {\n    address payable exchange_addr = factory.getExchange(token_addr);\n    return tokenToTokenInput(tokens_sold, min_tokens_bought, min_eth_bought, deadline, msg.sender, msg.sender, exchange_addr);\n  }\n\n  /**\n   * @notice Convert Tokens (token) to Tokens (token_addr) && transfers\n   *         Tokens (token_addr) to recipient.\n   * @dev User specifies exact input && minimum output.\n   * @param tokens_sold Amount of Tokens sold.\n   * @param min_tokens_bought Minimum Tokens (token_addr) purchased.\n   * @param min_eth_bought Minimum ETH purchased as intermediary.\n   * @param deadline Time after which this transaction can no longer be executed.\n   * @param recipient The address that receives output ETH.\n   * @param token_addr The address of the token being purchased.\n   * @return Amount of Tokens (token_addr) bought.\n   */\n  function tokenToTokenTransferInput(\n    uint256 tokens_sold, \n    uint256 min_tokens_bought, \n    uint256 min_eth_bought, \n    uint256 deadline, \n    address recipient, \n    address token_addr) \n    public returns (uint256) \n  {\n    address payable exchange_addr = factory.getExchange(token_addr);\n    return tokenToTokenInput(tokens_sold, min_tokens_bought, min_eth_bought, deadline, msg.sender, recipient, exchange_addr);\n  }\n\n  function tokenToTokenOutput(\n    uint256 tokens_bought, \n    uint256 max_tokens_sold, \n    uint256 max_eth_sold, \n    uint256 deadline, \n    address buyer, \n    address recipient, \n    address payable exchange_addr) \n    private returns (uint256) \n  {\n    require(deadline >= block.timestamp && (tokens_bought > 0 && max_eth_sold > 0));\n    require(exchange_addr != address(this) && exchange_addr != address(0));\n    uint256 eth_bought = IUniswapExchange(exchange_addr).getEthToTokenOutputPrice(tokens_bought);\n    uint256 token_reserve = token.balanceOf(address(this));\n    uint256 tokens_sold = getOutputPrice(eth_bought, token_reserve, address(this).balance);\n    // tokens sold is always > 0\n    require(max_tokens_sold >= tokens_sold && max_eth_sold >= eth_bought);\n    require(token.transferFrom(buyer, address(this), tokens_sold));\n    uint256 eth_sold = IUniswapExchange(exchange_addr).ethToTokenTransferOutput.value(eth_bought)(tokens_bought, deadline, recipient);\n    emit EthPurchase(buyer, tokens_sold, eth_bought);\n    return tokens_sold;\n  }\n\n  /**\n   * @notice Convert Tokens (token) to Tokens (token_addr).\n   * @dev User specifies maximum input && exact output.\n   * @param tokens_bought Amount of Tokens (token_addr) bought.\n   * @param max_tokens_sold Maximum Tokens (token) sold.\n   * @param max_eth_sold Maximum ETH purchased as intermediary.\n   * @param deadline Time after which this transaction can no longer be executed.\n   * @param token_addr The address of the token being purchased.\n   * @return Amount of Tokens (token) sold.\n   */\n  function tokenToTokenSwapOutput(\n    uint256 tokens_bought, \n    uint256 max_tokens_sold, \n    uint256 max_eth_sold, \n    uint256 deadline, \n    address token_addr) \n    public returns (uint256) \n  {\n    address payable exchange_addr = factory.getExchange(token_addr);\n    return tokenToTokenOutput(tokens_bought, max_tokens_sold, max_eth_sold, deadline, msg.sender, msg.sender, exchange_addr);\n  }\n\n  /**\n   * @notice Convert Tokens (token) to Tokens (token_addr) && transfers\n   *         Tokens (token_addr) to recipient.\n   * @dev User specifies maximum input && exact output.\n   * @param tokens_bought Amount of Tokens (token_addr) bought.\n   * @param max_tokens_sold Maximum Tokens (token) sold.\n   * @param max_eth_sold Maximum ETH purchased as intermediary.\n   * @param deadline Time after which this transaction can no longer be executed.\n   * @param recipient The address that receives output ETH.\n   * @param token_addr The address of the token being purchased.\n   * @return Amount of Tokens (token) sold.\n   */\n  function tokenToTokenTransferOutput(\n    uint256 tokens_bought, \n    uint256 max_tokens_sold, \n    uint256 max_eth_sold, \n    uint256 deadline, \n    address recipient, \n    address token_addr) \n    public returns (uint256) \n  {\n    address payable exchange_addr = factory.getExchange(token_addr);\n    return tokenToTokenOutput(tokens_bought, max_tokens_sold, max_eth_sold, deadline, msg.sender, recipient, exchange_addr);\n  }\n\n  /**\n   * @notice Convert Tokens (token) to Tokens (exchange_addr.token).\n   * @dev Allows trades through contracts that were not deployed from the same factory.\n   * @dev User specifies exact input && minimum output.\n   * @param tokens_sold Amount of Tokens sold.\n   * @param min_tokens_bought Minimum Tokens (token_addr) purchased.\n   * @param min_eth_bought Minimum ETH purchased as intermediary.\n   * @param deadline Time after which this transaction can no longer be executed.\n   * @param exchange_addr The address of the exchange for the token being purchased.\n   * @return Amount of Tokens (exchange_addr.token) bought.\n   */\n  function tokenToExchangeSwapInput(\n    uint256 tokens_sold, \n    uint256 min_tokens_bought, \n    uint256 min_eth_bought, \n    uint256 deadline, \n    address payable exchange_addr) \n    public returns (uint256) \n  {\n    return tokenToTokenInput(tokens_sold, min_tokens_bought, min_eth_bought, deadline, msg.sender, msg.sender, exchange_addr);\n  }\n\n  /**\n   * @notice Convert Tokens (token) to Tokens (exchange_addr.token) && transfers\n   *         Tokens (exchange_addr.token) to recipient.\n   * @dev Allows trades through contracts that were not deployed from the same factory.\n   * @dev User specifies exact input && minimum output.\n   * @param tokens_sold Amount of Tokens sold.\n   * @param min_tokens_bought Minimum Tokens (token_addr) purchased.\n   * @param min_eth_bought Minimum ETH purchased as intermediary.\n   * @param deadline Time after which this transaction can no longer be executed.\n   * @param recipient The address that receives output ETH.\n   * @param exchange_addr The address of the exchange for the token being purchased.\n   * @return Amount of Tokens (exchange_addr.token) bought.\n   */\n  function tokenToExchangeTransferInput(\n    uint256 tokens_sold, \n    uint256 min_tokens_bought, \n    uint256 min_eth_bought, \n    uint256 deadline, \n    address recipient, \n    address payable exchange_addr) \n    public returns (uint256) \n  {\n    require(recipient != address(this));\n    return tokenToTokenInput(tokens_sold, min_tokens_bought, min_eth_bought, deadline, msg.sender, recipient, exchange_addr);\n  }\n\n  /**\n   * @notice Convert Tokens (token) to Tokens (exchange_addr.token).\n   * @dev Allows trades through contracts that were not deployed from the same factory.\n   * @dev User specifies maximum input && exact output.\n   * @param tokens_bought Amount of Tokens (token_addr) bought.\n   * @param max_tokens_sold Maximum Tokens (token) sold.\n   * @param max_eth_sold Maximum ETH purchased as intermediary.\n   * @param deadline Time after which this transaction can no longer be executed.\n   * @param exchange_addr The address of the exchange for the token being purchased.\n   * @return Amount of Tokens (token) sold.\n   */\n  function tokenToExchangeSwapOutput(\n    uint256 tokens_bought, \n    uint256 max_tokens_sold, \n    uint256 max_eth_sold, \n    uint256 deadline, \n    address payable exchange_addr) \n    public returns (uint256) \n  {\n    return tokenToTokenOutput(tokens_bought, max_tokens_sold, max_eth_sold, deadline, msg.sender, msg.sender, exchange_addr);\n  }\n\n  /**\n   * @notice Convert Tokens (token) to Tokens (exchange_addr.token) && transfers\n   *         Tokens (exchange_addr.token) to recipient.\n   * @dev Allows trades through contracts that were not deployed from the same factory.\n   * @dev User specifies maximum input && exact output.\n   * @param tokens_bought Amount of Tokens (token_addr) bought.\n   * @param max_tokens_sold Maximum Tokens (token) sold.\n   * @param max_eth_sold Maximum ETH purchased as intermediary.\n   * @param deadline Time after which this transaction can no longer be executed.\n   * @param recipient The address that receives output ETH.\n   * @param exchange_addr The address of the exchange for the token being purchased.\n   * @return Amount of Tokens (token) sold.\n   */\n  function tokenToExchangeTransferOutput(\n    uint256 tokens_bought, \n    uint256 max_tokens_sold, \n    uint256 max_eth_sold, \n    uint256 deadline, \n    address recipient, \n    address payable exchange_addr) \n    public returns (uint256) \n  {\n    require(recipient != address(this));\n    return tokenToTokenOutput(tokens_bought, max_tokens_sold, max_eth_sold, deadline, msg.sender, recipient, exchange_addr);\n  }\n\n\n  /***********************************|\n  |         Getter Functions          |\n  |__________________________________*/\n\n  /**\n   * @notice Public price function for ETH to Token trades with an exact input.\n   * @param eth_sold Amount of ETH sold.\n   * @return Amount of Tokens that can be bought with input ETH.\n   */\n  function getEthToTokenInputPrice(uint256 eth_sold) public view returns (uint256) {\n    require(eth_sold > 0);\n    uint256 token_reserve = token.balanceOf(address(this));\n    return getInputPrice(eth_sold, address(this).balance, token_reserve);\n  }\n\n  /**\n   * @notice Public price function for ETH to Token trades with an exact output.\n   * @param tokens_bought Amount of Tokens bought.\n   * @return Amount of ETH needed to buy output Tokens.\n   */\n  function getEthToTokenOutputPrice(uint256 tokens_bought) public view returns (uint256) {\n    require(tokens_bought > 0);\n    uint256 token_reserve = token.balanceOf(address(this));\n    uint256 eth_sold = getOutputPrice(tokens_bought, address(this).balance, token_reserve);\n    return eth_sold;\n  }\n\n  /**\n   * @notice Public price function for Token to ETH trades with an exact input.\n   * @param tokens_sold Amount of Tokens sold.\n   * @return Amount of ETH that can be bought with input Tokens.\n   */\n  function getTokenToEthInputPrice(uint256 tokens_sold) public view returns (uint256) {\n    require(tokens_sold > 0);\n    uint256 token_reserve = token.balanceOf(address(this));\n    uint256 eth_bought = getInputPrice(tokens_sold, token_reserve, address(this).balance);\n    return eth_bought;\n  }\n\n  /**\n   * @notice Public price function for Token to ETH trades with an exact output.\n   * @param eth_bought Amount of output ETH.\n   * @return Amount of Tokens needed to buy output ETH.\n   */\n  function getTokenToEthOutputPrice(uint256 eth_bought) public view returns (uint256) {\n    require(eth_bought > 0);\n    uint256 token_reserve = token.balanceOf(address(this));\n    return getOutputPrice(eth_bought, token_reserve, address(this).balance);\n  }\n\n  /** \n   * @return Address of Token that is sold on this exchange.\n   */\n  function tokenAddress() public view returns (address) {\n    return address(token);\n  }\n\n  /**\n   * @return Address of factory that created this exchange.\n   */\n  function factoryAddress() public view returns (address) {\n    return address(factory);\n  }\n\n\n  /***********************************|\n  |        Liquidity Functions        |\n  |__________________________________*/\n\n  /** \n   * @notice Deposit ETH && Tokens (token) at current ratio to mint UNI tokens.\n   * @dev min_liquidity does nothing when total UNI supply is 0.\n   * @param min_liquidity Minimum number of UNI sender will mint if total UNI supply is greater than 0.\n   * @param max_tokens Maximum number of tokens deposited. Deposits max amount if total UNI supply is 0.\n   * @param deadline Time after which this transaction can no longer be executed.\n   * @return The amount of UNI minted.\n   */\n  function addLiquidity(uint256 min_liquidity, uint256 max_tokens, uint256 deadline) public payable returns (uint256) {\n    require(deadline > block.timestamp && max_tokens > 0 && msg.value > 0, 'UniswapExchange#addLiquidity: INVALID_ARGUMENT');\n    uint256 total_liquidity = _totalSupply;\n\n    if (total_liquidity > 0) {\n      require(min_liquidity > 0);\n      uint256 eth_reserve = address(this).balance.sub(msg.value);\n      uint256 token_reserve = token.balanceOf(address(this));\n      uint256 token_amount = (msg.value.mul(token_reserve) / eth_reserve).add(1);\n      uint256 liquidity_minted = msg.value.mul(total_liquidity) / eth_reserve;\n      require(max_tokens >= token_amount && liquidity_minted >= min_liquidity);\n      _balances[msg.sender] = _balances[msg.sender].add(liquidity_minted);\n      _totalSupply = total_liquidity.add(liquidity_minted);\n      require(token.transferFrom(msg.sender, address(this), token_amount));\n      emit AddLiquidity(msg.sender, msg.value, token_amount);\n      emit Transfer(address(0), msg.sender, liquidity_minted);\n      return liquidity_minted;\n\n    } else {\n      require(address(factory) != address(0) && address(token) != address(0) && msg.value >= 1000000000, \"INVALID_VALUE\");\n      require(factory.getExchange(address(token)) == address(this));\n      uint256 token_amount = max_tokens;\n      uint256 initial_liquidity = address(this).balance;\n      _totalSupply = initial_liquidity;\n      _balances[msg.sender] = initial_liquidity;\n      require(token.transferFrom(msg.sender, address(this), token_amount));\n      emit AddLiquidity(msg.sender, msg.value, token_amount);\n      emit Transfer(address(0), msg.sender, initial_liquidity);\n      return initial_liquidity;\n    }\n  }\n\n  /**\n   * @dev Burn UNI tokens to withdraw ETH && Tokens at current ratio.\n   * @param amount Amount of UNI burned.\n   * @param min_eth Minimum ETH withdrawn.\n   * @param min_tokens Minimum Tokens withdrawn.\n   * @param deadline Time after which this transaction can no longer be executed.\n   * @return The amount of ETH && Tokens withdrawn.\n   */\n  function removeLiquidity(uint256 amount, uint256 min_eth, uint256 min_tokens, uint256 deadline) public returns (uint256, uint256) {\n    require(amount > 0 && deadline > block.timestamp && min_eth > 0 && min_tokens > 0);\n    uint256 total_liquidity = _totalSupply;\n    require(total_liquidity > 0);\n    uint256 token_reserve = token.balanceOf(address(this));\n    uint256 eth_amount = amount.mul(address(this).balance) / total_liquidity;\n    uint256 token_amount = amount.mul(token_reserve) / total_liquidity;\n    require(eth_amount >= min_eth && token_amount >= min_tokens);\n\n    _balances[msg.sender] = _balances[msg.sender].sub(amount);\n    _totalSupply = total_liquidity.sub(amount);\n    msg.sender.transfer(eth_amount);\n    require(token.transfer(msg.sender, token_amount));\n    emit RemoveLiquidity(msg.sender, eth_amount, token_amount);\n    emit Transfer(msg.sender, address(0), amount);\n    return (eth_amount, token_amount);\n  }\n\n\n}\n",
  "sourcePath": "/Users/iisaint/Workspace/ConsensysAcademy/online-marketplace/contracts/uniswap/UniswapExchange.sol",
  "compiler": {
    "name": "solc",
    "version": "0.5.8+commit.23d335f2.Emscripten.clang"
  },
  "schemaVersion": "3.0.10",
  "updatedAt": "2019-07-30T06:36:31.407Z",
  "devdoc": {
    "methods": {
      "addLiquidity(uint256,uint256,uint256)": {
        "details": "min_liquidity does nothing when total UNI supply is 0.",
        "params": {
          "deadline": "Time after which this transaction can no longer be executed.",
          "max_tokens": "Maximum number of tokens deposited. Deposits max amount if total UNI supply is 0.",
          "min_liquidity": "Minimum number of UNI sender will mint if total UNI supply is greater than 0."
        },
        "return": "The amount of UNI minted."
      },
      "allowance(address,address)": {
        "details": "Function to check the amount of tokens that an owner allowed to a spender.",
        "params": {
          "owner": "address The address which owns the funds.",
          "spender": "address The address which will spend the funds."
        },
        "return": "A uint256 specifying the amount of tokens still available for the spender."
      },
      "approve(address,uint256)": {
        "details": "Approve the passed address to spend the specified amount of tokens on behalf of msg.sender. Beware that changing an allowance with this method brings the risk that someone may use both the old and the new allowance by unfortunate transaction ordering. One possible solution to mitigate this race condition is to first reduce the spender's allowance to 0 and set the desired value afterwards: https://github.com/ethereum/EIPs/issues/20#issuecomment-263524729",
        "params": {
          "spender": "The address which will spend the funds.",
          "value": "The amount of tokens to be spent."
        }
      },
      "balanceOf(address)": {
        "details": "Gets the balance of the specified address.",
        "params": {
          "owner": "The address to query the balance of."
        },
        "return": "A uint256 representing the amount owned by the passed address."
      },
      "decreaseAllowance(address,uint256)": {
        "details": "Decrease the amount of tokens that an owner allowed to a spender. approve should be called when _allowed[msg.sender][spender] == 0. To decrement allowed value is better to use this function to avoid 2 calls (and wait until the first transaction is mined) From MonolithDAO Token.sol Emits an Approval event.",
        "params": {
          "spender": "The address which will spend the funds.",
          "subtractedValue": "The amount of tokens to decrease the allowance by."
        }
      },
      "ethToTokenSwapInput(uint256,uint256)": {
        "details": "User specifies exact input (msg.value) && minimum output.",
        "params": {
          "deadline": "Time after which this transaction can no longer be executed.",
          "min_tokens": "Minimum Tokens bought."
        },
        "return": "Amount of Tokens bought."
      },
      "ethToTokenSwapOutput(uint256,uint256)": {
        "details": "User specifies maximum input (msg.value) && exact output.",
        "params": {
          "deadline": "Time after which this transaction can no longer be executed.",
          "tokens_bought": "Amount of tokens bought."
        },
        "return": "Amount of ETH sold."
      },
      "ethToTokenTransferInput(uint256,uint256,address)": {
        "details": "User specifies exact input (msg.value) && minimum output",
        "params": {
          "deadline": "Time after which this transaction can no longer be executed.",
          "min_tokens": "Minimum Tokens bought.",
          "recipient": "The address that receives output Tokens."
        },
        "return": "Amount of Tokens bought."
      },
      "ethToTokenTransferOutput(uint256,uint256,address)": {
        "details": "User specifies maximum input (msg.value) && exact output.",
        "params": {
          "deadline": "Time after which this transaction can no longer be executed.",
          "recipient": "The address that receives output Tokens.",
          "tokens_bought": "Amount of tokens bought."
        },
        "return": "Amount of ETH sold."
      },
      "factoryAddress()": {
        "return": "Address of factory that created this exchange."
      },
      "getEthToTokenInputPrice(uint256)": {
        "params": {
          "eth_sold": "Amount of ETH sold."
        },
        "return": "Amount of Tokens that can be bought with input ETH."
      },
      "getEthToTokenOutputPrice(uint256)": {
        "params": {
          "tokens_bought": "Amount of Tokens bought."
        },
        "return": "Amount of ETH needed to buy output Tokens."
      },
      "getInputPrice(uint256,uint256,uint256)": {
        "details": "Pricing function for converting between ETH && Tokens.",
        "params": {
          "input_amount": "Amount of ETH or Tokens being sold.",
          "input_reserve": "Amount of ETH or Tokens (input type) in exchange reserves.",
          "output_reserve": "Amount of ETH or Tokens (output type) in exchange reserves."
        },
        "return": "Amount of ETH or Tokens bought."
      },
      "getOutputPrice(uint256,uint256,uint256)": {
        "details": "Pricing function for converting between ETH && Tokens.",
        "params": {
          "input_reserve": "Amount of ETH or Tokens (input type) in exchange reserves.",
          "output_amount": "Amount of ETH or Tokens being bought.",
          "output_reserve": "Amount of ETH or Tokens (output type) in exchange reserves."
        },
        "return": "Amount of ETH or Tokens sold."
      },
      "getTokenToEthInputPrice(uint256)": {
        "params": {
          "tokens_sold": "Amount of Tokens sold."
        },
        "return": "Amount of ETH that can be bought with input Tokens."
      },
      "getTokenToEthOutputPrice(uint256)": {
        "params": {
          "eth_bought": "Amount of output ETH."
        },
        "return": "Amount of Tokens needed to buy output ETH."
      },
      "increaseAllowance(address,uint256)": {
        "details": "Increase the amount of tokens that an owner allowed to a spender. approve should be called when _allowed[msg.sender][spender] == 0. To increment allowed value is better to use this function to avoid 2 calls (and wait until the first transaction is mined) From MonolithDAO Token.sol Emits an Approval event.",
        "params": {
          "addedValue": "The amount of tokens to increase the allowance by.",
          "spender": "The address which will spend the funds."
        }
      },
      "removeLiquidity(uint256,uint256,uint256,uint256)": {
        "details": "Burn UNI tokens to withdraw ETH && Tokens at current ratio.",
        "params": {
          "amount": "Amount of UNI burned.",
          "deadline": "Time after which this transaction can no longer be executed.",
          "min_eth": "Minimum ETH withdrawn.",
          "min_tokens": "Minimum Tokens withdrawn."
        },
        "return": "The amount of ETH && Tokens withdrawn."
      },
      "setup(address)": {
        "details": "This function acts as a contract constructor which is not currently supported in contracts deployed     using create_with_code_of(). It is called once by the factory during contract creation."
      },
      "tokenAddress()": {
        "return": "Address of Token that is sold on this exchange."
      },
      "tokenToEthSwapInput(uint256,uint256,uint256)": {
        "details": "User specifies exact input && minimum output.",
        "params": {
          "deadline": "Time after which this transaction can no longer be executed.",
          "min_eth": "Minimum ETH purchased.",
          "tokens_sold": "Amount of Tokens sold."
        },
        "return": "Amount of ETH bought."
      },
      "tokenToEthSwapOutput(uint256,uint256,uint256)": {
        "details": "User specifies maximum input && exact output.",
        "params": {
          "deadline": "Time after which this transaction can no longer be executed.",
          "eth_bought": "Amount of ETH purchased.",
          "max_tokens": "Maximum Tokens sold."
        },
        "return": "Amount of Tokens sold."
      },
      "tokenToEthTransferInput(uint256,uint256,uint256,address)": {
        "details": "User specifies exact input && minimum output.",
        "params": {
          "deadline": "Time after which this transaction can no longer be executed.",
          "min_eth": "Minimum ETH purchased.",
          "recipient": "The address that receives output ETH.",
          "tokens_sold": "Amount of Tokens sold."
        },
        "return": "Amount of ETH bought."
      },
      "tokenToEthTransferOutput(uint256,uint256,uint256,address)": {
        "details": "User specifies maximum input && exact output.",
        "params": {
          "deadline": "Time after which this transaction can no longer be executed.",
          "eth_bought": "Amount of ETH purchased.",
          "max_tokens": "Maximum Tokens sold.",
          "recipient": "The address that receives output ETH."
        },
        "return": "Amount of Tokens sold."
      },
      "tokenToExchangeSwapInput(uint256,uint256,uint256,uint256,address)": {
        "details": "Allows trades through contracts that were not deployed from the same factory.User specifies exact input && minimum output.",
        "params": {
          "deadline": "Time after which this transaction can no longer be executed.",
          "exchange_addr": "The address of the exchange for the token being purchased.",
          "min_eth_bought": "Minimum ETH purchased as intermediary.",
          "min_tokens_bought": "Minimum Tokens (token_addr) purchased.",
          "tokens_sold": "Amount of Tokens sold."
        },
        "return": "Amount of Tokens (exchange_addr.token) bought."
      },
      "tokenToExchangeSwapOutput(uint256,uint256,uint256,uint256,address)": {
        "details": "Allows trades through contracts that were not deployed from the same factory.User specifies maximum input && exact output.",
        "params": {
          "deadline": "Time after which this transaction can no longer be executed.",
          "exchange_addr": "The address of the exchange for the token being purchased.",
          "max_eth_sold": "Maximum ETH purchased as intermediary.",
          "max_tokens_sold": "Maximum Tokens (token) sold.",
          "tokens_bought": "Amount of Tokens (token_addr) bought."
        },
        "return": "Amount of Tokens (token) sold."
      },
      "tokenToExchangeTransferInput(uint256,uint256,uint256,uint256,address,address)": {
        "details": "Allows trades through contracts that were not deployed from the same factory.User specifies exact input && minimum output.",
        "params": {
          "deadline": "Time after which this transaction can no longer be executed.",
          "exchange_addr": "The address of the exchange for the token being purchased.",
          "min_eth_bought": "Minimum ETH purchased as intermediary.",
          "min_tokens_bought": "Minimum Tokens (token_addr) purchased.",
          "recipient": "The address that receives output ETH.",
          "tokens_sold": "Amount of Tokens sold."
        },
        "return": "Amount of Tokens (exchange_addr.token) bought."
      },
      "tokenToExchangeTransferOutput(uint256,uint256,uint256,uint256,address,address)": {
        "details": "Allows trades through contracts that were not deployed from the same factory.User specifies maximum input && exact output.",
        "params": {
          "deadline": "Time after which this transaction can no longer be executed.",
          "exchange_addr": "The address of the exchange for the token being purchased.",
          "max_eth_sold": "Maximum ETH purchased as intermediary.",
          "max_tokens_sold": "Maximum Tokens (token) sold.",
          "recipient": "The address that receives output ETH.",
          "tokens_bought": "Amount of Tokens (token_addr) bought."
        },
        "return": "Amount of Tokens (token) sold."
      },
      "tokenToTokenSwapInput(uint256,uint256,uint256,uint256,address)": {
        "details": "User specifies exact input && minimum output.",
        "params": {
          "deadline": "Time after which this transaction can no longer be executed.",
          "min_eth_bought": "Minimum ETH purchased as intermediary.",
          "min_tokens_bought": "Minimum Tokens (token_addr) purchased.",
          "token_addr": "The address of the token being purchased.",
          "tokens_sold": "Amount of Tokens sold."
        },
        "return": "Amount of Tokens (token_addr) bought."
      },
      "tokenToTokenSwapOutput(uint256,uint256,uint256,uint256,address)": {
        "details": "User specifies maximum input && exact output.",
        "params": {
          "deadline": "Time after which this transaction can no longer be executed.",
          "max_eth_sold": "Maximum ETH purchased as intermediary.",
          "max_tokens_sold": "Maximum Tokens (token) sold.",
          "token_addr": "The address of the token being purchased.",
          "tokens_bought": "Amount of Tokens (token_addr) bought."
        },
        "return": "Amount of Tokens (token) sold."
      },
      "tokenToTokenTransferInput(uint256,uint256,uint256,uint256,address,address)": {
        "details": "User specifies exact input && minimum output.",
        "params": {
          "deadline": "Time after which this transaction can no longer be executed.",
          "min_eth_bought": "Minimum ETH purchased as intermediary.",
          "min_tokens_bought": "Minimum Tokens (token_addr) purchased.",
          "recipient": "The address that receives output ETH.",
          "token_addr": "The address of the token being purchased.",
          "tokens_sold": "Amount of Tokens sold."
        },
        "return": "Amount of Tokens (token_addr) bought."
      },
      "tokenToTokenTransferOutput(uint256,uint256,uint256,uint256,address,address)": {
        "details": "User specifies maximum input && exact output.",
        "params": {
          "deadline": "Time after which this transaction can no longer be executed.",
          "max_eth_sold": "Maximum ETH purchased as intermediary.",
          "max_tokens_sold": "Maximum Tokens (token) sold.",
          "recipient": "The address that receives output ETH.",
          "token_addr": "The address of the token being purchased.",
          "tokens_bought": "Amount of Tokens (token_addr) bought."
        },
        "return": "Amount of Tokens (token) sold."
      },
      "totalSupply()": {
        "details": "Total number of tokens in existence"
      },
      "transfer(address,uint256)": {
        "details": "Transfer token to a specified address",
        "params": {
          "to": "The address to transfer to.",
          "value": "The amount to be transferred."
        }
      },
      "transferFrom(address,address,uint256)": {
        "details": "Transfer tokens from one address to another. Note that while this function emits an Approval event, this is not required as per the specification, and other compliant implementations may not emit the event.",
        "params": {
          "from": "address The address which you want to send tokens from",
          "to": "address The address which you want to transfer to",
          "value": "uint256 the amount of tokens to be transferred"
        }
      }
    }
  },
  "userdoc": {
    "methods": {
      "addLiquidity(uint256,uint256,uint256)": {
        "notice": "Deposit ETH && Tokens (token) at current ratio to mint UNI tokens."
      },
      "ethToTokenSwapInput(uint256,uint256)": {
        "notice": "Convert ETH to Tokens."
      },
      "ethToTokenSwapOutput(uint256,uint256)": {
        "notice": "Convert ETH to Tokens."
      },
      "ethToTokenTransferInput(uint256,uint256,address)": {
        "notice": "Convert ETH to Tokens && transfers Tokens to recipient."
      },
      "ethToTokenTransferOutput(uint256,uint256,address)": {
        "notice": "Convert ETH to Tokens && transfers Tokens to recipient."
      },
      "getEthToTokenInputPrice(uint256)": {
        "notice": "Public price function for ETH to Token trades with an exact input."
      },
      "getEthToTokenOutputPrice(uint256)": {
        "notice": "Public price function for ETH to Token trades with an exact output."
      },
      "getTokenToEthInputPrice(uint256)": {
        "notice": "Public price function for Token to ETH trades with an exact input."
      },
      "getTokenToEthOutputPrice(uint256)": {
        "notice": "Public price function for Token to ETH trades with an exact output."
      },
      "tokenToEthSwapInput(uint256,uint256,uint256)": {
        "notice": "Convert Tokens to ETH."
      },
      "tokenToEthSwapOutput(uint256,uint256,uint256)": {
        "notice": "Convert Tokens to ETH."
      },
      "tokenToEthTransferInput(uint256,uint256,uint256,address)": {
        "notice": "Convert Tokens to ETH && transfers ETH to recipient."
      },
      "tokenToEthTransferOutput(uint256,uint256,uint256,address)": {
        "notice": "Convert Tokens to ETH && transfers ETH to recipient."
      },
      "tokenToExchangeSwapInput(uint256,uint256,uint256,uint256,address)": {
        "notice": "Convert Tokens (token) to Tokens (exchange_addr.token)."
      },
      "tokenToExchangeSwapOutput(uint256,uint256,uint256,uint256,address)": {
        "notice": "Convert Tokens (token) to Tokens (exchange_addr.token)."
      },
      "tokenToExchangeTransferInput(uint256,uint256,uint256,uint256,address,address)": {
        "notice": "Convert Tokens (token) to Tokens (exchange_addr.token) && transfers        Tokens (exchange_addr.token) to recipient."
      },
      "tokenToExchangeTransferOutput(uint256,uint256,uint256,uint256,address,address)": {
        "notice": "Convert Tokens (token) to Tokens (exchange_addr.token) && transfers        Tokens (exchange_addr.token) to recipient."
      },
      "tokenToTokenSwapInput(uint256,uint256,uint256,uint256,address)": {
        "notice": "Convert Tokens (token) to Tokens (token_addr)."
      },
      "tokenToTokenSwapOutput(uint256,uint256,uint256,uint256,address)": {
        "notice": "Convert Tokens (token) to Tokens (token_addr)."
      },
      "tokenToTokenTransferInput(uint256,uint256,uint256,uint256,address,address)": {
        "notice": "Convert Tokens (token) to Tokens (token_addr) && transfers        Tokens (token_addr) to recipient."
      },
      "tokenToTokenTransferOutput(uint256,uint256,uint256,uint256,address,address)": {
        "notice": "Convert Tokens (token) to Tokens (token_addr) && transfers        Tokens (token_addr) to recipient."
      }
    }
  }
}